:020000040800F2
:10C0000000000120C1C10008991701089B17010811
:10C010009F170108A3170108A717010800000000D7
:10C02000000000000000000000000000AB17010845
:10C03000AD17010800000000AF170108B117010893
:10C04000DBC10008DBC10008DBC10008DBC1000860
:10C05000DBC10008DBC10008DBC10008DBC1000850
:10C06000DBC10008DBC10008DBC10008351801088E
:10C0700059180108651801084D18010871180108C0
:10C08000DBC10008DBC10008DBC10008DBC1000820
:10C09000DBC10008DBC10008DBC10008DBC1000810
:10C0A000DBC10008DBC10008DBC10008DBC1000800
:10C0B000B9170108CD170108DBC10008DBC1000872
:10C0C000DBC10008DBC10008DBC10008DBC10008E0
:10C0D000DBC10008E1170108DBC10008DBC1000873
:10C0E000DBC10008DBC10008DBC10008DBC10008C0
:10C0F000DBC10008DBC10008DBC1000841180108F2
:10C10000DBC10008DBC10008C3170108DBC1000860
:10C11000FF170108EB170108DBC10008DBC10008AD
:10C12000DBC100081D180108DBC10008DBC10008E5
:10C13000DBC10008DBC10008DBC10008DBC100086F
:10C14000DBC10008DBC10008DBC10008DBC100085F
:10C15000DBC1000829180108DBC10008D717010856
:10C16000DBC10008DBC10008DBC10008DBC100083F
:10C17000DBC10008DBC10008DBC10008DBC100082F
:10C18000DBC10008DBC10008F5170108DBC10008AE
:10C19000DBC10008DBC10008DBC10008DBC100080F
:10C1A000DBC10008DBC10008DBC10008DFF80CD0F0
:10C1B0003DF028FE0048004715C600080000012099
:10C1C0000648804706480047FEE7FEE7FEE7FEE731
:10C1D000FEE7FEE7FEE7FEE7FEE7FEE71FC4000816
:10C1E000ADC100080020D14A126842F4FE72CF4B64
:10C1F0001A60CF4ACF4B1A604FF0CC33CD4A203A69
:10C200005362CD4ACB4B203B1A604FF0AA32C94B48
:10C21000183B1A6000221B1F1A60C64B143B1A60A1
:10C220004FF0CC32C54B1A621346C44A53624FF0EA
:10C23000AA32C24B1A609A6000225A60DA604FF04C
:10C24000CC32BF4B1A601346BD4A203A5362BD4AF6
:10C25000BB4B203B1A60BA4B183B1A6000221B1FD5
:10C260001A60B74B143B1A604FF0CC32B64B1A60D1
:10C270001346B54A203A53624FF0AA32B24B203BE4
:10C280001A60B14B183B1A6000221B1F1A60AE4B9C
:10C29000143B1A60AD4AAE4B1A604FF0CC33AC4A37
:10C2A000203A5362AB4AAA4B203B1A60A84B183B7A
:10C2B0001A6000221B1F1A60A54B143B1A604FF036
:10C2C000CC32A54B1A624FF44C63A34A5362A34A83
:10C2D000A14B1A609A6000225A60DA60934A0832D1
:10C2E000126842F00102914B08331A609C4A1268AE
:10C2F0006FF30F024FF02043C3F84021984A1268B1
:10C3000041F6E41342EA03024FF02043C3F8402110
:10C310001A46D2F8482102F07042C3F84821914AE7
:10C320001268914B42EA03024FF02043C3F84821C0
:10C330001A46D2F850216FF31502C3F850211A465D
:10C34000D2F8502142F01102C3F85021874A1268F6
:10C3500002F0200000BF0028FDD1014600E0491C8A
:10C3600042F210729142FAD3814A12686FF31502B9
:10C370004FF02043C3F850211A46D2F8502142F022
:10C380001202C3F85021794A126802F0200000BF5F
:10C390000028FDD1014600E0491CB1F57A7FFBD3AE
:10C3A000734A12686FF315024FF02043C3F850210F
:10C3B0001A46D2F8502142F0F302C3F850216B4ADA
:10C3C000126802F0200000BF0028FDD1684A126800
:10C3D0006FF315024FF02043C3F85021644A1268EE
:10C3E000644B42EA03024FF02043C3F850215F4AF6
:10C3F000126802F0200000BF0028FDD15E4A1068DC
:10C4000040F6D42240EA02024FF02043C3F8542100
:10C41000534A106820F40072C3F84021704710B5E9
:10C420005648006840F47000544908603F4830386E
:10C43000006840F001003D493039086000203B4968
:10C44000283908603948303800684D490840374974
:10C45000303908604B48091D0860081F006820F447
:10C460008020091F08600020304924390860FFF748
:10C47000B9FE454841498039086010BD70B50020BB
:10C480000022022300240221284D283D2D6805F0BA
:10C490000C0020B1042806D0082834D107E03B4D19
:10C4A0003B4E356033E03B4D394E35602FE01F4D3C
:10C4B0002C3D2D68C5F380541C4D2C3D2D6805F096
:10C4C0003F0154B1334DB5FBF1F5184E2C3E3668A3
:10C4D000C6F3881605FB06F209E02C4DB5FBF1F515
:10C4E000124E2C3E3668C6F3881605FB06F20F4D39
:10C4F0002C3D2D68C5F301456D1C6B00B2FBF3F5B7
:10C50000234E356003E0214D214E356000BF00BF52
:10C51000064D283D2D68C5F303151F4E705D1C4D5B
:10C520002D68C5401A4E356070BD0000303802409D
:10C53000CC00CCCC200C02400AAAAAAA00100240CF
:10C5400020140240AA0A80AA2018024000CCC00091
:10C55000201C0240A008AAAA00200240AAAA280083
:10C56000400100A0480100A072742302580100A0FD
:10C57000500100A014600400540100A088ED00E008
:10C58000FFFFF6FE1030002400C000080024F40075
:10C59000000003C040787D01040003C013B50C46C1
:10C5A0004FF6FF7301226946C1481DF063FE0098F3
:10C5B0001CBD2DE9F0414FF48071BE4816F0C3FD5B
:10C5C00005464FF40071BB4816F0BDFD06464FF41A
:10C5D0008061B84816F0B7FD07460121B64816F04D
:10C5E000B2FD8046002405B901E044F0010406B91B
:10C5F00001E044F0020407B901E044F00404B8F19A
:10C60000000F00D101E044F0080404F00F042046BC
:10C61000BDE8F08188B005F07BF801F0CDFA01F0BB
:10C6200051FB01F0CCFBA548A5490860A548A649E7
:10C630000860A6489E490860A548A6490860A64823
:10C64000A64908604FF4E13005900020ADF81800CD
:10C65000ADF81A00ADF81C0005A9954801F020FDC1
:10C6600005A99C4801F01CFD05A99C4801F018FD96
:10C6700005A9934801F014FD05A9934801F010FDA8
:10C6800097A03DF07BFE9C4801F079FF01F03CFD56
:10C6900062B602F069FD9949994801F0CFFD01F0B9
:10C6A000FEFD02F08EFE07F0A4FE96489649086053
:10C6B0000320486040F6FF71934881601EF0B5FE8C
:10C6C00010B192A03DF05AFE39E01421684602F004
:10C6D00094FAFFF76EFF00F00200022805D08749A8
:10C6E000143968463CF023FF38B184491439684650
:10C6F0003CF01DFF2FF074F804E08B497F4814389C
:10C7000002F07BFA7D4802F035FD884802F079FCA2
:10C7100005F000F918B186A03DF030FE02E089A0D6
:10C720003DF02CFE78481EF0A7FE10B18EA03DF023
:10C7300025FE03210A2004F054FD2FF055FFC4E725
:10C74000002100E0491C8142FCDB704710B56E48B7
:10C750001EF0B4FE10B18BA03DF010FE10BD70B500
:10C7600004468F48056807E0FFF7F0FF8C48006833
:10C77000401BA04200D300E0F6E700BF70BD10B53B
:10C780008848006890B100222021874816F0E3FC19
:10C7900084480068022809D3FFF7D8FF00208149A8
:10C7A000086001222021804816F0D5FC10BD10B58C
:10C7B0007E4800687E490968401AC8283DD37B48F6
:10C7C00000687B4908604FF48051774816F0BBFC45
:10C7D00028B978480078401C764908702DE07548E3
:10C7E0000078002829D073480078012810DD7148AE
:10C7F000007819280CDA70A03DF0C0FD00206D49CA
:10C80000087000224FF40061674816F0A4FC14E0A1
:10C810006848007819280DDB6BA03DF0AFFD2EF0C5
:10C82000DFFF02F0F2F900224FF400615E4816F0DB
:10C8300092FC02E000205F49087010BD5B48006870
:10C840005B49086000205B490870704763490968CC
:10C850006FF315014FF02042C2F850111146D1F884
:10C86000501141F0F501C2F850114FF0010003E002
:10C870005B49096801F020000028F9D17047574949
:10C8800009686FF315014FF02042C2F850111146AC
:10C89000D1F8501141F0F301C2F850114FF00100EE
:10C8A00003E04F49096801F020000028F9D17047E2
:10C8B000DC2C19C0001402400008024000140140A2
:10C8C000A42B19C000500040402C19C0001001409A
:10C8D00000780040142E19C0004C0040782D19C07B
:10C8E0000A0D2D3E4170706C69636174696F6E2E24
:10C8F0002E2E0A0D0A0D0000702F19C0E85410C02A
:10C90000D0EB18C00030004018EC18C057617463B9
:10C9100068446F6720496E6974206661696C65645C
:10C920002121210A0D000000A83B0100848911C0CB
:10C93000525354502052756E6E696E672E2E2E0A19
:10C940000D0000005253545020696E7374616E6381
:10C950006520637265617465206661696C65642E2B
:10C960002E2E0A0D000000005761746368446F6743
:10C97000205374617274206661696C6564212121A1
:10C980000A0D00005761746368646F672069732043
:10C9900068756E6772792121210A0D0A0D00000069
:10C9A000307803C0387803C000000240347803C0F8
:10C9B000D03A03C0D43A03C0526573657420696EDF
:10C9C0002121210A0D000000546865207265696EFE
:10C9D000697420696E21210A0D000000500100A039
:10C9E000580100A070B504460D4600201EF09CFAC8
:10C9F000E1492068884207D12A46E04920461DF0D7
:10CA000073FD68B3092070BDDD492068884207D1F5
:10CA10002A46DC4920461DF067FD08B30820F2E7EE
:10CA2000D9492068884207D12A46D84920461DF0B6
:10CA30005BFDA8B10A20E6E7D5492068884207D106
:10CA40002A46D44920461DF04FFD48B10C20DAE7B4
:10CA50002A46D14920461DF047FD08B10B20D2E7F8
:10CA60000020D0E710B5CDA03DF088FCD9A03DF066
:10CA700085FCE2A03DF082FCEDA03DF07FFCFB4890
:10CA80003DF07CFCF94850303DF078FCF748983098
:10CA90003DF074FCF548E0303DF070FCF4483DF0AA
:10CAA0006DFCF4A03DF06AFC10BD2DE9F041064696
:10CAB0000C46FDA03DF062FC1EF033FA07466421EF
:10CAC0003046FFF78FFF9CE0FFF759FEFFF73EFE71
:10CAD0001EF027FAB8427CD00422F649F6483CF012
:10CAE0004AFD08B9002528E00422F449F2483CF048
:10CAF00042FD08B9012520E00422F149EE483CF04E
:10CB00003AFD08B9022518E00422EE49EA483CF053
:10CB100032FD08B9032510E00122EB49E6483CF05C
:10CB20002AFD08B9042508E00122E849E2483CF062
:10CB300022FD08B9052500E0FF25E5A03DF01EFC1B
:10CB4000062D4FD2DFE805F003171E32474BE2A057
:10CB50003DF014FC00BFBFF34F8FE448006800F4C1
:10CB6000E060E3490843001DE0490860BFF34F8FD0
:10CB700000BF00BFFEE7204602F011F802F045F8C2
:10CB8000BDE8F081CC49204602F05EFA68B9D9A030
:10CB90003DF0F4FBC4A03DF0F1FB1EF0C2F90746E6
:10CBA00064213046FFF71EFF2BE0E9E7C24920462B
:10CBB00002F082FA70B9CFA03DF0E0FBBAA03DF0E0
:10CBC000DDFB1EF0AEF9074664213046FFF70AFF91
:10CBD00017E015E0D4E70020CE490870D0E7FFF752
:10CBE00041FFCDE7C3A03DF0C9FBAFA03DF0C6FBC0
:10CBF0001EF097F9074664213046FFF7F3FE00E088
:10CC000000BF61E710B565A03DF0B8FB71A03DF035
:10CC1000B5FBC1A03DF0B2FB954848303DF0AEFBFE
:10CC2000934894303DF0AAFB9148E0303DF0A6FBDC
:10CC3000C8483DF0A3FB8FA03DF0A0FB10BD2DE93F
:10CC4000F04105460C46C4A03DF098FB1EF069F982
:10CC5000064664212846FFF7C5FE5FE0FFF78FFD1B
:10CC6000FFF774FD1EF05DF9B04256D00522BC49B5
:10CC700091483CF080FC08B9002718E00522B9492A
:10CC80008D483CF078FC08B9012710E001228E495C
:10CC900089483CF070FC08B9022708E001228B4962
:10CCA00085483CF068FC08B9032700E0FF2737B14E
:10CCB000012F19D0022F1BD0032F20D11CE07E4959
:10CCC000204602F063F868B98AA03DF057FBA2A0A5
:10CCD0003DF054FB1EF025F9064664212846FFF777
:10CCE00081FE1BE0BDE8F081204602F08AF9F9E7F9
:10CCF00000209D490870F5E7FFF784FFF2E77DA06B
:10CD00003DF03CFB94A03DF039FB1EF00AF90646CD
:10CD100064212846FFF766FE00E000BF9EE710B5DD
:10CD20001EA03DF02BFB2BA03DF028FB33A03DF0D7
:10CD300025FB88484C303DF021FB8CA03DF01EFBCC
:10CD4000844894303DF01AFB8248DC303DF016FBFD
:10CD500048A03DF013FB10BD2DE9F04105460C46FF
:10CD600092A03DF00BFB1EF0DCF80646642128463D
:10CD7000FFF738FE87E1000000140140B1F218C04F
:10CD80000010014030FF18C000500040B00B19C027
:10CD900000780040B02419C0301819C00A0D3E3E7A
:10CDA0003E3E3E3E3E3E3E3E3E3E3E3E3E3E3E3EA3
:10CDB0003E3E3E3E3E3E3E3E3E3E3E3E3E3E3E3E93
:10CDC0003E3E3E3E3E3E3E3E3E3E3E3E3E0A0D0A1C
:10CDD0000D00000054686520496E737475637469B2
:10CDE0006F6E207365747320697320617320666FA2
:10CDF0006C6C6F77733A0A0D0A0D000020436F6D5B
:10CE00006D616E6420202020466F726D6174202059
:10CE10002020202020202020202020202020202012
:10CE20002020204272696566200A0D0A0D0000006C
:10CE30002D3E726573746172742020207265737464
:10CE400061727420202020202020202020202020FB
:10CE50002020202020202072657374617274207459
:10CE6000686520736574730A0D0A0D0050BD0408CF
:10CE700078BE04083E3E3E3E3E3E3E3E3E3E3E3E88
:10CE80003E3E3E3E3E3E3E3E3E3E3E3E3E3E3E3EC2
:10CE90003E3E3E3E3E3E3E3E3E3E3E3E3E3E3E3EB2
:10CEA0003E3E3E0A0D0A0D0073797374656D2D3E8A
:10CEB00000000000107603C084A922C01A7603C0C7
:10CEC000247603C0387603C0BA7603C0C47603C0A4
:10CED0000A0D0A0D000000007265737461727469B6
:10CEE0006E672E2E2E0A0D0A0D0000000CED00E0DC
:10CEF0000000FA05496E707574206572726F7221B8
:10CF00002054727920616761696E2E2E2E0A0D0AF7
:10CF10000D000000E17603C020436F6D6D616E640B
:10CF200020202020466F726D617420202020202058
:10CF300020202020202020202020202020202020F1
:10CF4000202020202020204272696566200A0D0AD8
:10CF50000D000000A8BF040849502D3E000000004D
:10CF6000D47503C0F27503C0DF7603C02D3E64693B
:10CF700073706C617920646973706C617920202012
:10CF800020202020202020202020202020202020A1
:10CF9000202020646973706C617920746865206159
:10CFA0006464726573730A0D0A0D00004D41432DD0
:10CFB0003E000000FFF7E3FBFFF7C8FB1DF0B1FFE9
:10CFC000B0425FD00322D749D7483CF0D4FA08B921
:10CFD000002718E00322D549D3483CF0CCFA08B921
:10CFE000012710E00122D249CF483CF0C4FA08B929
:10CFF000022708E00122CF49CB483CF0BCFA08B92F
:10D00000032700E0FF27AFF238103DF0B7F937B142
:10D01000012F1CD0022F1ED0032F23D11FE0C249A5
:10D02000204601F07EFB01280FD0AFF238103DF012
:10D03000A5F9AFF288003DF0A1F91DF072FF064698
:10D0400064212846FFF7CEFC1DE0BDE8F0812046B4
:10D0500001F034FCF9E70020B7490870F5E7FFF765
:10D060005EFEF2E7AFF274103DF088F9AFF2C40053
:10D070003DF084F91DF055FF064664212846FFF770
:10D08000B1FC00E000BF95E72DE9F04105460E46F2
:10D09000AAA03DF073F9AFF224203DF06FF9AEA0E5
:10D0A0003DF06CF9B6A03DF069F9C1A03DF066F91C
:10D0B000CBA03DF063F9D9A03DF060F9E2A03DF0CE
:10D0C0005DF9F1A03DF05AF9AFF258203DF056F964
:10D0D000FBA03DF053F91DF024FF074664212846CC
:10D0E000FFF780FC73E0FFF74AFBFFF72FFB1DF013
:10D0F00018FFB8426BD00322F2498B483CF03BFA50
:10D1000008B9002428E00222EF4987483CF033FAAE
:10D1100008B9012420E00422EC4983483CF02BFAB2
:10D1200008B9022418E00522E9497F483CF023FAB7
:10D1300008B9032410E002227D497B483CF01BFA29
:10D1400008B9042408E00522E24977483CF013FAC4
:10D1500008B9052400E0FF24012077490870DE4962
:10D160000870DE490870DE49087079A03DF006F9C4
:10D170002AE0062C25D2DFE804F0030C24151E203B
:10D1800031462846FFF7E8FD6B48007800B919E002
:10D190001AE0D4492846FFF752FDCF48007800B97D
:10D1A00010E011E031462846FFF77FFCCC480078BC
:10D1B00000B907E008E0BDE8F0810020CA49087026
:10D1C000F9E700BF00BF00E0D3E700BF00E08AE757
:10D1D00000BF00BFEFE72DE9F04705460E461446B5
:10D1E00099460127288810B150287CD10EE00020F4
:10D1F000BE4908701DF095FEBD49086064213046A7
:10D20000FFF7F0FB00BF5020288000BF1DF089FE13
:10D21000B7490968884203D0434800780D2802D0F6
:10D220000020BDE8F08700BF00BFB2A03DF0A6F827
:10D230000120AD4908701DF074FEAD490860002062
:10D240001DF072FE64213046FFF7CCFB10E0FFF7C3
:10D250007DFA1DF066FEA6490968884208D01DF0D7
:10D2600066FE804642463049A5483CF043F900E05E
:10D27000EDE700BFA3A03DF081F81DF052FE9C49F0
:10D28000086000201DF050FE0120984908706421BC
:10D290003046FFF7A7FB10E0FFF758FA1DF041FEFC
:10D2A00093490968884208D01DF041FE80464246F5
:10D2B0001D4998483CF01EF900E0EDE700BF04F17D
:10D2C000AA003CF02DF9804642468D4904F1AA009F
:10D2D0003CF051F9C0B904F1BE003CF021F98046A0
:10D2E00042468C4900E024E104F1BE003CF043F9E1
:10D2F00050B907E021463046FFF7C6FE7A4800786D
:10D3000000B900E0F6E713E183A03DF037F8874865
:10D3100001780078401C854A1070052900DC84E7FC
:10D3200006E10000A27503C084A922C0C07503C035
:10D33000BA7603C0C47603C0DE7603C00A0D0A0DB8
:10D340002D3E434C492052756E6E696E672E2E2E0F
:10D350000A0D0A0D0000000054686520496E7374C0
:10D36000756374696F6E20736574732069732061CF
:10D370007320666F6C6C6F7773203A0A0D0A0D008C
:10D380002D3E4D4143206F706572202020206F702C
:10D3900065726174696F6E20666F722074686520B3
:10D3A0004D414320616464726573730A0D0A0D0078
:10D3B0002D3E4950206F70657220202020206F7014
:10D3C00065726174696F6E20666F72207468652083
:10D3D000495020616464726573730A0D0A0D000080
:10D3E0002D3E52535450206F7065722020206F7074
:10D3F00065726174696F6E20666F72207468652053
:10D40000525354502062726967646520696E666F7A
:10D41000726D6174696F6E0A0D0A0D002D3E73798D
:10D420007374656D206F706572206F7065726174C2
:10D43000696F6E20666F72207468652073797374EB
:10D44000656D0A0D0A0D00002D3E272F2720202094
:10D450002020202020206F7065726174696F6E201B
:10D46000666F722072657475726E206261636B20E4
:10D47000746F20746865206D61696E206D656E75CE
:10D480000A0D0A0D000000002D3E6C6F676F757469
:10D490002020202020206F7065726174696F6E20DB
:10D4A000666F72206C6F676F7574207468652043B7
:10D4B0004C492073797374656D0A0D0A0D000000E4
:10D4C0002D3E0000987503C0CA7503C04C7603C09A
:10D4D000FC7503C0CE7603C0DF7603C0E07603C0E0
:10D4E000E17603C0848911C0DD7603C0E27603C013
:10D4F000D87603C0557365726E616D653A000000A1
:10D500003CEC18C00A0D0A0D50617373776F72649A
:10D510003A00000050EC18C0496E76616C696420D6
:10D5200075736572210A0D0A0D000000DC7603C0D8
:10D5300000BF00BF002700202880022071E610B540
:10D540000346002003E0145C0C54441CA0B2984233
:10D55000F9DB10BD70B506460C4615462246CC498F
:10D560002846FFF7ECFF2A46C94930461CF078FFF1
:10D5700008B100BFFEE700BF30461DF0C4FC012823
:10D58000FAD170BD10B50346002003E01C5C1454B2
:10D59000441CA0B28842F9DB10BD30B503460C46EE
:10D5A000002156E0BB4D1868A84219D1BA48056859
:10D5B000BA48854204D1A0F5C860B74D286004E0A0
:10D5C000B5480068401CB44D2860B34D986A2D687A
:10D5D000A84200D13FE0B04800680078605436E0CF
:10D5E000AF4D1868A84219D1AE480568AE488542CB
:10D5F00004D1A0F5C860AB4D286004E0A9480068DC
:10D60000401CA84D2860A74D986A2D68A84200D1FB
:10D6100021E0A44800680078605418E0A348056839
:10D62000A348854204D1A0F5C860A04D286004E05D
:10D630009E480068401C9D4D28609C4D986A2D684E
:10D64000A84200D107E09948006800786054481C5F
:10D6500081B29142A6DB00BF914201DA012030BDC8
:10D660000020FCE710B5AFF2F4703CF087FEAFF697
:10D670009C003CF083FE8FA03CF080FE9B483CF079
:10D680007DFE9A4850303CF079FE9848A4303CF03A
:10D6900075FE9648F4303CF071FE95483CF06EFE05
:10D6A000934854303CF06AFE9148A0303CF066FE4E
:10D6B000AFF640003CF062FE10BD2DE9F041064699
:10D6C0000C468CA03CF05AFE1DF02BFC0746642152
:10D6D0003046FFF787F9C3E0FFF751F81DF021FC52
:10D6E000B84272D00822854985483BF044FF08B90A
:10D6F000002530E00822834981483BF03CFF08B90F
:10D70000012528E0082280497D483BF034FF08B914
:10D71000022520E008227D4979483BF02CFF08B91A
:10D72000032518E005227A4975483BF024FF08B923
:10D73000042510E00122774971483BF01CFF08B92D
:10D74000052508E0012274496D483BF014FF08B933
:10D75000062500E0FF25AFF208403CF00FFE072D44
:10D760006ED2DFE805F0041C344B62666A000022CA
:10D770006349204601F06AFA01280ED0AFF68C000A
:10D780003CF0FCFD5BA03CF0F9FD1DF0CAFB074638
:10D7900064213046FFF726F962E0BDE8F0810022FF
:10D7A0005749204601F052FA01280FD0AFF6BC00CD
:10D7B0003CF0E4FD4FA03CF0E1FD1DF0B2FB07465C
:10D7C00064213046FFF70EF94AE048E0E5E7002221
:10D7D0004B49204601F03AFA01280ED0AFF6EC0092
:10D7E0003CF0CCFD43A03CF0C9FD1DF09AFB074680
:10D7F00064213046FFF7F6F832E0CEE700224049D8
:10D80000204601F023FA01280ED0AFF618103CF0A4
:10D81000B5FD38A03CF0B2FD1DF083FB0746642146
:10D820003046FFF7DFF81BE0B7E7204601F067FA64
:10D83000B3E7002039490870AFE7FFF713FFACE703
:10D84000AFF650103CF09AFD2AA03CF097FD1DF079
:10D8500068FB074664213046FFF7C4F800E000BFCC
:10D860003AE770B504460D4600BF0F232A4621460D
:10D870002B481CF078FD0028F7D170BD70B5044628
:10D880000D46FF230122214625481CF0F3FC70BD04
:10D8900070EC18C000140140247803C0F0F818C0E0
:10D8A00000100140287803C0700519C02C7803C00F
:10D8B000F01119C020436F6D6D616E64202020202F
:10D8C00020202020466F726D6174202020202020AF
:10D8D0002020202020202020202020202020204226
:10D8E00072696566200A0D0A0D000000C8C00408B0
:10D8F00010C20408525354502D3E0000607603C0FD
:10D9000084A922C0747603C0887603C09C7603C0C5
:10D91000B07603C0BA7603C0C47603C0E07603C015
:10D92000DC2C19C010B5024601200DE0012805D1FC
:10D93000D3061C0E01F110031C5403E0002401F176
:10D9400010031C54431CD8B20428EFDB10BD30B5C3
:10D950000346002005E0145CDD6AAD682C54441CCD
:10D96000A0B28842F7D330BD00210AE0826A126873
:10D9700042F00042836A1A60826AD26882624A1C5C
:10D98000D1B25029F2DB70472DE9F04106460F462F
:10D9900014461D4621462846FFF7C4FF2246394655
:10D9A0003046FFF7D4FF3946304614F0EDF8BDE8B5
:10D9B000F08170B504460D46224629467548FFF7AA
:10D9C000C6FF2946734814F0DFF870BD2DE9F04F0B
:10D9D00087B006460F4690466FA103C9CDE9050101
:10D9E0006F48D0F800B009E06D480068A0EB0B006C
:10D9F000404503D3002007B0BDE8F08F654814F020
:10DA000062F90028F0D114226249303168463BF0B7
:10DA10002FFD00215F488163002403E00498005D2E
:10DA20003055641C0398A042F8D81FFA84FABC420F
:10DA300002D95CA03CF0A2FC009D002407E0D5F8D0
:10DA40000C90286840F0004028604D46641C029805
:10DA5000A042F4D85046CEE72DE9F04F85B080467D
:10DA60000E469346DDF838904D48D0F800A009E006
:10DA70004B480068A0EB0A00484503D3002005B0DE
:10DA8000BDE8F08F404614F01EF90028F0D11422B2
:10DA90004049303168463BF0EBFC00213D48816352
:10DAA000002403E00498005D3055641C0398A042F4
:10DAB000F8D8009D002406E0EF68286840F0004098
:10DAC00028603D46641C0298A042F5D80120D6E7A4
:10DAD00010B50146002006E0831DCA5C0C5CCC54E6
:10DAE0000A54431C98B20628F6DB10BDADF5CB6D89
:10DAF0000746384614F0C9FA3BE000BF384614F038
:10DB0000E2F80028FAD114222249303101A83BF072
:10DB1000AFFC00211F48816300240EE0059810F03F
:10DB2000030F05D005982044807806A9085503E026
:10DB30000598005D06A90855641C0498A042EDD81C
:10DB4000019D002406E0EE68286840F0004028604F
:10DB50003546641C0398A042F5D806A8FFF7B8FF25
:10DB600006AA38460499FFF7F2FE3846049914F0E5
:10DB70000BF8C2E7704710B5ADF5CF6D0446C8206D
:10DB800002AB03AA0EA900902046FFF765FF0DF532
:10DB9000CF6D10BDD0EB18C00000000000010000E8
:10DBA000347803C075697020427566666572206FAF
:10DBB0007665726C61702100FE48006840F00100DB
:10DBC000FC4908600846006840F00200086008460A
:10DBD000006840F0040008600846006840F0080053
:10DBE00008600846006840F01000086008460068B9
:10DBF00040F0200008600846006840F040000860DF
:10DC00000846006840F0800008600846006840F45C
:10DC100080700860E7481430006840F02000E54953
:10DC2000143108600846006840F010000860081FC2
:10DC3000006840F48010091F08600846006840F042
:10DC4000804008600846006840F4002008600846EC
:10DC5000006840F0010008600846006840F00800D5
:10DC600008600846006840F002000860D14800687B
:10DC700040F00070CF4908600846006840F08060BE
:10DC800008600846006840F000600860C94810302D
:10DC9000006840F40010C74910310860C5480830DA
:10DCA000006840F00100C34908310860C1480068BD
:10DCB00040F40010BF4908600846006840F4800046
:10DCC0000860704710B505200BF0D6FC0222032136
:10DCD00025200BF0E3FC25200BF01EFD0022022185
:10DCE0001C200BF0DBFC1C200BF016FD0122022196
:10DCF0001D200BF0D3FC1D200BF00EFD022211465F
:10DD000032200BF0CBFC32200BF006FD0122022169
:10DD10003D200BF0C3FC3D200BF0FEFC0022012156
:10DD200020200BF0BBFC20200BF0F6FC002202218F
:10DD30001F200BF0B3FC1F200BF0EEFC002211465D
:10DD400045200BF0ABFC45200BF0E6FC0122114610
:10DD500039200BF0A3FC39200BF0DEFC0022114629
:10DD60002F200BF09BFC2F200BF0D6FC012211463C
:10DD70000B200BF093FC0B200BF0CEFC0022114685
:10DD80000C200BF08BFC0C200BF0C6FC0122114682
:10DD90000E200BF083FC0E200BF0BEFC002211467F
:10DDA0000F200BF07BFC0F200BF0B6FC012211467C
:10DDB0000D200BF073FC0D200BF0AEFC10BD00B578
:10DDC00085B0402000900220039001900120029035
:10DDD000082004906946784815F02CF880200090BF
:10DDE00002200190039000200290082004906946D0
:10DDF000714815F01FF84FF4007000900220039056
:10DE00000190012002900720049069466B4815F0AC
:10DE100011F84FF4806000900220039001900020E0
:10DE20000290072004906946644815F003F84FF407
:10DE30008050009002200390019001200290082061
:10DE4000049069465C4814F0F5FF0420009002201D
:10DE500003900190002002900820049069465848E1
:10DE600014F0E8FF80200090022003900190012030
:10DE70000290082004906946524814F0DBFF4020CD
:10DE8000009002200390019000200290082004904E
:10DE900069464C4814F0CEFF4FF480600090022099
:10DEA00003900190012002900820049069464248A6
:10DEB00014F0C0FF4FF40060009002200390019026
:10DEC000002002900820049069463B4814F0B2FFFD
:10DED0006020009001200190032003900020029018
:10DEE0006946364814F0A6FF00224021334815F059
:10DEF00032F9C020009001200190032003900020FF
:10DF000002906946304814F095FF10200090694651
:10DF10002A4814F08FFF00221021284815F01BF921
:10DF200000228021284815F016F9012240212648B8
:10DF300015F011F94FF4B250009001200190032028
:10DF40000390002002906946204814F073FF0022DD
:10DF50004FF480611D4815F0FEF800224FF4007167
:10DF60001A4815F0F8F801221103184815F0F3F8D3
:10DF70004FF4407000900120019003200390002096
:10DF8000029069460C4814F055FF00224FF480714E
:10DF9000094815F0E0F800224FF40071064815F02A
:10DFA000DAF84FF4E0600090002001900320039025
:10DFB00000200DE03038024000080240000002401E
:10DFC000000C024000140240001C024000180240F5
:10DFD00002906946FE4814F02DFF012000900020B9
:10DFE000019003200390002002906946F94814F044
:10DFF00021FF8F20009002200190039000200290CA
:10E000000B2004906946F44814F014FF43F60350C3
:10E010000090022001900390002002900B200490B9
:10E020006946EE4814F006FF3E2000900220019061
:10E030000390002002900B2004906946E54814F0FC
:10E04000F9FE4FF41070009004200490122001900B
:10E050000120029003906946E04814F0EBFE012293
:10E06000D102DD4815F077F84FF4006000900120F0
:10E07000019003200390012002906946D64814F0D5
:10E08000D9FE4FF4805000900020019003200390AF
:10E09000002002906946D04814F0CCFE05B000BDC7
:10E0A00030B587B004460D4628680090A8880190D6
:10E0B000E888029028890390C9492068884201D1E4
:10E0C0000C2000E0082004900020059003901C2202
:10E0D0006946201D3BF0CCF920461BF048FFC049A3
:10E0E000206888420BD12068C06840F02000216879
:10E0F000C8602068C06840F400502168C8600120F2
:10E1000084F8490007B030BD10B517F08FFF044602
:10E110004FF08040B3490860600840F6B831B0FB6A
:10E12000F1F0401EAF49486040F6B731AD48C160DC
:10E1300000218160016118F092FC0020AA4908606A
:10E14000A8480068006920F00100A6490968086134
:10E15000A4480068C06840F00100A2490968C8608E
:10E16000A0480068006840F001009E490968086006
:10E170009E489F49086060084FF47A71B0FBF1F047
:10E180004FF49671B0FBF1F0401E9949486040F29F
:10E190002B119748C16000218160016118F05FFC7C
:10E1A00000209449086092480068006920F001004E
:10E1B0008F49096808618E480068C06840F0010016
:10E1C0008B490968C8608A480068006840F001000F
:10E1D000874909680860884888490860600840F6EF
:10E1E000B831B0FBF1F0401E8449486040F6B731C9
:10E1F0008248C16000218160016118F030FC00207C
:10E200007F4908607D480068006920F001007B4973
:10E210000968086179480068C06840F001007749E2
:10E220000968C86075480068006840F001007349DB
:10E230000968086010BD6F480068704770B50446F3
:10E240000D46012060608103A160C102E1600221EE
:10E25000218265610021A16121620121E16169489A
:10E260002060204613F074FB5023674A674920461C
:10E2700013F0ECFB5023664A6649204613F03EFC3F
:10E2800000210A2002F0ADFF70BD634863490860B9
:10E29000634864490860644864490860704708B589
:10E2A0001A21634801826A46002113F016FE6A466D
:10E2B00001215F4813F011FEBDF8000020F030008E
:10E2C0000090BDF8000040F010000090BDF8002064
:10E2D0000121574813F040FE6A460121544813F0CB
:10E2E000FCFDBDF800004FF6F07108400090BDF84D
:10E2F000000040F00D000090BDF8002001214C48C6
:10E3000013F02AFE6A460121494813F0E6FDBDF8E4
:10E31000000020F030000090BDF8000040F0300018
:10E320000090BDF800200121414813F015FE6A4617
:10E3300000213F4813F0D1FD08BD38B5044604F173
:10E34000100081B23A4801826A46012113F0C5FDEE
:10E35000BDF8000020F030000090BDF8000040F053
:10E3600010000090BDF800200121314813F0F4FDA9
:10E3700038BD38B5044604F1100081B22C48018242
:10E380006A46012113F0A9FDBDF8000020F030001D
:10E390000090BDF8000040F030000090BDF8002073
:10E3A0000121234813F0D8FD38BD38B5044604F1E7
:10E3B000100081B21E4801826A46012113F08DFDD2
:10E3C000BDF8000020F030000090BDF8002031E0E2
:10E3D0000014024000080240000002400004024015
:10E3E00000100140F02A19C0307803C0000C004032
:10E3F0002C2B19C0347803C000040040682B19C0CE
:10E40000387803C000800240D00315C0A82F19C07F
:10E41000D0F716C0A83919C0B0F218C0247803C0CC
:10E42000B00B19C02C7803C030FF18C0287803C087
:10E43000D0EB18C00121FB4813F08EFD38BD1FB58D
:10E440001A21F84801826A46042113F046FDBDF8FE
:10E4500000004CF6FF7108400090BDF800004FF638
:10E46000FF4108400090BDF800000090BDF800009A
:10E4700040F440700090BDF800200421E94813F0FA
:10E480006BFD6A460F21E74813F027FD002000903E
:10E49000BDF8000041F2342108430090BDF800208F
:10E4A0000F21E04813F058FD03208DF8040044F2DA
:10E4B0000E00ADF80600002405E0DB48015D02A86F
:10E4C0000155601CC4B2062CF7DB0120ADF80E002C
:10E4D00001A801F040FC0020D44908608860486031
:10E4E0001FBD30B585B00546D1A00068009003205F
:10E4F0008DF8080044F20E00ADF80A00002404E094
:10E50000295D03A80155601CC4B2062CF8DB01206C
:10E51000ADF8120002A801F01EFC00231A460221E9
:10E52000012001F0CCFC1B21BE48018201AA1A2166
:10E5300013F0D3FCBDF8040020F0F0000190BDF80A
:10E54000040040F0A0000190BDF804201A21B54855
:10E5500013F002FD01AA1C21B24813F0BEFCBDF865
:10E56000040000F01F000190BDF804201A21AD48FE
:10E5700013F0F2FCAB4813F088FD05B030BD10B5C8
:10E5800088B00446AB480090002001904FF48040D2
:10E59000039000200490079006900A200290FE202D
:10E5A0000590A548206020226946201D3AF060FFB2
:10E5B000204614F004FE10B1A0A03BF0DFFE08B02E
:10E5C00010BD38B505460C460020009001202060A3
:10E5D000102060600120A0600020E0604FF48052B5
:10E5E0002146284618F089F901200AF0D5FF0220BB
:10E5F0002060102060600120A0600020E0604FF4E7
:10E6000080522146284618F078F903202060102017
:10E6100060600820A0600020E0604FF48052214636
:10E62000284618F06AF94FF40C700090042020601E
:10E63000102060600120A0600098E0604FF48052DC
:10E640002146284618F059F92868406940F61821F3
:10E6500008432968486138BD10B5044684482060E5
:10E660000220844908600620486004208860062053
:10E67000C860022008614861886100206060002154
:10E68000A1600421E16020212161402161614FF4FA
:10E69000C071A1610021E1614FF400612162490074
:10E6A00061620021A1627349204617F062FF10B138
:10E6B00071A03BF063FE76492046FFF782FF10BD54
:10E6C00010B54FF020407349086069483C384860F5
:10E6D0000F2071490860032048600A2088600120EB
:10E6E000C86008610020486188616A49886000212B
:10E6F0006848C160082101611021416100218161E8
:10E700004FF4805181620021C162016341634FF483
:10E71000002181630021C1635F4A114616F06DFF3D
:10E7200010BD2DE9F0418CB007460D4600260724A8
:10E7300038E0285D30280BDB285D392808DC285DAF
:10E740003038C2B23046711CCEB204A90A5427E058
:10E75000285D41280BDB285D462808DC285D37381A
:10E76000C2B23046711CCEB204A90A5418E0285D2A
:10E7700061280BDB285D662808DC285D5738C2B2AB
:10E780003046711CCEB204A90A5409E0285D202845
:10E7900006D0285D2E2803D000200CB0BDE8F08103
:10E7A000601CC4B2182CC4DB0C2E01DD0020F4E781
:10E7B00003208DF804004FF48040ADF806000024DB
:10E7C00004E0395D02A80155601CC4B2062CF8DBD8
:10E7D0000120ADF80E0001A801F0BDFA00260024CA
:10E7E00015E0204604EBD0714910B4EB410103D190
:10E7F00004A810F8048008E004A8005D68F31F1066
:10E80000C2B23046711CCEB23A54601CC4B20C2C59
:10E81000E7DB03208DF8040044F20E00ADF806009B
:10E82000002440E0D0EB18C0EE7603C064EC18C0C2
:10E8300001020000A0860100005400404F68212121
:10E84000207768617420746865206675636B212089
:10E850005468652049324320696E697469616C6946
:10E860007A6174696F6E206661696C65642100006D
:10E87000400100A0E42E19C0496E697469616C6999
:10E880007A6174696F6E204572726F72210A0D0091
:10E89000002F19C0102F19C0542F19C0395D02A8BC
:10E8A0000155601CC4B2062CF8DB0120ADF80E0047
:10E8B00001A801F050FA00F0A8F96EE73EB5044651
:10E8C0002CA03BF05BFD60792179E278CDE9002155
:10E8D0000290A3786278217833A03BF04FFD25A009
:10E8E0003BF04CFD3EBDF8B50446002600250DE08A
:10E8F00028466A461C2101F0A9F8BDF8000010F076
:10E90000080F01D0701CC6B2681CC5B2082DEFDB21
:10E910000C223149314802F0DBFE48B90A2084F864
:10E9200032000E222E4904F1140002F0E3FE1FE033
:10E93000022E09D1082084F832000622294904F168
:10E94000140002F0D7FE08E00A2084F83200062204
:10E95000254904F1140002F0CDFE08221F4920468B
:10E9600002F0C8FE0422214904F1280002F0C2FE90
:10E97000F8BD00003E3E3E3E3E3E3E3E3E3E3E3EFA
:10E980003E3E3E3E3E3E3E3E3E3E3E3E3E3E3E3EA7
:10E990003E3E3E3E3E3E3E3E3E3E3E3E3E3E3E3E97
:10E9A0003E3E3E0A0D0A0D004D41432061646472F3
:10E9B0006573733A2020253032782E253032782E38
:10E9C000253032782E253032782E253032782E259B
:10E9D0003032780A0D0A0D00C97703C0B57703C03D
:10E9E0000F7803C0E77703C0FB7703C0DD7703C070
:10E9F0002DE9F04105460E4613F0C8FE10B1F1A016
:10EA00003BF0BCFC0020F6490860022008610B20A6
:10EA100088600120C860F349F14813F06DFF28B108
:10EA2000F1A03BF0ABFC0020BDE8F081FDF78EFECD
:10EA3000F348F4490860002414E02F5D3A460023AF
:10EA4000F0480168184613F077FD30B9ED480068CA
:10EA5000401CEC490860641C04E0EBA03BF08EFC19
:10EA60000020E1E7E6483044E64909688842E4D8F6
:10EA700013F0A6FEE248E34908600020E949086077
:10EA8000002413E0DF4800680078E7490870285D3B
:10EA90000978884204D0E3480068401CE1490860D6
:10EAA000D8480068401CD7490860641CD4483044EA
:10EAB000D44909688842E5D8DA48006820B1DBA06B
:10EAC0003BF05CFC0020AFE70120ADE710B5044649
:10EAD00013F05CFE0020C2490860022008618860D3
:10EAE0000120C860BF49BE4813F006FF20B1D6A080
:10EAF0003BF044FC002010BDDA48C24908602246C1
:10EB0000002308460168184613F016FD20B1CEA078
:10EB10003BF034FC0020EEE713F052FED148B94937
:10EB200008600020BF490860B64800680078BE4908
:10EB3000087008460078A04204D0BA480068401C1B
:10EB4000B8490860B748006820B1BFA03BF016FC88
:10EB50000020D0E70120CEE70146C248A94A106054
:10EB600010460068007808700120704710B5024612
:10EB7000A348A44C2060002309E0A2480068007864
:10EB8000D054A0480068401C9E4C20605B1C9C48F0
:10EB900008449C4C2468A042EFD8012010BD10B559
:10EBA00004467822B049A01D3AF062FC4FF40040C0
:10EBB000A4F8A2000221A42001531421A62001538D
:10EBC0000F21A82001530D22A84904F17E003AF03C
:10EBD0004FFC2822A64904F1AA003AF049FC10BDD6
:10EBE0000146A1F1300080B2704770B504460D4671
:10EBF00029462046FFF7FCFE70BD30B504460D46A1
:10EC000029462046FFF7B2FF30BD10B599499A4812
:10EC10003AF047FC97499848FFF7EFFF12229549D1
:10EC200095482DF040F804461222924993482DF061
:10EC30003AF8844208D08F499048FFF7D6FF08B1D0
:10EC4000012010BD0020FCE70220FAE72DE9F04783
:10EC500005460F4690464FF00C09002417E017F8C0
:10EC60000960302E0DDB392E0BDC3046FFF7B8FF84
:10EC700004EB840100EB410409F101001FFA80F963
:10EC800005E00D2E00D103E00020BDE8F087E6E7A7
:10EC900000BFB8F1000F09D0B8F1010F0FD0B8F1E3
:10ECA000020F14D0B8F1030F23D119E000BFB4F55F
:10ECB000704F01D90020E8E7A5F8A2401BE00CB195
:10ECC0000A2C01D90020E0E7A420445313E0062CCD
:10ECD00001D3282C01D90020D7E7A62044530AE00D
:10ECE000042C01D31E2C01D90020CEE7A5F8A240A8
:10ECF00001E00020C9E700BFFFF787FFC5E710B5B7
:10ED000004465FA03BF03AFB6AA03BF037FBB4F847
:10ED1000A21073A03BF032FBA420015B77A03BF074
:10ED20002DFBA620015B7CA03BF028FBA820015B0B
:10ED300080A03BF023FB52A03BF020FB10BD2DE94F
:10ED4000F04106460D4600271FE02888345C2E2C33
:10ED500003D0202C01D00D2C05D12888401C288000
:10ED60003846BDE8F081302C0CDB392C0ADC20461B
:10ED7000FFF736FF07EB870100EB41072888401CAF
:10ED8000288002E04FF0FF30EBE7DEE72DE9FC41A1
:10ED900004460F46072001906DA03BF0EFFA6E4944
:10EDA0006EA03BF0EBFA0026E5E001A93846FFF73C
:10EDB000C6FF0546681C01D0FF2D02D90020BDE822
:10EDC000FC81D5E054686520466C61736820756EDF
:10EDD0006C6F636B206661696C65640A0D000000EE
:10EDE000A84319C0F4B203C0466C61736820457231
:10EDF000617365204661696C65642121210A0D00FB
:10EE000000000E08F0B203C0466C617368205072B7
:10EE10006F6772616D206661696C65642121210AEA
:10EE20000D000000FCB203C000B303C050533A20F1
:10EE3000466C61736820436865636B206572726F0E
:10EE4000722121210A0D0000536574206E657477CC
:10EE50006F726B2055706772616465206572726FA6
:10EE6000720A0D0000800008FA7603C0727703C0B2
:10EE70007F7703C0A83B010054AA24C0D45410C01B
:10EE80003E3E3E3E3E3E3E3E3E3E3E3E3E3E3E3EA2
:10EE90003E3E3E3E3E3E3E3E3E3E3E3E3E3E3E3E92
:10EEA0003E3E3E3E3E3E3E3E3E3E3E3E3E3E3E0AB6
:10EEB0000D0A0D00202020202020202020202020AE
:10EEC00020202052535450204272696467652049C3
:10EED0006E666F726D6174696F6E0A0D0A0D0000C7
:10EEE000427269646765207072696F726974792013
:10EEF00020203A202564200A0D0A0D004272696420
:10EF000067652068656C6C6F2074696D65203A20B8
:10EF10002564200A0D0A0D00427269646765206D40
:10EF2000617820616765202020203A202564200A2E
:10EF30000D0A0D004272696467652066772064657A
:10EF40006C61792020203A202564200A0D0A0D00EA
:10EF50000A0D0A0D0000000084A922C04950207348
:10EF60007472696E673A25730A0D0A0D000000007D
:10EF7000A555701C86B2042EFFF617AFE0780090FE
:10EF8000A3786278217898A03BF0F8F9002610E089
:10EF900001A93846FFF7D3FE0546681C01D0FF2DB6
:10EFA00002D90020BDE8FC8104F108008555701CE1
:10EFB00086B2042EECDBE07A0090A37A627A217AA2
:10EFC00092A03BF0DBF900260EE001A93846FFF7DE
:10EFD000B6FE0546681C01D0FF2D01D90020E1E7EF
:10EFE000201D8555701C86B2042EEEDBE079009062
:10EFF000A379627921798DA03BF0C0F9FFF705FE76
:10F00000D0E738B50446AFF288103BF0B7F9E078A6
:10F010000090A378627821788CA03BF0AFF9E07A79
:10F020000090A37A627A217A90A03BF0A7F9E07968
:10F030000090A3796279217994A03BF09FF9AFF217
:10F04000C0103BF09BF938BDF0B589B006460D46BF
:10F05000202101A83AF025FA202101A83AF021FA4E
:10F0600007240EE0285D0D2800D10BE0285D10B9C3
:10F07000002009B0F0BD295DE01F01AA1154601CF9
:10F0800084B2EFE700BF182C04DB88A03BF076F9D0
:10F090000020EEE7142106F1AA003AF002FA01A8D6
:10F0A0003AF03EFA07463A4601A906F1AA003AF0BC
:10F0B00021FAFFF7AAFDDCE7F0B589B006460D4658
:10F0C000202101A83AF0EDF9202101A83AF0E9F950
:10F0D00008240FE0285D0D2800D10CE0285D10B950
:10F0E000002009B0F0BD295DA4F1080001AA115467
:10F0F000601C84B2EEE700BF182C04DB71A03BF06B
:10F100003DF90020EDE7142106F1BE003AF0C9F9FF
:10F1100001A83AF005FA07463A4601A906F1BE00F1
:10F120003AF0E8F9FFF771FDDBE730B5BBB0044614
:10F130000D46E82101A8FFF719FD10B900203BB0EA
:10F1400030BD0622654906A802F0C2FA30B906228F
:10F15000634904F1140002F0CDFA03E0614920464E
:10F16000FFF704FD0120EAE710B55E495E48FFF7AE
:10F17000DCFF10BD3EB50446AFF2FC203BF0FEF8CC
:10F180005AA03BF0FBF862A03BF0F8F8A11D65A087
:10F190003BF0F4F865A03BF0F1F804F1420161A006
:10F1A0003BF0ECF866A03BF0E9F804F160015DA0EB
:10F1B0003BF0E4F867A03BF0E1F804F1240159A02A
:10F1C0003BF0DCF8AFF248303BF0D8F860792179B9
:10F1D000E278CDE900210290A3786278217862A0DC
:10F1E0003BF0CCF83EBD000049502061646472657C
:10F1F000737320646F6E65203A2025642E25642E7B
:10F2000025642E25640A0D0A0D0000004950206D6A
:10F2100061736B20646F6E653A2025642E25642E21
:10F2200025642E25640A0D0A0D0000004950206453
:10F23000726164647220646F6E653A2025642E25C5
:10F24000642E25642E25640A0D0A0D0049502061A4
:10F250006464726573732020203A2025642E25642F
:10F260002E25642E25640A0D0A0D00004950206DDC
:10F2700061736B2020202020203A2025642E2564F5
:10F280002E25642E25640A0D0A0D000049502072B7
:10F290006F75746572202020203A2025642E256425
:10F2A0002E25642E25640A0D0A0D00007573657203
:10F2B0006E616D6520746F6F206C6F6E6721200A20
:10F2C0000D0A0D0070617373776F726420746F6F35
:10F2D000206C6F6E6721200A0D0A0D00F47603C0C2
:10F2E000E87603C0A83B0100D45410C020202020A1
:10F2F00020202020202020202020536574732049C6
:10F300006E666F726D6174696F6E0A0D0A0D000092
:10F310004861726477617265202020202020203AA5
:10F320002000000025730A0D0A0D0000536F66745B
:10F3300077617265202020202020203A20000000E4
:10F34000536F66742056657273696F6E2020203A81
:10F3500020000000417574686F722020202020205A
:10F360002020203A200000004D4143206164647257
:10F37000657373202020203A20253032782E2530E6
:10F3800032782E253032782E253032782E253032C4
:10F39000782E253032780A0D0A0D00001FB540F690
:10F3A000FF70012103AA0B46CDE9002102901B2228
:10F3B0004021FE4815F082F99DF80C00C01004B001
:10F3C00010BD10B5FFF7EAFF044610BD2DE9F0416E
:10F3D00086B004460D462046E11704EB9171C1F357
:10F3E0008706E11704EB91718910A4EB810189066E
:10F3F0000F0E40F6FF70012105AACDE90021029011
:10F4000007F10C0206F140010123E84815F056F916
:10F4100040F6FF70012104AACDE90021029007F116
:10F42000100206F140010123E04815F047F99DF86C
:10F43000140000F0030028709DF81400C0F30110C0
:10F4400068709DF81000A87040F6FF70012105AAB1
:10F45000CDE90021029007F1300206F140010123BD
:10F46000D24815F02BF940F6FF70012104AACDE92E
:10F470000021029007F1310206F140010123CB483F
:10F4800015F01CF99DF814009DF8101040EA0128B1
:10F49000A5F8048040F6FF70012105AACDE90021FE
:10F4A000029007F1320206F140010123BF4815F036
:10F4B00005F940F6FF70012104AACDE90021029070
:10F4C00007F1330206F140010123B84815F0F6F8C0
:10F4D0009DF814009DF8101040EA0128A5F8068058
:10F4E00006B0BDE8F0812DE9FF4105460C462846EF
:10F4F000E91705EB9171C1F38707E91705EB9171E6
:10F500008910A5EB8101CEB240F6FF70012103AA5C
:10F51000CDE90021029007F1400101230322A34815
:10F5200015F0CCF89DF80C00311D084100F00100E9
:10F5300060709DF80C00304100F00100207040F632
:10F54000FF70012103AACDE90021029007F14001DB
:10F5500001230522954815F0B1F89DF80C003041C3
:10F5600000F00100A0709DF80C00311D084100F072
:10F570000100207040F6FF70012103AACDE90021AF
:10F58000029007F1400101230722884815F096F800
:10F590009DF80C00304100F0010161719DF80C00F4
:10F5A000311D084100F00100207140F6FF7001217B
:10F5B00003AACDE90021029007F1400101230922AD
:10F5C0007A4815F07BF89DF80C00304100F00101FD
:10F5D000E1719DF80C00311D084100F00100A0719F
:10F5E000BDE8FF812DE9FF4104460F462046E117A3
:10F5F00004EB9171C1F38705E11704EB9171891058
:10F60000A4EB8101CEB240F6FF70012103AACDE93F
:10F610000021029005F1400101231222634815F0F8
:10F620004DF87100032088409DF80C108143039130
:10F630003878710088409DF80C100843C0B20390E0
:10F6400040F6FF70012103AACDE90021029005F1E7
:10F65000400101231222554814F017FF18B1002071
:10F6600004B0BDE8F08140F6FF70012103AACDE9A6
:10F670000021029005F14001012315224B4815F0AD
:10F680001DF80120B0409DF80C108143039138789B
:10F69000B0409DF80C100843C0B2039040F6FF70D4
:10F6A000012103AACDE90021029005F140010123C7
:10F6B00015223E4814F0E9FE08B10020D0E740F6DC
:10F6C000FF70012103AACDE90021029006EB86001C
:10F6D00000F1470205F140010123344814F0D5FE42
:10F6E00008B10020BCE70120BAE77FB504462046F8
:10F6F000E11704EB9171C1F38705E11704EB9171F8
:10F700008910A4EB8101CEB2FF2C22D100200390FE
:10F7100040F6FF70012103AA0B46CDE900210290BB
:10F7200013224021214814F0B0FE10B1002004B093
:10F7300070BD40F6FF70012103AA0B46CDE9002100
:10F74000029013224121194814F09FFE68B3002053
:10F75000EDE740F6FF70012103AACDE900210290F8
:10F7600005F1400101231322104814F0A7FF0120E6
:10F77000B0409DF80C1081430391301D0121814060
:10F780009DF80C008843039040F6FF70012103AA06
:10F79000CDE90021029005F1400101231322034825
:10F7A00014F073FE08B10020C1E701E0702F19C00A
:10F7B000FF2C21D10F20039040F6FF70012103AAF6
:10F7C0000B46CDE90021029019224021844814F013
:10F7D0005CFE08B10020AAE740F6FF70012103AAF1
:10F7E0000B46CDE900210290192241217C4814F0FA
:10F7F0004CFEB0B100209AE70120B040C0B20390A7
:10F8000040F6FF70012103AACDE90021029005F125
:10F81000400101231922724814F037FE08B100207C
:10F8200085E7012083E77FB504462046E11704EB16
:10F830009171C1F38705E11704EB91718910A4EB75
:10F840008101091DCEB2FF2C22D1F020039040F699
:10F85000FF70012103AA0B46CDE900210290192275
:10F8600040215F4814F011FE10B1002004B070BDBB
:10F8700040F6FF70012103AA0B46CDE9002102905A
:10F8800019224121564814F000FEB0B10020EDE7E6
:10F890000120B040C0B2039040F6FF70012103AADE
:10F8A000CDE90021029005F14001012319224C48C5
:10F8B00014F0EBFD08B10020D8E7FF2C21D1F02097
:10F8C000039040F6FF70012103AA0B46CDE9002109
:10F8D000029013224021424814F0D7FD08B10020C5
:10F8E000C4E740F6FF70012103AA0B46CDE90021D1
:10F8F0000290132241213A4814F0C7FD48B300207A
:10F90000B4E740F6FF70012103AACDE9002102907F
:10F9100005F1400101231322314814F0CFFE301DC0
:10F92000012101FA00F09DF80C100843C0B20390C9
:10F9300040F6FF70012103AACDE90021029005F1F4
:10F94000400101231322264814F09FFD08B1002036
:10F950008CE701208AE77FB504462046E11704EBD7
:10F960009171C1F387051020039040F6FF700121CB
:10F9700003AACDE90021029005F1400101231A22DA
:10F98000174814F082FD10B1002004B070BD0120B2
:10F99000FBE77FB504462046E11704EB9171C1F304
:10F9A0008705E11704EB91718910A4EB8101CEB2B8
:10F9B0000120B040C0B2039040F6FF70012103AABD
:10F9C000CDE90021029005F1400101231A220448EB
:10F9D00014F05BFD10B1002004B070BD0120FBE706
:10F9E000702F19C010B5F6A03AF0C8FCF84801888D
:10F9F000F8A03AF0C3FC10BD10B5F8A03AF0BEFC78
:10FA0000002407E0FA4830F81410F2A03AF0B6FCEF
:10FA1000601CC4B2082CF5DB10BD38B5F5A03AF077
:10FA2000ADFC00240FE004F11000FA4908826A4698
:10FA30000521F84812F051FABDF80010F6A03AF08E
:10FA40009DFC601CC4B20B2CEDDB38BDF8B505463F
:10FA50000E46174600244FF4004000901C21ED484C
:10FA6000018204E06A461821EA4812F036FABDF82D
:10FA7000000010F4004FF5D134434FF4787000EAE1
:10FA80004510044344F4006444F4805444F40044B6
:10FA900022461821DF4812F05FFA4FF40040009030
:10FAA00004E06A461821DB4812F017FABDF800009E
:10FAB00010F4004FF5D13A461921D64812F00DFA4C
:10FAC0000020F8BDF8B505460E4617464FF4004035
:10FAD000009000241C21CF48018204E06A461821CE
:10FAE000CC4812F0FAF9BDF8000010F4004FF5D13F
:10FAF0003A461921C74812F02FFA34434FF4787070
:10FB000000EA4510044344F4806444F4805444F40F
:10FB1000004422461821BF4812F01EFA4FF400405C
:10FB2000009004E06A461821BA4812F0D6F9BDF8F0
:10FB3000000010F4004FF5D10020F8BD38B50446A0
:10FB40001B21B44801826A460A2112F0C6F9BDF8A9
:10FB5000000020F47F6000904FF47F6000EA041002
:10FB6000BDF8001008430090BDF800200A21A94804
:10FB700012F0F2F938BD08B51B21A64801826A4689
:10FB80000A2112F0AAF9BDF80000001108BD38B52D
:10FB90001C21A0480182002418E04FF6FF7000EA03
:10FBA00004200090BDF800200D219A4812F0D4F9ED
:10FBB0003220FCF7C5FD6A460D21964812F08DF9FA
:10FBC000BDF8000096490855601C84B2062CE4DBA1
:10FBD00094A03AF0D3FB002406E09148015D8EA08A
:10FBE0003AF0CCFB601C84B2062CF6DB38BD38B58D
:10FBF00004464FF4004000901B21864801826A466B
:10FC0000012112F06AF9BDF800006FF30B000090BB
:10FC10006089BDF8001008430090BDF80020012164
:10FC20007C4812F099F904E06A460B21794812F0F9
:10FC300054F9BDF8000010F4004FF5D120794FF4CD
:10FC40007F4101EA002000906079BDF80010084370
:10FC50000090BDF800200D216E4812F07DF9A079CA
:10FC60004FF47F4101EA00200090E079BDF80010D8
:10FC700008430090BDF800200E21664812F06CF990
:10FC8000207A4FF47F4101EA00200090607ABDF8AD
:10FC9000001008430090BDF800200F215D4812F0CD
:10FCA0005BF96A460B215B4812F017F9BDF80000BA
:10FCB00020F470400090BDF8000040F440400090F7
:10FCC000BDF8000040F400400090BDF800200B217A
:10FCD000504812F041F904E06A460B214D4812F0F9
:10FCE000FCF8BDF8000010F4004FF5D16A460C2175
:10FCF000484812F0F2F8BDF8000060806A460D2115
:10FD0000444812F0EAF8BDF80000000A2071BDF87E
:10FD1000000060716A460E213E4812F0DEF8BDF820
:10FD20000000010AA171BDF80000E0716A460F21D0
:10FD3000384812F0D2F8BDF80000010A2172BDF86F
:10FD4000000060726A460121324812F0C6F8BDF820
:10FD50000000608138BD38B505461B212D48018261
:10FD600068890090BDF8002001212A4812F0F4F8BB
:10FD700068880090BDF800200C21264812F0ECF8AD
:10FD8000002469E0281D005D00020090601CC4B2E0
:10FD9000281D005DBDF8001008430090022C06DA13
:10FDA000BDF800200D211B4812F0D6F852E0042CBB
:10FDB0004ADABDF800200E21164812F0CDF849E0CD
:10FDC0007472756E6B5F766563746F723A000000D3
:10FDD00002B303C02578200A0D0000005468652096
:10FDE0006D61736B207461626C65203A0A0D0000CE
:10FDF00004B303C054686520706F72745F636F6EE4
:10FE000074726F6C312072656769737465727320E8
:10FE10003A0A0D00D0EB18C025780A0D000000004A
:10FE200014B303C0546865204D414320616464727B
:10FE300065737320696E20746865203838653630C4
:10FE40003937663A0A0D0000BDF800200F21FB4843
:10FE500012F082F8601CC4B2062C93DB0AE06A46FA
:10FE60000B21F64812F039F8BDF8000010F4004FED
:10FE700000D100E0F3E700BF28784FF4806101EA89
:10FE8000002040F460700090BDF8000040F4304065
:10FE90000090BDF800200B21E84812F05DF80BE05F
:10FEA0006A460D21E54812F018F8BDF8000000F48C
:10FEB0000040012800D000E0F2E700BF38BDF8B5EF
:10FEC00005460C4616461F461B21DC48018200975A
:10FED000BDF80020012112F03FF86A460C21D748F6
:10FEE00011F0FBFF022C04D1BDF8000020F0080047
:10FEF0000090032C11D1BDF8000040F00F000090DD
:10FF0000BDF8000020F01000009047F6F07000EA05
:10FF10000610BDF8001008430090BDF800200C2129
:10FF2000C64812F019F80AE06A460B21C34811F0DE
:10FF3000D4FFBDF8000010F4004F00D100E0F3E75B
:10FF400000BF35B1012D08D0022D0AD0032D10D1EC
:10FF50000BE04FF4104000900DE04FF42040009073
:10FF600009E04FF45040009005E04FF460400090ED
:10FF700001E00020F8BD00BFBDF800200B21AF4814
:10FF800011F0EAFF0AE06A460B21AC4811F0A5FF28
:10FF9000BDF8000010F4004F00D100E0F3E700BF0F
:10FFA0000120E7E7F8B505462E4600241FE004F1DE
:10FFB0001000A24908826A460B21A04811F08DFF6B
:10FFC00016F0010F05D0BDF8000040F4005000907D
:10FFD00004E0BDF8000020F4005000907610BDF859
:10FFE00000200B21954811F0B7FF601CC4B20A2C09
:10FFF000DDDBF8BD38B500240A2513E04FF6FF70AD
:020000040801F1
:1000000000EA440405F110008C4908826A460B217D
:100010008A4811F062FFBDF8000010F4005F01D0C3
:1000200044F001042800A5F10101CDB2E6D120463B
:1000300038BD1CB504464FF4004000901B217F489A
:10004000018201AA022111F048FFBDF8040040F628
:10005000FF710843019004E06A460521774811F0DA
:100060003CFFBDF8000010F4004FF5D1A088C0F3AC
:100070000B000190BDF804200621704811F06CFFC0
:1000800001AA05216D4811F028FFBDF8040020F4F5
:10009000E0400190BDF8040040F480400190BDF8BC
:1000A000040040F400400190BDF80420052163489D
:1000B00011F052FF4FF40040009004E06A46052121
:1000C0005E4811F00AFFBDF8000010F4004FF5D1B2
:1000D00001AA0521594811F000FFA21D0721574828
:1000E00011F0FBFE04F108020821544811F0F5FE5E
:1000F00004F10A020921514811F0EFFE221D0621E8
:100100004E4811F0EAFEA21C02214C4811F0E5FE17
:1001100022460321494811F0E0FEA088C0F30B00FD
:10012000A0801CBD10B5038813F440530ED0B3F566
:10013000805F11D0B3F5005F14D0B3F5405F17D1E5
:10014000002401F109039B1A1C7012E0012401F143
:1001500009039B1A1C700CE0022401F109039B1A8D
:100160001C7006E0032401F109039B1A1C7000E0D7
:1001700000BF00BF03884FF6FF7404EA0313038037
:1001800010BD1CB504464FF4004000901B212B48C5
:1001900001826288022111F0DFFE01AA03212748B3
:1001A00011F09BFEBDF804004FF6C07108400190AD
:1001B000BDF804200321214811F0CEFE04E06A4678
:1001C00005211E4811F089FEBDF8000010F4004F13
:1001D000F5D1A0880190BDF804200621174811F040
:1001E000BBFEE2880721154811F0B6FE22890821DE
:1001F000124811F0B1FE62890921104811F0ACFEDD
:1002000001AA05210D4811F068FEBDF8040020F494
:10021000E0400190BDF8040040F440500190BDF86A
:10022000040040F400400190BDF80420052103487B
:1002300011F092FE4FF40040009006E0D0EB18C0A1
:100240006A460521FE4811F048FEBDF8000010F492
:10025000004FF5D11CBD08B51B21F9480182BDF83E
:10026000000020F4E0400090BDF8000040F4805011
:100270000090BDF8000040F400400090BDF8002060
:100280000521EF4811F068FE04E06A460521EC48BC
:1002900011F023FEBDF8000010F4004FF5D108BDA9
:1002A0002DE9FE4307460E4690464FF6FF740025A3
:1002B0001FE0705D30B1012806D0022808D0032865
:1002C0000ED109E0A4B20CE04CF6FF70044008E047
:1002D0004EF6FF70044004E04DF6FF70044000E06D
:1002E00000BF00BF032D02D0241144F47044681CE9
:1002F000C5B2042DDDDBADF806404FF6FF740425D2
:100300001FE0705D30B1012806D0022808D0032814
:100310000ED109E0A4B20CE04CF6FF70044008E0F6
:100320004EF6FF70044004E04DF6FF70044000E01C
:1003300000BF00BF072D02D0241144F47044681C94
:10034000C5B2082DDDDBADF808404FF6FF74082577
:100350001FE0705D30B1012806D0022808D00328C4
:100360000ED109E0A4B20CE04CF6FF70044008E0A6
:100370004EF6FF70044004E04DF6FF70044000E0CC
:1003800000BF00BF092D02D0241144F47044681C42
:10039000C5B20A2DDDDB2012ADF80A00C7F30B044D
:1003A000B8F1000F04D044F48050ADF8040001E02F
:1003B000ADF80440ADF802700020ADF800006846CA
:1003C000FFF7DFFE0120BDE8FE8338B504460D4689
:1003D00005F1100081B29A4801826A46072111F0A6
:1003E0007CFDBDF800006FF30C000090BDF800002C
:1003F00020430090BDF8000040F480500090BDF80C
:10040000002007218E4811F0A7FD012038BD38B526
:1004100004460D4605F1100081B2894801826A4602
:10042000082111F05AFDBDF8000020F44060009052
:10043000012C05D1BDF8000040F44060009012E0AE
:10044000022C05D1BDF8000040F4006000900AE0E5
:10045000032C05D1BDF8000040F48060009002E05C
:10046000BDF800000090BDF800200821744811F08C
:1004700073FD012038BD38B504460D466A46082193
:100480006F4811F02AFDBDF8000020F44070009084
:10049000012C05D1BDF8000040F48070009006E00A
:1004A000022C04D1BDF8000040F400700090BDF8AB
:1004B00000200821624811F04FFD012038BD70472F
:1004C000F8B5064610215E48018201241AE06A460A
:1004D00006215B4811F001FD601E012181408DB2B3
:1004E0002E4208D026EA05000090BDF80020062123
:1004F000534811F031FD04F1100081B250480182DF
:10050000601C84B20B2CE2DBF8BD1CB504464FF432
:10051000004000901B214A48018204E06A461D21E8
:10052000474811F0DAFCBDF8000010F4004FF5D197
:1005300001AA1D21424811F0D0FCBDF8040020F4AE
:10054000E0400190BDF8040020F4F0700190BDF887
:10055000040020F01F000190FF2C05D1BDF804001D
:1005600040F48050019010E0BDF8040040F40050C9
:100570000190BDF80410601C41EA4010019004F0A5
:100580001F00BDF8041008430190BDF8040040F4BA
:1005900000400190BDF804201D21294811F0DCFC29
:1005A0004FF40040009004E06A461D21244811F0F9
:1005B00094FCBDF8000010F4004FF5D11CBD7CB5D3
:1005C00004460E4615464FF4004000901B211C487F
:1005D000018204E06A461D21194811F07EFCBDF835
:1005E000000010F4004FF5D14FF440621D21144873
:1005F00011F0B2FC01AA1D21114811F06EFCBDF8EA
:10060000040020F4E0400190BDF8040020F4F070F4
:100610000190BDF8040020F01F000190BDF8040017
:1006200040F480400190BDF80410701C41EA401075
:10063000019005F01F00BDF804100843019001E08F
:10064000D0EB18C0BDF8040040F400400190BDF8A4
:1006500004201D21F94811F07FFC4FF40040009068
:1006600004E06A461D21F54811F037FCBDF8000092
:1006700010F4004FF5D14FF440621D21EF4811F006
:100680006BFC01AA1E21ED4811F027FCBDF8040007
:10069000206001AA1F21E94811F01FFC2088BDF845
:1006A000041041EA004020607CBD7CB504460D4644
:1006B0004FF4004000901B21E048018204E06A46AC
:1006C0001D21DE4811F009FCBDF8000010F4004FB8
:1006D000F5D14FF440621D21D84811F03DFC01AA2C
:1006E0001D21D64811F0F9FBBDF8040020F4E040CC
:1006F0000190BDF8040020F4F0700190BDF80400F2
:1007000020F01F000190BDF8040040F4A0400190CB
:10071000BDF80410681C41EA4010019005F01F006C
:10072000BDF8041008430190BDF8040040F40040F7
:100730000190BDF804201D21C04811F00DFC4FF4BC
:100740000040009004E06A461D21BC4811F0C5FB42
:10075000BDF8000010F4004FF5D14FF440621D21A8
:10076000B64811F0F9FB002229462046FFF727FF83
:1007700001222946201DFFF722FF0222294604F10B
:100780000800FFF71CFF0422294604F10C00FFF7C4
:1007900016FF0622294604F11000FFF710FF07227A
:1007A000294604F11400FFF70AFF1622294604F136
:1007B0001800FFF704FF1822294604F11C00FFF778
:1007C000FEFE1922294604F12000FFF7F8FE1A2246
:1007D000294604F12400FFF7F2FE1B22294604F10A
:1007E0002800FFF7ECFE1C22294604F12C00FFF73D
:1007F000E6FE1D22294604F13000FFF7E0FE0E223E
:10080000294604F14C00FFF7DAFE0F22294604F1D5
:100810005000FFF7D4FE1022294604F15400FFF7E0
:10082000CEFE1322294604F15800FFF7C8FE12221B
:10083000294604F15C00FFF7C2FE1522294604F1A7
:100840006000FFF7BCFE0522294604F16400FFF7B3
:10085000B6FE1E22294604F16800FFF7B0FE1422FE
:10086000294604F16C00FFF7AAFE1722294604F17D
:100870007000FFF7A4FE1122294604F17400FFF76F
:100880009EFE1F22294604F17800FFF798FE0322FE
:10089000294604F17C00FFF792FE0822294604F164
:1008A0003400FFF78CFE0922294604F13800FFF7D7
:1008B00086FE0A22294604F13C00FFF780FE0B2247
:1008C000294604F14000FFF77AFE0C22294604F184
:1008D0004400FFF774FE0D22294604F14800FFF79B
:1008E0006EFE7CBD3EB504460D464FF400400190BF
:1008F0001B215248018204E001AA1D214F4811F03A
:10090000ECFABDF8040010F4004FF5D102AA1D2145
:100910004A4811F0E2FABDF8080020F4E0400290E5
:10092000BDF8080020F4F0700290BDF8080020F037
:100930001F000290BDF8080040F4A0400290BDF8EE
:100940000810681C41EA401080B2029005F01F00B8
:10095000BDF8081008430290BDF8080040F40040BC
:100960000290BDF808201D21344811F0F5FA4FF42B
:100970000040019004E001AA1D21304811F0ADFAB9
:10098000BDF8040010F4004FF5D1E9B20122684629
:10099000FFF715FE0021009820606160E9B2002297
:1009A0006846FFF70CFE2068616800221346009934
:1009B0000A43184322606060E9B2022204F1100089
:1009C000FFF7FDFDE9B20F226846FFF7F8FD0021B1
:1009D0000098A060E160E9B20E226846FFF7EFFDE3
:1009E000A068E16800210B46009A11431843A160FA
:1009F000E06005F1100081B21048018202AA1121C5
:100A000011F06BFABDF80800606102AA10210B48D2
:100A100011F063FA6069BDF8081041EA00406061B6
:100A200004F118021221054811F057FA04F11A02D4
:100A30001321024811F051FA3EBD0000D0EB18C05E
:100A40003EB504460D464FF4004001901B21F74887
:100A5000018204E001AA1D21F44811F03EFABDF81C
:100A6000040010F4004FF5D102AA1D21EF4811F047
:100A700034FABDF8080020F4E0400290BDF8080008
:100A800020F4F0700290BDF8080020F01F000290E2
:100A9000BDF8080040F4A0400290BDF80810681CA2
:100AA00041EA401080B2029005F01F00BDF8081026
:100AB00008430290BDF8080040F400400290BDF8E1
:100AC00008201D21D94811F047FA4FF40040019049
:100AD00004E001AA1D21D54811F0FFF9BDF804007A
:100AE00010F4004FF5D1E9B201226846FFF767FD27
:100AF00000210098C4E90001E9B200226846FFF72E
:100B00005EFD00222068134600990A431843C4E999
:100B10000020E9B2022204F10800FFF750FDE9B21B
:100B2000042204F10C00FFF74AFDE9B2062204F1A9
:100B30001000FFF744FDE9B2072204F11400FFF7AB
:100B40003EFDE9B2162204F11800FFF738FDD4E9A2
:100B50000301084461690844A16908440021C4E90B
:100B60000801E9B2182204F12800FFF728FDE9B2D4
:100B7000192204F12C00FFF722FDE9B21A2204F138
:100B80003000FFF71CFDE9B21B2204F13400FFF72F
:100B900016FDE9B21C2204F13800FFF710FDE9B29E
:100BA0001D2204F13C00FFF70AFDE9B20F2268465E
:100BB000FFF705FD00210098C4E91601E9B20E22F5
:100BC0006846FFF7FCFC0021A06D0B46009A11431C
:100BD0001843C4E91610E9B2102204F16000FFF7CF
:100BE000EEFCE9B2132204F16400FFF7E8FCE9B27D
:100BF000122204F16800FFF7E2FCE9B2152204F1C9
:100C00006C00FFF7DCFCD4E918010844A16E08442D
:100C1000E16E08440021C4E91C01E9B2052204F197
:100C20007800FFF7CCFCE9B21E2204F17C00FFF74C
:100C3000C6FCE9B2142204F18000FFF7C0FCE9B25F
:100C4000172204F18400FFF7BAFCE9B2112204F183
:100C50008800FFF7B4FCE9B21F2204F18C00FFF713
:100C6000AEFCE9B2032204F19000FFF7A8FCE9B260
:100C7000082204F14000FFF7A2FCE9B2092204F1C6
:100C80004400FFF79CFCE9B20A2204F14800FFF798
:100C900096FCE9B20B2204F14C00FFF790FCE9B29C
:100CA0000C2204F15000FFF78AFCE9B20D2204F196
:100CB0005400FFF784FC05F1100081B25B4801820B
:100CC00002AA112111F009F9BDF8080044F8940FA7
:100CD00002AA1021554811F000F92088BDF808102B
:100CE00041EA004044F8940904F1980212214F4867
:100CF00011F0F3F804F19A0213214C4811F0EDF8C9
:100D00003EBD1CB504464FF4004000901B214748EF
:100D1000018204E06A461D21444811F0DEF8BDF866
:100D2000000010F4004FF5D101AA1D213F4811F039
:100D3000D4F8BDF8040020F4406001904FF4406006
:100D400000EA8420BDF8041008430190BDF8042097
:100D50001D21364811F000F91CBD08B51B21334890
:100D600001826A461D2111F0B8F8BDF80000C0F3F9
:100D7000812008BDF8B504460E462D480088204065
:100D8000A04201D00320F8BD29480088A04328498B
:100D90000880002529E005F1100081B22348018276
:100DA00014F0010F1ED06A46052111F096F8BDF827
:100DB000000020F470600090BDF8000040F4804016
:100DC0000090BDF8000040EA062080B20090BDF817
:100DD000000000F47F400090BDF80020052113487A
:100DE00011F0BAF86410681C85B20B2DD3DB00201B
:100DF000C9E72DE9F04385B005460F464FF00008DE
:100E00000026A946002417E015F0010F07D00120A5
:100E1000A04082B23046711C8EB22DF810206D10A9
:100E2000082E07DD042005B0BDE8F083D0EB18C024
:100E300002B303C0601C84B20B2CE5DB1C21F84814
:100E4000018200245EE0B04501DB4FF00008F54868
:100E500030F8140020EA0900F24921F8140008468D
:100E600030F8140041464A1C1FFA82F83DF8111070
:100E70000843EC4921F8140004AA0721E84811F0BE
:100E80002CF8BDF8100020F4E0400490BDF81000EC
:100E90006FF30A000490BDF8100020F40060049085
:100EA0004FF4E04000EA0430BDF81010084304900D
:100EB0002103DD4839F062FABDF8100040F400600B
:100EC0000490D84830F81400C0F30A00BDF81010A0
:100ED00008430490BDF8100040F400400490BDF8B1
:100EE00010200721CE4811F037F804E004AA0721AA
:100EF000CB4810F0F2FFBDF8100010F4004FF5D110
:100F0000601C84B2082C9EDB1C21C54801824FF472
:100F1000004004904FF4F04000EAC720BDF81010E4
:100F200008430490C9F30A00BDF810100843049068
:100F3000BDF8100040F400400490BDF810200821D6
:100F4000B74811F009F804E004AA0821B44810F0E9
:100F5000C4FFBDF8100010F4004FF5D1002062E787
:100F60002DE9F84305460F46A8462E46AF480088AF
:100F7000284202D00520BDE8F88300241DE004F1DA
:100F80001000A749088215F0010F13D06A46052109
:100F9000A34810F0A2FFBDF8000010F4804F01D16B
:100FA0000620E8E7BDF80000C0F30320B84201D0F6
:100FB0000720E0E76D10601CC4B20B2CDFDB9B4800
:100FC000008830439949088000241EE004F1100095
:100FD0009349088216F0010F14D06A460521904803
:100FE00010F07BFFBDF8000020F480400090BDF8B9
:100FF000000020F470600090BDF8002005218848B2
:1010000010F0AAFF7610601CC4B20B2CDEDB1C2192
:1010100083480182002449E0824830F8140040EA05
:101020000800804921F814006A4607217C4810F026
:1010300054FFBDF8000020F4E0400090BDF800002F
:101040006FF30A000090BDF8000020F400600090EB
:101050004FF4E04000EA0430BDF80010084300906F
:10106000BDF8000040F4006000906E4830F81400B5
:10107000C0F30A00BDF8001008430090BDF800005E
:1010800040F400400090BDF800200721644810F0B3
:1010900063FF04E06A460721614810F01EFFBDF8B7
:1010A000000010F4004FF5D1601CC4B2082CB3DB73
:1010B0006A4608215A4810F010FFBDF8000020F4DD
:1010C000F04000904FF4F04000EAC720BDF8001057
:1010D00008430090BDF80000C0F30A000090BDF87E
:1010E000002008214E4810F037FF04E06A4608212E
:1010F0004B4810F0F2FEBDF8000010F4004FF5D19F
:10110000002038E738B5002424E004F110004449F9
:1011100008824648007810F0010F14D06A46052175
:101120003F4810F0DAFEBDF8000020F48040009047
:10113000BDF8000020F470600090BDF8002005218B
:10114000374810F009FF39480088401037490880B7
:10115000601CC4B20B2CD8DB1C2131480182002456
:101160003CE0304830F8140040F2FF7108432D494C
:1011700021F814006A460721294810F0AEFEBDF898
:10118000000020F4E0400090BDF800006FF30A007A
:101190000090BDF8000020F4006000904FF4E040A3
:1011A00000EA0430BDF8001008430090BDF80000CC
:1011B00040F400400090BDF800200721184810F0CE
:1011C000CBFE04E06A460721154810F086FEBDF804
:1011D000000010F4004FF5D1601CC4B2082CC0DB35
:1011E00038BD38B505460C4605F1100081B20C48F3
:1011F00001826A46042110F070FEBDF800004FF62F
:10120000FC710840009034B1012C11D0022C15D093
:10121000032C1FD118E0BDF8000000901BE0000077
:10122000D0EB18C004B303C0D4FD000802B303C060
:10123000BDF8000040F0010000900CE0BDF8000097
:1012400040F00200009006E0BDF8000040F003000E
:10125000009000E000BF00BFBDF800200421FA4864
:1012600010F07AFE38BD38B5044604F1100081B2A2
:10127000F54801826A46002110F02FFEBDF80000FB
:1012800010F4006F01D0012038BD0020FCE738B514
:10129000044604F1100081B2EB480182008A18284C
:1012A00006DBE948008A1A2802DC4FF47A7038BD60
:1012B0006A460021E44810F010FEBDF8000000F47A
:1012C00040700090BDF8000000120090BDF80000D2
:1012D00008B90A20EBE7BDF80000012801D164201D
:1012E000E5E70020E3E738B5044604F1100081B2D9
:1012F000D5480182082C01DB012038BD6A46002157
:10130000D14810F0EAFDBDF800000090BDF80000E3
:1013100010F4806F01D00120EFE70020EDE70146D7
:10132000082901DAC948704744F62060FBE738B560
:101330000446A0B26A461C21FEF788FBBDF80000F7
:1013400010F0080F01D0012038BD0020FCE738B5AF
:1013500004460D460A2C01DD0D2038BDA0B26A46B8
:101360000021FEF773FBBDF8000000F40060B0F54B
:10137000006F0AD1BDF8000020F400600090A0B218
:10138000BDF800200021FEF79DFB95BB2046FFF72E
:10139000CEFF18B12046FDF708F812E1A0B26A4668
:1013A0000421FEF753FBBDF8000040F4F0700090FC
:1013B000BDF8000020F040000090BDF8000020F0D3
:1013C00020000090A0B2BDF800200421FEF77AFBB7
:1013D000A0B26A460021FEF739FBBDF8000040F4D8
:1013E00000700090A0B2BDF800200021FEF76AFB5B
:1013F000E7E0FFE7012D2FD1A0B26A460421FEF7F6
:1014000025FBBDF8000040F4F0700090BDF800002E
:1014100020F040000090BDF8000020F02000009077
:10142000BDF8000020F480700090A0B2BDF800204C
:101430000421FEF747FBA0B26A460021FEF706FB37
:10144000BDF8000040F400700090A0B2BDF800208C
:101450000021FEF737FBB4E0022D2AD1A0B26A4684
:101460000421FEF7F3FABDF8000040F4F07000909C
:10147000BDF8000020F480700090BDF8000020F05E
:1014800080000090A0B2BDF800200421FEF71AFBF6
:10149000A0B26A460021FEF7D9FABDF8000040F478
:1014A00000700090A0B2BDF800200021FEF70AFBFA
:1014B00087E0032D2FD1A0B26A460421FEF7C6FAB9
:1014C000BDF8000040F4F0700090BDF8000020F47A
:1014D00080700090BDF8000020F040000090BDF842
:1014E000000020F080000090A0B2BDF80020042190
:1014F000FEF7E8FAA0B26A460021FEF7A7FABDF8A7
:10150000000040F400700090A0B2BDF8002000215F
:10151000FEF7D8FA55E0052D2AD1A0B26A4604217B
:10152000FEF794FABDF8000040F4F0700090A0B20D
:10153000BDF800200421FEF7C5FAA0B26A460021DA
:10154000FEF784FABDF8000020F444500090BDF886
:10155000000040F400400090BDF8000040F48050CE
:101560000090A0B2BDF800200021FEF7ABFA28E001
:10157000062D1ED1A0B26A460021FEF767FABDF81B
:10158000000020F400600090BDF8000040F400600E
:101590000090A0B2BDF800200021FEF793FA20468B
:1015A000FFF7C5FE08B9082C0BDB2046FCF7C5FE8B
:1015B00007E0042D03D12046FCF7F7FE01E00220EE
:1015C000CBE60020C9E6F8B504460D46A6B26A4649
:1015D00004213046FEF73AFA5DB1BDF8000040F450
:1015E00080600090BDF8002004213046FEF76AFAC2
:1015F0000AE0BDF8000020F480600090BDF80020F3
:1016000004213046FEF75EFA6A4600213046FEF7B6
:101610001DFA072C2BDD2046FCF78FFE04F110008D
:1016200081B2094801826A46012110F056FCBDF8DA
:10163000000020F0C000009055B1BDF8000040F05F
:10164000C000009009E00000D0EB18C0400D03007E
:10165000BDF8000040F040000090BDF800200121DE
:101660002A4810F079FC2046FCF79FFE11E06A46FC
:1016700000213046FEF7EAF9BDF8000040F40070A2
:101680000090BDF8002000213046FEF71BFA002034
:10169000F8BD04F1100081B21C4801826A460021A5
:1016A00010F01BFC0020F3E738B5044604F11000ED
:1016B00081B2164801826A46002110F00EFCBDF886
:1016C000000010F4004F01D0012038BD0020FCE7DD
:1016D00030B503460C46114605E0585C655CA842EF
:1016E00001D0012030BD0800A1F10105A9B2F4D15B
:1016F00000BFF7E710B50346002003E00C5C1C5464
:10170000441CA0B29042F9DB10BD0000D0EB18C021
:1017100030B591B01E48006840F080501C49086008
:101720001C48006840F440401A49086001200090BD
:1017300001900220069041050791192108914FF46C
:10174000B471099102210A9107210B91684614F0A6
:101750002DFA0F200C9002200D9000200E904FF4D7
:10176000A0500F904FF48050109005210CA814F059
:1017700073FC042008F09CF814F00CFE04464FF4AF
:101780007A70B4FBF0F5284607F0F2FF11B030BDD7
:101790004038024000700040704700BFFEE700BFC5
:1017A000FEE700BFFEE700BFFEE7704770477047E7
:1017B00010B507F0E5FE10BD10B5304816F046FC38
:1017C00010BD10B52E4816F041FC10BD10B52D48C7
:1017D00016F03CFC10BD10B52B4819F03EFA10BDB8
:1017E00010B52A4819F039FA10BD10B5284819F07B
:1017F00034FA10BD10B5274819F02FFA10BD10B5F6
:10180000254819F02AFA10BD10B5244813F081FDBF
:1018100010BD10B5214813F06BFE10BD10B51A496C
:10182000486B0DF05BFC10BD10B51749086B0BF051
:1018300000FC10BD10B51649486B0DF04FFC10BDF3
:1018400010B51349086B0BF0F4FB10BD10B511492E
:10185000486B0DF043FC10BD10B50E49086B0BF042
:10186000E8FB10BD10B50C49486B0DF037FC10BDFE
:1018700010B50949086B0BF0DCFB10BDF02A19C04C
:101880002C2B19C0682B19C0A42B19C0DC2C19C033
:10189000402C19C0142E19C0782D19C0702F19C0F2
:1018A00010B582A038F06AFD10BD30B58FB00A20A7
:1018B00004F060FC00207E4908600190002406E0EE
:1018C0000121A140019808430190601CC4B20A2C78
:1018D000F6DB012002908DF80C0000240CE020467D
:1018E00005F05AF930B1724800680121A14008435F
:1018F0006F490860601CC4B20A2CF0DB02AA01A97F
:10190000012004F023FF054615B901200FB030BDBA
:101910000020FBE710B5FCF792FD00231A460221D8
:101920000120FEF7CCFA634810F0AFFBFFF7BDFFD4
:1019300010BD7CB5054600240FE0204605F02CF9CB
:1019400028B10121A14001980843019004E0012041
:10195000A040019981430191641C0A2CEDDB54499C
:101960000198096848400090009828B3002421E0BD
:101970000121A140009808421BD00120A0400199FC
:1019800001420BD00121204604F0B6FD4848006812
:101990000121A1400843464908600AE00021204691
:1019A00004F0AAFD424800680121A1408843404953
:1019B0000860641C0A2CDBDB3F4800683F4909686B
:1019C000401A07D03C4800683C49086001203C4967
:1019D000087002E000203A4908703948007808B9D8
:1019E000287808B101207CBD0020FCE72DE9F041FA
:1019F00005460C4616460127288810B16B284FD1A2
:101A000003E000BF6B20288000BF3046FFF791FF46
:101A100010B90020BDE8F08100BF294800780128F6
:101A200001D104F072FE3078012838D100203070E6
:101A3000607CC01023490870234861690160217EE1
:101A400001710146D4F81900C1F805001F2204F104
:101A50001D011D48093037F00BFD1B4994F83D006E
:101A600081F828004FF48051204637F01AFD40F2EB
:101A7000EE51154804F0D1FD60B914480068401CCF
:101A8000124908604023104A0E480178012004F0F2
:101A9000EEFD04E00D484068401C0C49486000BF62
:101AA00000BF0027002028800220B3E70A0D0000B5
:101AB0002CB303C0D0EB18C0307803C028B303C0E8
:101AC00030B303C026B303C08E4419C064EC18C001
