:020000040800F2
:10000000B886012081020008A5020008A7020008A6
:10001000A9020008AB020008AD02000800000000C1
:10002000000000000000000000000000AF02000817
:10003000B102000800000000B3020008B502000889
:100040009B0200089B0200089B0200089B0200081C
:100050009B0200089B0200089B0200089B0200080C
:100060009B0200089B0200089B0200089B020008FC
:100070009B0200089B0200089B0200089B020008EC
:100080009B0200089B0200089B0200089B020008DC
:100090009B0200089B0200089B0200089B020008CC
:1000A0009B0200089B0200089B0200089B020008BC
:1000B000B9020008C50200089B0200089B02000864
:1000C0009B0200089B0200089B0200089B0200089C
:1000D0009B020008D10200089B0200089B02000856
:1000E0009B0200089B0200089B0200089B0200087C
:1000F0009B0200089B0200089B0200089B0200086C
:100100009B0200089B020008BF0200089B02000837
:10011000E3020008D70200089B0200089B020008C7
:100120009B0200089B0200089B0200089B0200083B
:100130009B0200089B0200089B0200089B0200082B
:100140009B0200089B0200089B0200089B0200081B
:100150009B0200089B0200089B020008CB020008DB
:100160009B0200089B0200089B0200089B020008FB
:100170009B0200089B0200089B0200089B020008EB
:100180009B0200089B020008DD0200089B02000899
:100190009B0200089B0200089B0200089B020008CB
:1001A0009B0200089B0200089B020008DFF80CD0AD
:1001B0000FF0D0FA0048004715040008B886012067
:1001C0002848016841F001010160264A00210832F7
:1001D00011600268244B1A400260031D234A1A6012
:1001E000026822F4802202601E480C30016020491F
:1001F00058060860704770B51A4D083528681D4BC1
:100200001D4910F00C0004D01C4E042803D008280F
:1002100003D00B601BE00E6019E0124A121D10683B
:10022000C0F38054106800F03F0014B1B6FBF0F04A
:1002300001E0B3FBF0F013681268C3F3881358436E
:10024000C2F30142521C5200B0FBF2F00860286871
:10025000094AC0F30310121D105C0A68C2400A600C
:1002600070BD000000380240FFFFF6FE1030002491
:1002700008ED00E00024F4000000002040787D013B
:100280000648804706480047FEE7FEE7FEE7FEE730
:10029000FEE7FEE7FEE7FEE7FEE7FEE7C101000836
:1002A000AD0100087047FEE7FEE7FEE7FEE7704796
:1002B0007047704705F0AFB80E480CF0AFBC0E4861
:1002C0000CF0ACBC0D480CF0A9BC0D480BF0D8BA32
:1002D0000C480BF0D5BA0C480BF0D2BA0B480BF017
:1002E000CFBA0B480BF0CCBA0A4809F043BF094813
:1002F0000AF030B84813012084130120C0130120F4
:100300008824012000250120C42401207825012013
:100310003C250120B425012013B54FF6FF730122BF
:10032000694664480AF007FF00981CBD002100E000
:10033000491C8142FCDB704770B55F4C4FF4807103
:10034000204608F022FB06466115204608F01DFBFA
:1003500005462115204608F018FB044601215748A0
:1003600008F013FB0146002006B101200DB140F05A
:1003700002000CB140F00400002901D040F0080058
:1003800070BD70B54E4C2068002811D04D4D002234
:100390002021284608F0FEFA2068022808D3002011
:1003A00020602846BDE870400122202108F0F2BA02
:1003B00070BD2DE9F04140F2044738460FF0BAFC19
:1003C00000240546264638460FF0B4FC4FF4806101
:1003D000C5F80004C0F80064641C4D59E4B2142C44
:1003E000F1D3BDE8F08100B5ADF5806D00216A461E
:1003F000C1F5807352F8233042F82130491C80291E
:10040000F6D328B1401EFFF7EEFF0DF5806D00BD5D
:100410000120FAE70EB502F0A9F800F0B9FB00F0F0
:1004200016FC00F072FC2949274808602949284831
:1004300008602049284808602949284808602A4956
:10044000284808604FF4E13000900020ADF8040027
:10045000ADF80600ADF808006946214800F036FD09
:100460006946214800F032FD6946184800F02EFD2B
:100470006946184800F02AFD69460E4800F026FD3E
:1004800002F02FFA194800F0C8FD194800F097FE55
:1004900000F041FD00F001FE164C2078012802D149
:1004A000044800F05BF9FFF747FF0128F5D002F0A0
:1004B0002BF9F2E700250120001402400008024059
:1004C0007000002000000240001401408824012038
:1004D00000500040C424012000100140007800407A
:1004E00078250120004C00403C250120F402012029
:1004F000B42501201400002010B5002303E0D45CD3
:10050000CC545B1C9BB28342F9D310BD70B514462A
:1005100005460A46A0492046FFF7EEFF22469E49BF
:1005200028460AF0D4FE00B1FEE728460BF095FA03
:100530000128FAD170BD10B5002303E0C45CD45487
:100540005B1C9BB28B42F9D310BD70B504460D46BF
:1005500000200BF08BFA91482368834207D12A468A
:100560008F4920460AF0E7FE48B3092070BD8D4848
:10057000834207D12A468C4920460AF0DCFEF0B1BE
:10058000082070BD8948834207D12A468849204601
:100590000AF0D1FE98B10A2070BD86482A468342EF
:1005A00006D1854920460AF0C6FE40B10C2070BD38
:1005B000824920460AF0BFFE08B10B2070BD002022
:1005C00070BDF0B500237E4DDFF8F8C17E4E1FE010
:1005D000724F0468BC4209D17C4F2C68BC4202D1E6
:1005E000A7F5806400E0641C2C601FE06D4FBC42E6
:1005F00014D1774FDCF80040BC4201D16A4C00E0D6
:10060000641CCCF8004011E02478CC545B1C9BB2F5
:100610009342DDD393420DD20120F0BD6D4F34687B
:10062000BC4201D1624C00E0641C3460876AA7427E
:10063000F0D0E9E70020F0BD70B5044666A00FF0E9
:10064000E9F873A00FF0E6F87BA00FF0E3F8874815
:100650000FF0E0F886A00FF0DDF860A00FF0DAF8F8
:1006600093A00FF0D7F80BF0FEF905461E212046A7
:10067000FFF76BFFFFF785FE0BF0F5F9A842F9D005
:1006800003228D498D480FF017F800B900248A49DC
:1006900003221E3189480FF00FF800B90124864962
:1006A0000122323185480FF007F800B9022434B135
:1006B000012C09D1BDE87040814800F049BEBDE879
:1006C00070407E4800F0F6BD70BD7EA00FF0A2B86D
:1006D00070B5054683A00FF09DF840A00FF09AF882
:1006E00086A00FF097F88FA00FF094F83BA00FF0C2
:1006F00091F898A00FF08EF80BF0B5F904461E2182
:100700002846FFF722FFFFF73CFE0BF0ACF9A042B2
:10071000F9D0694903220A3968480EF0CDFF70B15B
:1007200065490222283165480EF0C6FF68B162496A
:100730000222323161480EF0BFFF40B1FF2040B1CC
:1007400001280AD1BDE87040BFE70120F7E7022089
:10075000F5E72846BDE870406EE770BD2DE9F04131
:100760007D4D0746002028600BF07DF904461E21D0
:100770003846FFF7EAFE514E09E00BF074F9A0424B
:1007800005D030780D2802D13846FFF7A1FF286840
:100790000528F2D3BDE8F081480301200014014090
:1007A0004907012000100140480B01200050004083
:1007B000480F01200078004088200120881C01207B
:1007C0005C0000206000002064000020480B012035
:1007D000480F0120481301200A0D0A0D3E3E3E3EFF
:1007E0003E3E3E3E3E3E3E3E3E3E3E3E3E3E3E3E29
:1007F0003E3E3E3E3E3E3E3E3E3E3E3E3E3E3E3E19
:100800003E3E3E3E3E3E3E3E3E3E3E0A0D0A0D0010
:1008100054686520496E7374756374696F6E2073D4
:1008200065747320697320617320666F6C6C6F77D9
:10083000733A0A0D0A0D000020436F6D6D616E64FE
:1008400020202020466F726D6174202020202020FF
:100850002020202020202020202020202020204276
:1008600072696566200A0D0A0D000000A0FD0008EF
:100870002D3E446973706C617920446973706C61BA
:10088000792020202020202020202020202020200F
:1008900020202020202020446973706C617920740E
:1008A000686520616464726573730A0D0A0D000047
:1008B0004D41432D3E0000001F0000207E260120F8
:1008C000740000204920616D20696E746F20746887
:1008D00065206970206F7065726174696F6E0A0DB2
:1008E000000000002D3E434C492052756E6E696E2B
:1008F000672E2E2E0A0D0A0D000000005468652098
:10090000496E7374756374696F6E207365747320B8
:10091000697320617320666F6C6C6F7773203A0A7D
:100920000D0A0D002D3E4D4143206F706572202051
:100930006F7065726174696F6E20666F7220746883
:1009400065204D414320616464726573730A0D0A2A
:100950000D0000002D3E000068000020C00610B50C
:100960000122030E002008E0012A06D08C18207313
:10097000521CD2B2042AF7D310BD4B73F8E730B53E
:10098000002305E0C56AD45CAD68EC545B1C9BB2E7
:100990008B42F7D330BD0021826A136843F00043D5
:1009A0001360826A491CC9B2D26882622029F3D3DB
:1009B000704770B50D460646144611461846FFF7B7
:1009C000CDFF224629463046FFF7D9FF294630465B
:1009D000BDE8704007F054BB10B500214218445CDC
:1009E000937994714354491C89B20629F6D310BDFA
:1009F0002DE9F0478246624886B01F4615460C46F0
:100A0000DDF838808146066804E0D9F80000811BD3
:100A1000414555D2504607F0B5FB0028F5D11422C8
:100A2000584968460EF0F4FD564900203039886375
:100A300003E00499095C2154401C03998142F8D8D1
:100A40000021009806E00368C26843F00043036099
:100A50001046491C029A8A42F5D84B4E4B49002059
:100A6000225C0B5C9A4203D0B068401CB06027E067
:100A7000401C0628F4D30C2004E00D2802D1617B31
:100A8000C9083970401C1028F7D320692860207DE0
:100A90002871D4F81500C5F805001F2204F11901CA
:100AA00005F109000EF0B4FDE07C85F8280040F265
:100AB000EE51284603F00EFC30B17068401C7060A7
:100AC000002006B0BDE8F0873068401C306001208F
:100AD000F7E7ADF5CB6D054607F0B2FC6C4628464E
:100AE00007F050FB0028FAD1142226490DF5C86002
:100AF0000EF08EFD234900203039886301460DE059
:100B0000DDF85006800704D0DDF85026881C105C04
:100B100002E0DDF85006405C6054491CDDF84C06EC
:100B20008842EDD80020DDF8401606E00B68CA6860
:100B300043F000430B601146401CDDF8482682421A
:100B4000F4D86846FFF748FF6A462846DDF84C1699
:100B5000FFF715FF2846DDF84C1607F091FABEE7BF
:100B6000704700B5ADF2746DC82100910DF5CE63EC
:100B70000DF2446201A9FFF73BFF0DF2746D00BD59
:100B80006C000020240301203C0301207A00002097
:100B9000FE48016841F001010160016841F0020175
:100BA0000160016841F004010160016841F0080141
:100BB0000160016841F010010160016841F020010D
:100BC0000160016841F040010160016841F080016D
:100BD0000160016841F480710160EC4914310A68D8
:100BE00042F020020A600A6842F010020A60091FFF
:100BF0000A6842F480120A600A6842F080420A6081
:100C00000A6842F400220A600A6842F001020A609F
:100C10000A6842F008020A600A6842F002020A60AA
:100C2000026842F000720260026842F08062026074
:100C3000026842F000620260086840F40010086038
:100C4000D2480830016841F001010160704710B5D9
:100C5000052004F043FC01220021472004F04BFC56
:100C6000472004F066FC01220321252004F043FC08
:100C7000252004F05EFC02220321352004F03BFC19
:100C8000352004F056FC02220321522004F033FCEC
:100C9000522004F04EFC02220321342004F02BFCED
:100CA000342004F046FC002201211C2004F023FC27
:100CB0001C2004F03EFC012200211D2004F01BFC3E
:100CC0001D2004F036FC00221146322004F013FCF3
:100CD000322004F02EFC012202213D2004F00BFC06
:100CE0003D2004F026FC00220121202004F003FC1A
:100CF000202004F01EFC002202211F2004F0FBFB38
:100D0000BDE810401F2004F014BC2DE9F04F85B061
:100D10004FF0400902240827CDF80090CDE90347A1
:100D20000126CDE901466946994807F003FD4FF0D9
:100D3000800A0025CDE900A4CDE902546946944813
:100D4000049707F0F7FC4FF00708CDE903482002AD
:100D50008DE8510069468F4807F0ECFC4FF4806B3A
:100D6000CDF800B0CDE9034869468A48CDE9014590
:100D700007F0E0FCCDE90347E0028DE85100694649
:100D8000834807F0D7FC4FF00408CDF80080CDE988
:100D9000034769468048CDE9014507F0CBFCCDE922
:100DA0000347CDE900A4DFF8F4A169460296504656
:100DB00007F0C0FCCDF80090CDE9034769465046E6
:100DC000CDE9014507F0B6FCCDF800B0CDE9034709
:100DD000CDE9014669466E4807F0ACFCCDE9034712
:100DE000A0028DE831006946694807F0A3FC602045
:100DF0000327CDE90006CDE902576946654807F0AB
:100E000099FCC020CDE90006CDE902576946644847
:100E100007F090FC1020009069465E4807F08AFCBD
:100E20004FF4B250CDE90006CDE9025769465D485E
:100E300007F080FC3802CDE90006CDE9025769468B
:100E4000534807F077FC4FF4E060CDE90005CDE9A9
:100E500002576946504607F06DFCCDE90065CDE9C3
:100E6000025769464A4807F065FC8F20CDE9000427
:100E7000CDE902540B2769464648049707F05AFC0F
:100E800043F60350CDE90004DFF81C91CDE902548C
:100E900069464846049707F04DFC3E20CDE9000422
:100EA000CDE9025469463A48049707F043FC4FF4F1
:100EB000107000901220CDE90106CDE90368694663
:100EC000484607F037FC05B0BDE8F08F10B588B094
:100ED00004460868009088880190C88802900C2019
:100EE00004900020059003901C226946201D0EF0FE
:100EF0008FFB204609F0F1FF2068C16841F0200116
:100F0000C1602068C16841F40051C160012084F8CB
:100F1000390008B010BD2DE9F04709F01DFD234D43
:100F200007464FF0804041F270792860B7FBF9F036
:100F3000291D401E40F6B7380024A1E811012846BB
:100F40002C610AF036FE1A4EF4602868016921F01F
:100F5000010101612868C16841F00101C160286890
:100F6000016841F0010101603C35124828601248D7
:100F70007F08B7FBF0F0401E686040F22B10C5E917
:100F8000024028462C610AF014FE17E03038024077
:100F90000008024000000240000C02400014024021
:100FA000001C0240001802400004024048130120C7
:100FB0005C000020000C0040E093040034612868CD
:100FC000016921F0010101612868C16841F0010156
:100FD000C1602868016841F0010101603C35FE48AC
:100FE0002860B7FBF9F0291D401EA1E81101284631
:100FF0002C610AF0DEFD74612868016921F00101AD
:1010000001612868C16841F00101C1602868016878
:1010100041F001010160BDE8F0873EB504460120C2
:1010200060608003A060C010E06002202082EB4D71
:101030000020C4E905502062E061E94820602046B4
:1010400006F04AFF2023E74AE749204606F0ABFFB7
:101050002023E64AE649204606F0DDFF03208DF80E
:10106000000044F20E00ADF80200002069462A5C40
:101070000B18401CC0B21A710628F8D3084600F0BD
:1010800068FB3EBDD548DB491838016001F50061B9
:101090008160A1F580614160704708B5D6491A208A
:1010A0006A4608820021D44807F050F96A460121B7
:1010B000D14807F04BF9BDF80000012120F03000C5
:1010C00040F01002ADF80020CB4807F072F96A46F4
:1010D0000121C94807F03AF9BDF80000012120F0CC
:1010E0000F0040F00D02ADF80020C34807F061F991
:1010F0006A460121C04807F029F9BDF80000012126
:1011000040F03002ADF80020BB4807F052F96A46C3
:101110000021B94807F01AF908BD7FB5B64C1A206E
:101120006A4620820421204607F010F9BDF800002D
:10113000042120F44C5040F48072ADF80020204689
:1011400007F037F903208DF8040044F20E00ADF8E3
:101150000600A24A002001A9921D0D18135C401C34
:10116000C0B22B710628F8D3084600F0F2FA1B2013
:1011700020826A461A21A04807F0E8F8BDF800006E
:101180001A2120F0F00040F0A002ADF800209A48AB
:1011900007F00FF96A461C21974807F0D7F8BDF809
:1011A00000001A2100F01F02ADF80020924807F05D
:1011B00000F9924800210160816041607FBD10B557
:1011C00088B004468E48009000204FF48041019082
:1011D000CDE90310079006900A200290FE200590AA
:1011E0008848206020226946201D0EF011FA204612
:1011F00007F0FFFB002802D083A00EF00BFB88E66F
:1012000010B504468D482060774804228C380221AE
:1012100006238260C0E90013C0E9033141618161A6
:10122000002060602021A060C4E9032140216161A9
:101230009901C4E90610510221624900C4E909106C
:10124000694920468C390DF01CF810B17CA00EF0D5
:10125000E1FA65492046BDE81040703900F08DB8CC
:1012600061484FF02041603800F144020160734949
:101270003C3941600F211160032151600A219160C6
:101280000121D160116100215161916108228160C9
:10129000C0E903121022C0E905211202C0E90A21A7
:1012A000D2010163C0E90D1200F14402C16311468D
:1012B0000DF0AFBF70B588B00020674E07226C46B6
:1012C000B15CA1F13003092B01D823540BE0A1F14B
:1012D0004103052B01D8373904E0A1F16103052B47
:1012E00004D857392154401CC0B203E0202901D052
:1012F0005AA006E0521CD2B2182AE1D30C2804D915
:1013000060A00EF087FA08B070BD0021334A08468D
:10131000C3071BD0235C65F31F135354491CC9B288
:10132000401CC0B20C28F3D360480021535C4354E6
:10133000491CC9B20629F9D3284978220C31801DED
:101340000EF066F9594801F06BFADCE7255CE7E737
:1013500070B5054656A00EF05DFA002401E0052C9C
:1013600008D0295D57A00EF055FA641CE4B2062C93
:10137000F5D370BD697954A0F5E72DE9F8430C4623
:101380000025012610270095C4E90067C4E902651D
:101390004FF48058814642460DF0DDF8012004F0FC
:1013A00045F80220C4E90007C4E902654246214627
:1013B00048460DF0D0F80320C4E900070820C4E92E
:1013C00002054246214648460DF0C5F84FF40C7020
:1013D0000421424600907BE000040040740000209D
:1013E00000800240F402002088140120F4820020D2
:1013F0008818012048070120F40201203C03012045
:10140000A0860100005400404F68212120776861C8
:101410007420746865206675636B212054686520AC
:1014200049324320696E697469616C697A617469D3
:101430006F6E206661696C6564210000400100A048
:10144000496E697469616C697A6174696F6E20456F
:1014500072726F72210A0D007E2601205468652089
:101460004D414320696E707574206572726F7220F1
:1014700030312120506C6561736520636865636B52
:10148000210A0D00546865204D414320696E707536
:1014900074206572726F722030322120506C656149
:1014A000736520636865636B210A0D0000260120C7
:1014B0000A0D0A0D4D414320616464726573733AED
:1014C0002020000025782E0025780A0D000000005D
:1014D000C4E90017C4E90260214648460DF03BF814
:1014E000D9F80000416940F6182211434161BDE876
:1014F000F883000010B5FAA00EF08CF9FC480188C2
:10150000BDE81040FBA00EF085B970B5FBA00EF051
:1015100081F9F74D00240835F6A035F814100EF0C7
:1015200079F9641CE4B2082CF6D370BD38B5F8A084
:101530000EF070F9FE4D002404F1100028826A4676
:101540000521FB4806F002FFBDF80010F9A00EF0DF
:1015500061F9641CE4B20B2CEED338BD2DE9F843DD
:101560000E46F349074600244FF40045ADF80050FD
:101570001C209046088204E06A461821EC4806F0D8
:10158000E5FEBDF800000004F6D44FF47870344353
:1015900000EA4710204340F408421821E44806F0CE
:1015A00008FFADF8005004E06A461821E04806F054
:1015B000CDFEBDF800000004F6D442461921DC48F7
:1015C00006F0C4FE0020BDE8F8832DE9F8430E467E
:1015D000D74907464FF400450024ADF800501C20C1
:1015E0009046088204E06A461821D14806F0AEFE13
:1015F000BDF800000004F6D442461921CC4806F09C
:10160000D8FE4FF47870344300EA4710204340F48A
:1016100004421821C64806F0CCFEADF8005004E0A4
:101620006A461821C24806F091FEBDF80000000489
:10163000F6D40020C7E738B50446BD481B216A46EA
:1016400001820A2106F082FEBDF8000020F47F61CD
:1016500041EA0410ADF8000082B20A21B44806F055
:10166000A8FE38BDF8B5B2491C20A14D002408825F
:101670004FF6FF76AD1C06EA0422ADF800200D21DE
:10168000AB4806F096FE3220FEF750FE6A460D216A
:10169000A74806F05BFEBDF800002855641CA4B204
:1016A000062CE8D3A5A00EF0B5F80024A1A0295D72
:1016B0000EF0B0F8641CA4B2062CF7D3F8BDF8B550
:1016C0000C469B4906461B20088215460022ADF8B1
:1016D00000200121964806F06CFE6A460C219448D1
:1016E00006F034FE022C02D0032C07D013E0BDF824
:1016F000000020F00800ADF800000CE0BDF800008C
:101700006FF4782120F0100040F00F0001EA05117D
:101710000143ADF80010BDF800200C21844806F00C
:1017200048FE6A460B21824806F010FE76B14FF45F
:101730002040ADF8000082B20B217D4806F039FE52
:101740006A460B217A4806F001FEF8BD4FF41040BE
:10175000EFE738B5764905461B2008820022ADF830
:1017600000200121724806F024FE6A88ADF80020AE
:101770000C216F4806F01DFE00216818491C0079F5
:10178000CCB200022919ADF800000A790243ADF885
:101790000020022C01D20D2104E0042C01D20E21E4
:1017A00000E00F21624806F004FE641CE1B2062945
:1017B000E3D36A460B215E4806F0C8FD28784FF453
:1017C00060710002C0F3802041EA802040F4304282
:1017D000ADF800200B21564806F0EBFD6A460D21BE
:1017E000534806F0B3FD38BD38B504464FF4004009
:1017F0004F49ADF800001B2008826A4601214C4881
:1018000006F0A4FDBDF8000001050ED06FF30B003B
:10181000ADF8000082B20121454806F0CAFD04E09F
:101820006A460B21424806F091FDBDF80000000415
:10183000F6D4207962790D2142EA0022ADF8002029
:101840003B4806F0B6FDA079E2790E2142EA00227B
:10185000ADF80020364806F0ACFD207A627A0F2100
:1018600042EA0022ADF80020314806F0A2FD6A46A7
:101870000B212F4806F06AFDBDF800000B2120F473
:10188000704040F44042ADF80020294806F091FD38
:1018900003E00B21264806F059FDBDF800006A461A
:1018A0000004F6D40C21224806F050FDBDF80000DB
:1018B00060806A460D211E4806F048FDBDF8000014
:1018C0006A46010A217160710E21194806F03EFD39
:1018D000BDF800006A46010AA171E0710F213FE0E6
:1018E0007472756E6B5F766563746F723A00000098
:1018F000F80000202578200A0D00000054686520BB
:101900006D61736B207461626C65203A0A0D000092
:1019100054686520706F72745F636F6E74726F6C61
:101920003120726567697374657273203A0A0D001D
:10193000F402012025780A0D00000000546865209B
:101940004D4143206164647265737320696E207435
:1019500068652038386536303937663A0A0D000038
:10196000FE4806F0F3FCBDF80000010A2172607227
:1019700038BD40B1012808D0022808D0032808D17A
:10198000032100209BE608462EE70846E1E60221F7
:10199000F7E77047F8B5F14E05460024E540E80743
:1019A0000DD004F1100030826A460B21EB4806F09E
:1019B000CDFCBDF80000C0F30A00ADF80000641CC7
:1019C000E4B20B2CEAD3F8BD7CB5E44904464FF4ED
:1019D0000045ADF804501B2008826A460221DF480A
:1019E00006F0B4FCBDF8000040F6FF763043ADF8D9
:1019F000000004E001AA0521D84806F0A7FCBDF8C4
:101A000004000004F6D4A088C0F30B00ADF8000079
:101A1000B04202D0401EADF8000082B20621CF488D
:101A200006F0C7FC6A460521CC4806F08FFCBDF8DD
:101A30000000052120F4E04040F44042ADF80020D1
:101A4000C64806F0B6FCADF8045004E001AA052132
:101A5000C24806F07BFCBDF804000004F6D46A46D8
:101A60000521BE4806F072FCBDA00DF0D3FEBDF806
:101A70000010AFF240100DF0CDFEA21D0721B748B7
:101A800006F064FC04F108020821B44806F05EFC8C
:101A900004F10A020921B14806F058FC221D062172
:101AA000AE4806F053FCA21C0221AC4806F04EFCE6
:101AB0007CBD7CB5A94904464FF40045ADF8005003
:101AC0001B20088200220221A44806F072FC00229A
:101AD0000321A24806F06DFC04E06A4605219F48F8
:101AE00006F034FCBDF800000004F6D4A288ADF87E
:101AF00004200621994806F05CFCE28807219748FB
:101B000006F057FC22890821944806F052FC6289AD
:101B10000921924806F04DFC01AA05218F4806F0E4
:101B200015FCBDF80400052120F4E04040F43042EB
:101B3000ADF80420894806F03CFCADF8005004E004
:101B40006A460521854806F001FCBDF80000000446
:101B5000F6D47CBD814908B51B200882BDF8000081
:101B6000052120F4E04040F41042ADF800207B480D
:101B700006F01FFC04E06A460521784806F0E6FB03
:101B8000BDF800000004F6D408BDF0B44FF6FF74B1
:101B900004272546D60701D024F003045208012F5C
:101BA00003D005EA041C4CF00F047F1E17F0FF075A
:101BB000F0D1C48004272E46D40701D025F00305B8
:101BC0005208012F03D006EA051444F00F057F1ECA
:101BD00017F0FF07F0D1058103243746D50701D060
:101BE00026F00306012C04D007EA0615520845F03A
:101BF0000F06641E14F0FF04F0D14681C1F30B01FF
:101C00000BB141F48051818000214180F0BC50E74C
:101C1000F8B505461020514E0124274630826A4609
:101C200006214E4806F092FB601E07FA00F080B2D3
:101C3000054208D025EA0001ADF800108AB206215D
:101C4000464806F0B6FB04F11000641CA4B23082D2
:101C50000B2CE4D3F8BD7CB5404904464FF4004555
:101C6000ADF804501B20088204E001AA1D213B4866
:101C700006F06CFBBDF804100904F6D44FF440667E
:101C800032461D21354806F094FB6A461D21334833
:101C900006F05CFBBDF80000FF2C20F4E0406FF381
:101CA0000800ADF8000014D0202140F4005001EBF2
:101CB0004411014304F01F00084380B240F4004285
:101CC000ADF800201D21254806F073FBADF8045047
:101CD00007E040F48050F0E701AA1D211F4806F0FC
:101CE00035FBBDF804000004F6D432461D211B4824
:101CF00006F05FFB7CBD2DE9FC410F461749044609
:101D00004FF40045ADF804501B201646088204E04D
:101D100001AA1D21114806F019FBBDF804000004BA
:101D2000F6D44FF4406842461D210C4806F041FBB2
:101D30006A461D21094806F009FBBDF80000202174
:101D400020F4E0406FF3080040F4804001EB4711BD
:101D5000014306F01F00084380B20DE0F4020120A9
:101D6000546865206F7065726174696F6E2072656A
:101D70006769737465723A0040F40042ADF8002060
:101D80001D21FB4806F015FBADF8045004E001AA44
:101D90001D21F74806F0DAFABDF804000004F6D475
:101DA00042461D21F24806F004FB6A461E21F04817
:101DB00006F0CCFABDF8000020606A461F21EC480E
:101DC00006F0C4FA2088BDF8001041EA0040206007
:101DD000BDE8FC812DE9FC410D46E54904464FF480
:101DE0000046ADF800601B20088204E06A461D2111
:101DF000DF4806F0ABFABDF800000004F6D44FF45B
:101E000040673A461D21DA4806F0D3FA01AA1D219F
:101E1000D74806F09BFABDF80400202120F4E040EA
:101E20006FF3080040F4A04001EB4511014305F0B9
:101E30001F00084380B240F40042ADF804201D2189
:101E4000CB4806F0B6FAADF8006004E06A461D2102
:101E5000C74806F07BFABDF800000004F6D43A4605
:101E60001D21C34806F0A5FA002229462046FFF7A7
:101E700042FF01222946201DFFF73DFF022229468D
:101E800004F10800FFF737FF0422294604F10C0093
:101E9000FFF731FF0622294604F11000FFF72BFF60
:101EA0000722294604F11400FFF725FF16222946D0
:101EB00004F11800FFF71FFF1822294604F11C0047
:101EC000FFF719FF1922294604F12000FFF713FF3D
:101ED0001A22294604F12400FFF70DFF1B22294690
:101EE00004F12800FFF707FF1C22294604F12C000B
:101EF000FFF701FF1D22294604F13000FFF7FBFE2A
:101F00000E22294604F14C00FFF7F5FE0F22294668
:101F100004F15000FFF7EFFE1022294604F15400AF
:101F2000FFF7E9FE1322294604F15800FFF7E3FE0C
:101F30001222294604F15C00FFF7DDFE1522294636
:101F400004F16000FFF7D7FE0522294604F1640082
:101F5000FFF7D1FE1E22294604F16800FFF7CBFEF1
:101F60001422294604F16C00FFF7C5FE172229460A
:101F700004F17000FFF7BFFE1122294604F174003E
:101F8000FFF7B9FE1F22294604F17800FFF7B3FEE0
:101F90000322294604F17C00FFF7ADFE0822294602
:101FA00004F13400FFF7A7FE0922294604F13800A6
:101FB000FFF7A1FE0A22294604F13C00FFF79BFE31
:101FC0000B22294604F14000FFF795FE0C2229461A
:101FD00004F14400FFF78FFE0D22294604F148006A
:101FE000FFF789FEF4E67CB504464FF40040ADF8F7
:101FF000040004E001AA1D215D4806F0A7F9BDF820
:1020000004100904F6D44FF440652A461D215848AF
:1020100006F0CFF96A461D21554806F097F9BDF83C
:10202000000005EA842220F440610A43ADF8002054
:102030001D214F4806F0BDF9FF20FFF70CFE7CBDC7
:10204000F8B50E464B490546088835EA000201D02E
:102050000320F8BDA843464F0880002404F1100077
:102060003882E80722D06A460521414806F06EF919
:10207000BDF80000052120F4706040F4804040EA83
:10208000062000F47F42ADF80020394806F091F9AF
:102090006A460521364806F059F937A00DF0BAFB1B
:1020A000BDF80010AFF2B4700DF0B4FB641C6D0805
:1020B000A4B20B2CD2D30020F8BD2DE9F34F00269B
:1020C00085B0354680463146012401ABC20705D0B4
:1020D00004FA01F223F815206D1CADB24008082D5A
:1020E00003D9042007B0BDE8F08F491C89B20B2941
:1020F000ECD3DFF87CB01F4F4FF01C0A0024ABF884
:1021000010A099460837AE4200D3002637F81400D5
:1021100039F8161020EA0800084327F81400761C46
:10212000B6B26A460721124806F010F9BDF8000061
:102130004FF4E0416FF30E0001EA04310143ADF8C2
:1021400000102103AFF654000DF064FBBDF8000051
:1021500037F8141040F40060C1F30A01014341F460
:102160000042ADF800200721014806F022F918E0EE
:10217000F4020120F8000020416674657220777235
:1021800069746520696E207468652072656769737B
:102190007465723A000000006A460721F04806F0B4
:1021A000D5F8BDF800000004F6D4641CA4B2082CD5
:1021B000A9D3ABF810A006984FF4F04101EAC02073
:1021C00040F40040C8F30A01014341F40042ADF875
:1021D00000200821E24806F0ECF804E06A460821F5
:1021E000DF4806F0B3F8BDF800000004F6D4002084
:1021F00078E72DE9F84FDFF86CA307468046BAF878
:1022000000003D468946284202D00520BDE8F88FEF
:10221000D34E002404F110003082F80710D06A4633
:102220000521CF4806F092F8BDF80000410401D422
:102230000620EBE7C0F30321494501D00720E5E77D
:10224000641C7F08E4B20B2CE4D3BAF800102943D5
:10225000AAF80010002404F110003082E8070ED024
:102260006A460521BE4806F071F8BDF80000052158
:1022700020F49E42ADF80020B94806F09AF8641C9C
:102280006D08E4B20B2CE6D3B64D1C20308200243E
:102290000835860235F814006A4640EA080025F839
:1022A00014000721AE4806F051F8BDF8000006EA18
:1022B00004316FF30E00014341F4006035F814104F
:1022C000C1F30A01014341F40042ADF800200721A7
:1022D000A34806F06EF804E06A460721A04806F01D
:1022E00035F8BDF800000004F6D4641CE4B2082CF4
:1022F000D0D36A4608219A4806F028F8BDF80000B5
:10230000002202EAC9210143C1F30A02ADF800200C
:102310000821934806F04DF804E06A4608219048E9
:1023200006F014F8BDF800000004F6D400206DE7B4
:10233000F8B58B4E8B4D002404F1100030822878C4
:10234000C0070ED06A460521854805F0FFFFBDF89D
:102350000000052120F49E42ADF80020804806F0E0
:1023600028F82888641C4008E4B228800B2CE3D3AA
:102370001C207C4D30820024083540F2FF76870215
:1023800035F814006A46304325F8140007217448D4
:1023900005F0DCFFBDF8000007EA04316FF30E0022
:1023A000014341F40042ADF8002007216C4806F0DB
:1023B00000F804E06A460721694805F0C7FFBDF848
:1023C00000000004F6D4641CE4B2082CD8D3F8BD95
:1023D00038B50C46624910306A46088204216048CC
:1023E00005F0B4FFBDF8000020F00300ADF80000D8
:1023F0006CB1012C04D0022C05D0032C07D10CE0C9
:1024000040F0010001E040F00200ADF8000082B2AF
:102410000421534805F0CDFF38BD40F00300F4E738
:1024200008B54F4910306A46088200214C4805F033
:102430008DFFBDF80000000501D5012008BD00207A
:1024400008BD474908B5103080B208821838022804
:1024500002D84FF47A7008BD6A460021404805F062
:1024600075FFBDF8000000F44070000AADF80000F0
:1024700003D0012803D0002008BD0A2008BD642035
:1024800008BD374A08B500F110011182082808DAA2
:102490006A460021324805F059FFBDF800004005AA
:1024A00001D5012008BD002008BD082801DA2E480A
:1024B000704744F62060704738B50C46054608283A
:1024C00001DD0D2038BDA8B26A460021FFF746F8AD
:1024D0004CB1012C0CD0022C0FD0032C18D0042CA2
:1024E00010D0022038BDBDF8000040F404500DE0CB
:1024F000BDF8000040F4005008E0BDF8000040F4D2
:10250000807003E0BDF8000040F48050ADF800009A
:10251000A8B2BDF800200021FFF757F8002038BD11
:1025200038B50C460E4910306A46088201210C4825
:1025300005F00CFFBDF8000020F0C000ADF8000071
:1025400014B140F0C00001E040F04000ADF80000E0
:1025500082B20121024805F02CFF002038BD0000A6
:10256000F4020120F8000020400D03001C4810B5C3
:10257000016892B041F0805101601A48016841F44D
:102580004041016001200090019002248005CDE9C6
:102590000640192008904FF4B470CDE909040720D3
:1025A0000B90684608F01BF80F20CDE90C040020C2
:1025B0000E904FF4A0500F90E002109005210CA84F
:1025C00008F0F6F9042003F052F808F003FB4FF48A
:1025D0007A71B0FBF1F002F0D1FF12B010BD000033
:1025E000403802400070004018B50021C2B26B466E
:1025F000CC0022FA04F05854491CC9B20429F7D37C
:10260000002001460202585C491C1043C9B204294B
:10261000F8D318BD18B5024600216B46CC0022FA4B
:1026200004F05854491CC9B20229F7D300200146CE
:102630004FF6FF7404EA0022585C491C1043C9B2EB
:102640000229F7D318BD08B500216B46CA0020FA4D
:1026500002F25A54491CC9B20429F7D3002001469A
:102660000202585C491C1043C9B20429F8D308BDC2
:1026700018B5024600216B46CC0022FA04F05854EB
:10268000491CC9B20229F7D3002001464FF6FF7456
:1026900004EA0022585C491C1043C9B20229F7D34E
:1026A00018BD000070B58EB00A2001F012FC474E34
:1026B0000020012230600D9002FA00F50D99401CB7
:1026C0002943C0B20D910A28F6D300928DF8042058
:1026D00000241546204602F095F820B1306805FA2E
:1026E00004F108433060641CE4B20A2CF2D36A4659
:1026F0000DA9012001F079FE20B135A00DF08AF876
:102700000EB070BD3EA0F9E7ADF5CF6DFEF705FD4B
:10271000002202210120FEF7D2FF3F4805F090FE83
:10272000FFF7C0FF3D494FF0000A8B46DFF89C9051
:102730000127C1F800A0FDF724FEDBF800100129F5
:1027400003D1CBF800A001F033FE0024204602F0B4
:1027500059F810B107FA04F00643641C0A2CF5DBA3
:10276000D9F8000096EA00081BD0002407FA04F507
:1027700018EA050F12D02E4207D00121204601F0A1
:1027800026FDD9F80000284306E00021204601F08C
:102790001EFDD9F80000A843C9F80000641C0A2CEB
:1027A000E4DB0DF5CE630DF2446201A91A480097EF
:1027B000FEF71EF90028BED040230DF244629DF8BA
:1027C0007016012001F0ADFDB5E7000010010020FA
:1027D0004E6F212049276D2061206C6974746572E9
:1027E00020757073657420666F722074686520733D
:1027F0006574206661696C7572652121210A0D007E
:102800000A0D0A0D2D3E525354502052756E6E69BA
:102810006E672E2E2E0A0D00F402012068000020A3
:102820002DE9F04705460CF038FA564800270221FA
:10283000076001610B2181600121C16052490CF0E8
:10284000FCFA10B151A00CF0E5FF4F4EB946DFF88D
:102850005481361F534F002440467E37C6F800800F
:10286000002301462A5D18460CF029F9F0B14EA06C
:102870000CF0D0FF0CF020FAC6F80890C6F80080E3
:10288000002031680A782B5C934202D0B268521C57
:10289000B260491C401C3160B942F2D3B0680028D4
:1028A0000BD0BDE8F04747A00CF0B4BF3068641C03
:1028B000401C3060B842D3D3DCE7BDE8F087324B30
:1028C00010B51B1F37491960364C00217E341A6839
:1028D000127842541A68491C521C1A60A242F6D35C
:1028E00010BD70B527481430FFF7E9FF25490020D7
:1028F0003B4D14310A5C2A54401C0628FAD3782236
:10290000891D38480CF084FE37A00CF083FF38A0F6
:102910000CF080FF33493BA00CF07CFF3BA00CF097
:1029200079FF304937A03C310CF074FF3CA00CF02B
:1029300071FF2C4933A05A310CF06CFF3DA00CF014
:1029400069FF28492FA01E310CF064FF26A00CF06F
:1029500061FF3DA00CF05EFF23A00CF05BFF46A0E2
:102960000CF058FF002401E0052C07D0295D47A09A
:102970000CF050FF641C062CF6D370BD697944A09E
:10298000F6E70000EC25012018010020466C617379
:1029900068204572617365204661696C6564212118
:1029A000210A0D0000000E08466C61736820507209
:1029B0006F6772616D206661696C65642121210A0F
:1029C0000D00000050533A20466C61736820436844
:1029D00065636B206572726F722121210A0D000000
:1029E00074000020800000200A0D0A0D0000000085
:1029F0004861726477617265202020202020203A8F
:102A00002000000025730A0D000000000A0D536F1E
:102A1000667477617265202020202020203A2000F3
:102A20000A0D536F66742056657273696F6E2020AD
:102A3000203A20000A0D417574686F722020202012
:102A400020202020203A20003E3E3E3E3E3E3E3E9C
:102A50003E3E3E3E3E3E3E3E3E3E3E3E3E3E3E3E96
:102A60003E3E3E3E3E3E3E3E3E3E3E3E3E3E3E3E86
:102A70003E3E3E3E3E3E3E004D4143206164647218
:102A8000657373202020203A0000000025782E0076
:102A900025780A0D0A0D0000A0F51C510F3901D14F
:102AA00028A07047294951F820007047C169C068C3
:102AB00002280CD00CDC4FF0000298B1012806D19E
:102AC000C1F8E400D1F87401C1F8DC200865704752
:102AD0000328FCD1D1F87C010028F8D1DC3148680A
:102AE000086070476831886FC1F81421486741F861
:102AF000182CCA677047C268C169022A13D003DC68
:102B000052B1012A1CD10CE0032A15D0A2F51C52A7
:102B10000F3A15D100210AE0D1F8781181B10121D5
:102B200005E0022103E0D1F87C2112B1032101F07C
:102B300000B90A6D002AF9D0D1F878110029E9D03E
:102B400000207047426567696E0000002001002088
:102B5000A0F51C510F3901D141A07047424951F8ED
:102B60002000704710B5C169C0680022012303240A
:102B7000032817D005DC50B101280CD0022809D158
:102B800016E0042814D0A0F51C500F3802D141F8EB
:102B9000A83FCA6010BD41F8384F0A67C1F80C3130
:102BA000CA6710BDC1F844218C63C1F8A82010BDCC
:102BB000C1F82021C1F81C2110BD30B4C169D1F881
:102BC000E42012B9D1F8A83023B1C468A4F51C538D
:102BD0000F3B01D1002129E0052C3DD2DFE804F0B4
:102BE000030C0E252900FAB1C96A097C022901D318
:102BF00001211BE0032119E0022117E0D1F8B420E4
:102C0000002AF5D18A6B002AD1F8202106D0002AAB
:102C1000F2D1D1F81C21002AEED101E0002AE9D13D
:102C2000C96A097C0229E5D316E0042130BC01F011
:102C300080B8D1F8B420002ADAD18A6B42B1D1F839
:102C40002021002AF1D1D1F81C110029EDD103E097
:102C5000D1F81C110029CBD130BC002070470000F6
:102C6000426567696E00000030010020A0F51C512C
:102C70000F3901D11DA070471E4951F8200070473F
:102C800010B5C469C06838B1012807D0022813D034
:102C9000A0F51C500F380FD101200BE094F88C01E7
:102CA00058B101280BD0D4F8A00101F0DEFDC4F822
:102CB00088010020C4F8840110BD0120F7E700203E
:102CC000F5E7C269C16839B1012905D0022905D0EB
:102CD000A1F51C510F3907D1022103E0D2F884116C
:102CE00011B1012101F025B80020704742656769E4
:102CF0006E00000044010020A0F51C510F3901D1E5
:102D000034A07047354951F82000704770B5C46948
:102D1000C168054641B1012905D104F5B2742068A6
:102D20006060881EE06070BDD4F8A00101F09BFDDA
:102D3000C4F86C01C4F87001E869D0F870010A2881
:102D400001D2274823E001D8264820E0642801D892
:102D500025481CE0B0F57A7F02D844F6206016E0E2
:102D600042F21071884202D84FF4FA600FE01F4916
:102D7000884201D8C8200AE01D49884201D81420A1
:102D800005E01C49884201D8022000E00120C4F877
:102D9000680170BDC268C1694AB1012A07D0022A20
:102DA00007D0A2F51C520F3A11D1002109E00221EF
:102DB00007E0D1F8642132B1D1F86811914206D010
:102DC000012100F0B6BFD1E95B218A42EDD100209C
:102DD00070470000426567696E00000050010020E6
:102DE000002D310180841E00400D0300A0860100EB
:102DF00040420F0080969800F0B505468BB00E4615
:102E0000406807E0D0F8A011B14202D100200BB019
:102E1000F0BD00680028F5D14FF4D47101200CF00A
:102E20005AFC040002D18DA00CF0F4FC686820600C
:102E30006C600027C4F8A061C4E90A75304601F04F
:102E400008FD0146D4F8A4010CF02DFCC4F89C71D7
:102E500001AA3146686C01F016FD08989DF82A1009
:102E6000C4F880119DF82910C4F8E0100999C4F83D
:102E700064119DF8281084F88C110321C4F8741192
:102E800006EB0020A4F8E80004F130006065001DA6
:102E9000A065001DE065001D2066001D6066001D28
:102EA000A066001DE066001D2067001D60676FA022
:102EB000009023466F4A7049704800F0EDFEA16A09
:102EC0000160A06220616EA0009023466E4A6F49A7
:102ED0006F4800F0E1FEA16A0160A06260616DA030
:102EE000009023466C4A6D496D4800F0D5FEA16AFA
:102EF0000160A062E0616BA0009023466B4A6C49C0
:102F00006C4800F0C9FEA16A0160A06220626AA05C
:102F1000009023466A4A6B496B4800F0BDFEA16AE7
:102F20000160A062606269A000902346694A6A4914
:102F30006A4800F0B1FEA16A0160A062606068A00A
:102F400000902346694A6A496A4800F0A5FEA16AD2
:102F50000160A062A06068A000902346684A6949A9
:102F6000694800F099FEA16A0160A062E06067A074
:102F700000902346684A6949694800F08DFEA16ABD
:102F80000160A062A061204641E77CB50D46044681
:102F9000BAB1D4F8A00101F035FCC4F87801B4F856
:102FA000E800009005F1120301901946002204F197
:102FB0007C0002F07BF905F13C0104F1940001F082
:102FC00010FF0020E064A06460642064E063A063FC
:102FD0006063206384F8620184F840010125C4F82D
:102FE0004451D4F8A00101F03EFCC4F88451C4F867
:102FF0006C017CBD70B50446C56AD0F8A4010CF024
:1030000071FEA06A03E0066800F067FE3046002803
:10301000F9D10021686819E0D0F8A021D4F8A031D6
:103020009A4211D1206809B1086000E0686034B9A3
:103030006FF041033BA23FA140A00CF0EBFB204608
:10304000BDE870400CF04EBE014600680028E3D198
:1030500070BD10B500F0A1F8002010BD63616C6C6C
:103060006F63206661696C0A00000000746F706F06
:1030700063680000F54D0008DF4E00083F4E000871
:103080006D69677261746500512B0008BB2B0008E5
:10309000652B0008703270006D2C0008C32C0008EE
:1030A000812C00086564676500000000992A00080B
:1030B000F72A0008AD2A000870636F7374000000DF
:1030C000F92C0008952D00080D2D0008696E666F1B
:1030D0000000000055310008BB3300083B320008F7
:1030E000726F6C6574726E7300000000C138000866
:1030F000FD390008D538000873747472616E73006E
:103100003D4C0008B34C0008514C00087472616ECD
:10311000736D697400000000C94F00083D5100083C
:103120005350000873747020696E7374616E636528
:1031300000000000667265650000000046415441D1
:103140004C3A20257320636F64652025733A25640B
:103150000A000000A0F51C510F3901D1F8A07047FA
:10316000F94951F820007047C069B0F806211109EB
:10317000012900DA0121B0F804310B449A420ADB3C
:10318000B0F80A11D21A01EB41018A4200DC114663
:103190000164012070470021FAE770B504460A4631
:1031A000087A0121A8B102281DD0802810D1D4F8B6
:1031B0009801401CC4F89801D4F88001002807D178
:1031C000C4F81411D07984F86001107A84F8610190
:1031D00070BDD4F89001401CC4F89001D4F880016F
:1031E0000028F5D10CE0D4F89401401CC4F89401F7
:1031F000D4F880010028EBD1E06A007C0228E7D3F4
:10320000C4F81411D07984F86001107A84F861014F
:10321000507A84F8630102F1090004F1B80105460F
:1032200002F073F8B4F8E800A4F8CE0004F1D0017D
:103230002846BDE8704001F094BD2DE9F0410746F5
:10324000C469C06800260321012505285AD005DC81
:10325000042829D2DFE800F0192A383E06287FD05A
:10326000072878D0082877D0A0F51C500F381BD13C
:1032700004F5A274FF2004F82C1C6077A677E6778B
:1032800066652665E664A4F5A274E0342664E66308
:1032900066632663E667E66244F8686C44F8A06CEF
:1032A00004F83C1CE6656565BDE8F08104F17C012D
:1032B00004F1EC0001F0F7FF04F1940104F58270D1
:1032C000BDE8F04101F08DBDC03404F81C5CE66738
:1032D0006567E9E704F17C0104F1EC0001F0E3FF2C
:1032E00004F1940104F5827001F07BFD9434C4F87C
:1032F000C860C4F8B86044F81C6CE667A66726741A
:103300006564D1E7384600F0BAF884F81801F86926
:1033100090F86111802901D1C0F8205190F8601116
:10332000022901D2C0F8205190F86111022901D17F
:10333000C0F81C51F86990F8611180290DD0C0F8CF
:10334000245190F86311090601D5C0F82851C4F83A
:103350001461A9E704E022E02BE0C0F82C51F0E76B
:1033600004F1B80104F1EC0001F09DFF04F1D0017B
:1033700004F5827001F035FD3846FFF7F5FED034D4
:1033800072A144F8586CE6673846266400F0EAF803
:10339000E063022004F82C0CE666656684E76EA103
:1033A000384600F0DFF8C4F80C013846BDE8F041BB
:1033B000DAE6C4F81061A56776E730B4C169D1F8E0
:1033C000E4201AB991F8A430032B04D1C468A4F501
:1033D0001C530F3B01D100214AE0092C37D2DFE812
:1033E00004F00514161E203F1E1E1E00D1F85C318D
:1033F000002BF0D122B1D1F83C210AB1012137E0F4
:10340000D1F814110029E6D121E0022130E0D1F8F1
:103410003C21E2B1D1F85C11C9B1032128E00421BB
:1034200026E0D1F83C211AB1D1F85C21002AF4D170
:1034300091F8A420022A04D10A6C12B9D1F85C21B7
:1034400042B1D1F8142112B1D1F85C1131B130BCC4
:1034500000207047D1F814110029D6D0052107E0CB
:1034600091F8181139B1012907D00229D7D10821C3
:1034700030BC00F05EBC0621FAE70721F8E710B582
:10348000C46994F8610180286AD0002084F8620140
:1034900094F86101022807D194F86311C1F3810106
:1034A00084F86211032900D000BB04F1EC0104F19F
:1034B000B80001F00AFF002813DB04F1F80104F161
:1034C000C40001F0DDFE70B9B4F8CC00B4F800110E
:1034D000884208D104F5827104F1D00001F012FC99
:1034E00008B1002010BD94F8610118B194F8620190
:1034F00003280DD104F1EC0104F1B80001F0E5FE60
:1035000030B904F5827104F1D00001F0FBFB20B169
:1035100094F86101022802D022E0012010BDD4F805
:103520008801E8B104F1F80104F1C40001F0A8FE3B
:10353000B0B994F86301400612D5022010BD000016
:10354000426567696E0000005C01002053555045DC
:1035500052494F520000000052455045415400006E
:103560000320EBE7C06990F86211032908D190F8B5
:103570006311890704D5D0F8880108B1012070478C
:1035800000207047A0F51C510F3901D1C2A070472F
:10359000C34951F82000704782F8403192F8381141
:1035A0001846814208D0062806D2DFE800F005055B
:1035B0000505050382F8380170472DE9FC47C56908
:1035C0000026044605F1120305F1240000969846F2
:1035D000194632468146019601F068FE05F13C002D
:1035E00005F11A01074601F0FCFB6E84204600F04D
:1035F0001BF96C6813E0D4F8800178B9B4F8E800DE
:10360000009001904346494604F17C00EA6A01F0CB
:103610004DFE394604F1940001F0E3FB2468002CD0
:10362000E9D1688F688401276C6861E0D4F8800173
:1036300050B10523224629469AA0FFF7ADFFC4F8F2
:10364000AC70C4F89C7052E094F8A40088B10128D2
:103650000AD0022824D0032849D100232246294633
:1036600091A0FFF799FF42E00423224629468FA04C
:103670002CE00423224629468DA0FFF78DFF04F19C
:103680007C0104F1EC0001F020FE30B904F194015A
:1036900004F5827001F036FB48B3C4F85C7126E093
:1036A000688CB4F8E810884204D1032322462946E6
:1036B00081A018E004F1EC0104F17C0001F005FEAA
:1036C000002806DA0423224629467BA0FFF764FF80
:1036D000E3E7414604F1F80001F0D2FD60B10123B7
:1036E0002246294675A0FFF757FFC4F85C6124689D
:1036F000002C9BD1BDE8FC870223F1E710B5C4691B
:10370000C168002229B101290BD0A1F51C510F3944
:1037100006D1606802E080F8402100680028FAD1F4
:1037200010BD616802E0C1F8342109680029FAD1AE
:10373000FFF743FF6068014604E0D0F83421002A17
:10374000EED100680028F8D1012002E0C1F83C0168
:1037500009680029FAD110BD10B50446C068A0F56B
:103760001C510F3902D1204600F0E3FAE16861B143
:10377000012904D0A1F51C510F390FD106E0E069F1
:10378000416809E0D1F8340128B101212046BDE8A3
:10379000104000F0CEBA09680029F3D1002010BD16
:1037A0002DE9F04788B0002600F112030546009687
:1037B0009A463246194602A8019601F077FD698CB7
:1037C00005F1240829B1414602A801F07EFD002838
:1037D00003DA02A9404601F066FD01276C681EE08D
:1037E000B4F8E8000090019004F17C005346414693
:1037F0008146EA6A01F05AFD94F8A400022804D137
:10380000688CB4F8E810884204D1494604F1EC0011
:1038100001F049FDC4F83471C4F83C612468002CFF
:10382000DED108B0BDE8F08770B5C56986B06C68B8
:103830002EE0D4F8800150BB94F8A400032826D0D1
:10384000012824D018B304F1EC01684601F02BFDE7
:103850000298D4F86811084405F1240102900E463C
:10386000684601F032FD002811DA6946304601F061
:103870001AFD04F5827105F13C0001F0B2FAE88FFF
:103880000830000900D10120A98F0844A8872468C6
:10389000002CCED106B070BD426567696E00000095
:1038A000800100204E6F6E0044697300416765001F
:1038B0004D696E650000000052656300726563002B
:1038C000A0F51C510F3901D1F0A07047F14951F812
:1038D0002000704730B5C169C0680025CA6A01245C
:1038E000092864D007DC13D2DFE800F01D2F373E33
:1038F000434D525A10000E286BD00ADC0A285CD0C7
:103900000B285ED00C2860D00D2801D1C1F83051B1
:1039100030BD0F2861D0102866D011286AD0A0F5DC
:103920001C500F38F4D101F592710D770D750C61B3
:10393000C1E90945CC6032F8400F41F8E00C10882D
:1039400041F8F40C41F8E85C30BD9C3191F8A400DA
:1039500081F89C000D600D6130BDB2F840004D64EF
:10396000C1F83051086331E0B2F842004000C8634A
:1039700030BD506802E0C0F8484100680028FAD124
:10398000C1F80C5130BDD8310D674D634C671AE05A
:10399000506802E0C0F8304100680028FAD130BD1C
:1039A000032081F83801B2F84000486430BDB2F815
:1039B0004000C1F8AC40086330BD0D63C1F89C40C5
:1039C00030BDD8318C630C6030BD4D64C1E95254B8
:1039D00030BD042081F8380130BD3031CD66CD676F
:1039E000B2F84000086030BDC1F8AC40B2F8400009
:1039F000086330BD0D63C1F89C4030BD2DE9F04136
:103A0000C169C668CC6AA6F51C520F3A01D10021E3
:103A100034E191F8385191F84021954205D0D1F820
:103A20003C3113B1D1F85C3163B1122E77D2DFE8AB
:103A300006F0101628261212124B12121214141429
:103A4000BB141414052AF1D2DFE802F003030305C6
:103A50000700012112E1072110E10E210EE1D1F84A
:103A60003C21002A5BD0D1F85C21002A57D1D1F843
:103A7000B020002AFAD1D1F8A0100029F6D10221F5
:103A8000FCE0D1F83C21002AECD0D1F85C21002ADE
:103A9000ECD1B4F840300A6B9A42F0D1D1F8482109
:103AA000002AECD1D1F83021002AE8D1D1F84C21FC
:103AB000002AE4D0C96BB4F84220B1EB420F2ED0FB
:103AC000022D2CD10321D9E0D1F83C21002A26D0A7
:103AD000D1F85C21002A22D1D1F89C5015B9D1F837
:103AE000302122B162680026134601270DE006212D
:103AF000C4E0D3F8A0C1D1F8A0E1F44504D0D3F8D4
:103B00004CC1BCF1000F0BD01B68002BF1D13B4620
:103B1000D1F80CC1BCF1000F04D04BB902E07AE03F
:103B20003346F5E7D1F84CE1BEF1000F02D10BB1FD
:103B30000521A3E0BCF1000F0DD0BEF1000F0AD1AA
:103B400004219BE0D2F8A031D1F8A0C1634501D097
:103B5000536C1BB91268002AF4D13E460B6B2BB193
:103B60009EB1CA6B8AB9227C022A0ED3D1F8AC204E
:103B700002B125B143B146B1CB6B13B105E00A21C7
:103B80007CE0237C022B00D32AB1D1F8302122B172
:103B90001DB1082172E0092170E0496CB4F84020A1
:103BA00091427FF458AF6DE0D1F83C219AB3D1F83F
:103BB0005C2182BBD1F89C603EB98A6F2AB9D1F8EA
:103BC000102112B9D1F8DC2012B14C6C14B106E00E
:103BD0000B2153E0D1F830210AB10D214EE0D1F88C
:103BE000B0202AB9D1F8A02012B9D1F84C2182B165
:103BF0008D6F15B1D1F84C215AB1D1F8DC3013B129
:103C0000D1F84C212AB1D1F848212AB1D1F84C7110
:103C100017B10C2132E035E00F6B0FB105B9B3B12C
:103C200024B1D1F830C1BCF1000F06D12AB9D1F8C6
:103C3000ACC0BCF1000F00D016B127B11DB901E036
:103C400011211BE01BB164B1D1F830514DB112B15B
:103C5000D1F84C211AB1D1F830219AB194B143B1C5
:103C600010E0002AF4D1D1F8AC20002AF3D11021C1
:103C700004E0D1F8AC1001B926B10F21BDE8F04144
:103C800000F057B80020BDE8F08100004265676988
:103C90006E000000880100202DE9F0470F468046A5
:103CA0001D46164620210120DDF820900BF013FD63
:103CB000040002D121A00BF0ADFD42F20F70E060D4
:103CC000494660680BF0EFFC0020A060C4E906657F
:103CD000C4E904872046BDE8F08710B50446406873
:103CE0000CF000F834B96FF0410318A21BA11DA01D
:103CF0000BF090FD2046BDE810400BF0F3BF10B56F
:103D0000416904468847002801D00121A16010BD07
:103D100070B5002405462646A86840B129692846A2
:103D200088472846AE60FFF7EAFF641CF4E72046A8
:103D300070BDC160012181600846704763616C6C91
:103D40006F63206661696C0A00000000737461741F
:103D500065206D616368696E650000006672656567
:103D600000000000464154414C3A20257320636F07
:103D700064652025733A25640A00000010B50446E6
:103D800000F002FF03E0416CA14202D0006800286D
:103D9000F9D110BD2DE9F0471D4617460C460646E1
:103DA000FFF7ECFF18B11C212960BDE8F087214620
:103DB000304600F00DFE060005D000244FF001084B
:103DC000DFF8FC940CE0162016E0396808FA04F0DD
:103DD000014204D021463046FFF70EF840B1641C82
:103DE000D9F804008442F0DB002028603046DCE78C
:103DF000304600F08DFE172028600020D5E72DE921
:103E0000F84F1E4691468A4680460027FFF7B6FFC8
:103E10000546A6B1B8F1000F11D100F0B5FE044679
:103E20000BE094F84C0038B10021606C00F007FD05
:103E30000021204600F05BFE2468002CF1D155B92A
:103E4000012E0CD16B464A4651464046FFF7A2FF71
:103E5000050007D0012795F84C00B04204D100209E
:103E6000BDE8F88F0220FBE73146284600F03FFE10
:103E7000040005D017B1284600F04AFE2046EFE7BF
:103E80003146404600F0DBFCF8E72DE9F0411646EC
:103E9000074600F02BFC040019D0D4F8E400B0422F
:103EA00015D00025C4F89C512EB1C4F89851C4F81F
:103EB0009451C4F89051002239462046C4F87861E4
:103EC000FFF763F80120C4F83C51C4F83401BDE8A1
:103ED000F081FB494860704710B50C460021216015
:103EE000FFF74CFFD8B390F84C1019B1216841F09E
:103EF0000101216090F84C102171017C022903D04E
:103F0000216841F020012160017CE162418AB1F524
:103F1000004F03D0216841F002012160418AE16134
:103F2000818B142903D0216841F004012160818B29
:103F30002162018C022903D0216841F0080121602F
:103F4000018C6162C18B0F2903D0216841F01001FF
:103F50002160C08BA06203202063002010BDFFE71A
:103F60000D20FBE770B514460D46FFF707FF58B369
:103F7000294600F0BBFB48B300212160B0F8E810EF
:103F8000090AE161802901D004212160D0F864117F
:103F9000216219B1216841F00201216090F88C1171
:103FA00084F82410022903D0216841F0080121601F
:103FB00090F8E00084F82500012803D0206840F044
:103FC00010002060002070BD0D2070BD0E2070BD5F
:103FD00010B50C46FFF7D2FE58B3616900F086FBBE
:103FE00048B3B0F8E810218390F83821002122B3BB
:103FF000D0F89C201AB30322A276EC30D0F8B0207F
:10400000A266C26FE26103682362436863628268EA
:10401000A262C368E36203692363828AA28690F87E
:104020004C20EC38062A24D2DFE802F010121B1DC7
:104030001F210D2092E70E2090E7A176DDE7D0F852
:10404000AC200AB10222D7E70122D5E7202200E006
:10405000412284F8702090F8382162B1052A0AD0F4
:1040600014E04222F5E75222F3E74422F1E72D2241
:10407000EFE73F22EDE721626162E1622163A16225
:10408000B0F8E820A28690F83821DAB3D0F8881189
:1040900001B1012184F87110D0F8DC1001B10121C7
:1040A00084F87210D0F8441169B3002184F87310B9
:1040B000D0F86811E166D0F89011A163D0F894119E
:1040C000E163D0F898112164016B6164416BA164D4
:1040D000816BE164C16B2165016C6165416CA16517
:1040E000816CE165C16C2166016D6166016C616581
:1040F00090F8541184F8741090F8500184F8750009
:1041000000202BE700E00EE090F88C21012A01D07E
:10411000012200E0002204F8712F90F8E020627084
:10412000A170713CC4E70121C0E770B50D46FFF7EF
:1041300025FE04002AD0143414222846616B0BF0AB
:104140008BFA206B68612169C5F81A106169C5F89E
:104150001E10A0696862E0896886608D6863A08D22
:10416000E863E08DA86354F8021C2964D4F80210B7
:10417000696494F838002876E06BA862206CE862E5
:1041800094F8440085F83000002070BD0D2070BD0B
:104190002DE9F04116460F4605464FF0FF3400F07A
:1041A000F3FC10E0416CA9420CD1816C21B1324684
:1041B00038460BF051FA03E0314638460BF041FA2D
:1041C000002402E000680028ECD120467FE670B5AC
:1041D0000D0006460BD00020394908708868401C45
:1041E0008860632801DD0020886015B107E00120A8
:1041F000F2E734A301220021304600F005FB00F075
:10420000C3FC04460CE094F84C00012807D12A4670
:1042100031462046FFF739FE204600F090FB246827
:10422000002CF0D1002070BD2DE9F0410D4624494D
:1042300080460220087088680026401C8860632839
:1042400000DD8E6000F0A0FC044601270EE094F82B
:104250004C00012809D14146204600F047FA20B120
:1042600000F59A700760866085632468002CEED1A3
:1042700000202CE62DE9F041114907460320087083
:1042800088680025401C8860632800DD8D6000F090
:104290007BFC044601260EE094F84C00012809D16D
:1042A0003946204600F022FA20B100F59A700665E2
:1042B000066085602468002CEED1002007E600002F
:1042C000D001002064697361626C6520706F727444
:1042D0000000000070B504460D460088FEF7C8F9DE
:1042E00040F2DC51884201D90F2070BD072801D26D
:1042F000102070BD0E30A84201D9112070BDA078E9
:10430000422805D1E078422802D12079032801D043
:10431000122070BD607910B9A0790028F9D013205F
:1043200070BD2DE9F0470C46F849914604220A7009
:104330008A680026521C98468A60632A00DD8E60D7
:10434000FFF71CFD050012D095F84C0088B12146FE
:10435000284600F0CBF904000DD0D4F8DC0001278A
:1043600008B1206D48B1D4F8E40060B111E00D202F
:104370001BE5152019E50E2017E5D4F8E40010B16F
:10438000C4F8507105E001222846D4F8A011FFF7C7
:104390007CFDC4F87C71424649462046C4F8DC6086
:1043A000FEF757FE0446284600F0C9FA2046FCE412
:1043B00070B5D6490520002508708868401C8860C3
:1043C000632801DD0020886000F0DEFB044608E081
:1043D00094F84C00012803D1204600F0C3FA6D1C6C
:1043E0002468002CF4D1284670BDF0B58FB00E467D
:1043F000144607466946FFF76FFD18B1694638460F
:1044000000F035FAC1490620002508708868401C74
:104410008860632800DD8D602078800701D5E06921
:1044200007902078400701D5206A0890207800077F
:1044300001D5606A09902078C00601D5A06A0A906B
:104440002078800601D5E06A0B90684600F058F9A4
:10445000002825D12078C00701D0207928B138461E
:10446000FFF78CFC05000AD011E000233246611DE5
:104470003846FFF7C4FC002812D1256036E00DABAA
:104480003246611D3846FFF785FC050007D06E8A6D
:104490000798688295F84C00012803D009E00D9830
:1044A0000FB0F0BD284600F0BDFA10B16E821820A2
:1044B000F6E70898A883099828840A98E8830B9857
:1044C00028742268D0070BD023794BB195F84C00A3
:1044D00048B9611D3846FFF792FC0028E0D105E09D
:1044E00095F84C0010B1284600F051FB0020D7E7AA
:1044F0002DE9F047854E054606203070B0680C4621
:10450000401C4FF00008B060632801DDC6F8088049
:104510002846FFF733FC070003D00125AA46B14621
:1045200045E029467AA00BF075F90D203DE4691E9F
:1045300060680AFA01F15646084237D029463846E3
:1045400000F0D4F890B32178890604D5397C02298B
:1045500001D3C0F8B4602178890702D5216AC0F878
:1045600064112178490704D5217F05EB0121A0F8CA
:10457000E8102178090705D594F8241080F88C11EB
:10458000C0F884612178C90605D594F82510C0F8D3
:10459000E010C0F8DC102178490603D594F8261005
:1045A000C0F88011C0F83C81C0F834616D1CD9F8A6
:1045B00004008542BBDD384600F0C1F9002016E456
:1045C000002801DA5EA070471D2801DB62A0704759
:1045D0004E490C3151F82000704770B58EB00D4631
:1045E00040F2FF13144606466946009300F03FF977
:1045F000002000900DAB224629463046FFF7CAFB4B
:1046000048B10799418208998183099901840A99DF
:10461000C1830B9901740D980EB070BD70B506463C
:104620000024FFF7ABFB050004D095F84C000128EF
:1046300002D00CE00D240DE00021284600F057FACE
:1046400008B11B2406E00021304600F0F8F82846A7
:1046500000F05EFA204670BD2DE9F0410E46074697
:10466000012500F091FA044606E0A06C18B1394625
:104670000AF0FEFF20B12468002CF6D1284626E47B
:10468000606C00253060F9E710B50024FFF776FB79
:1046900020B190F84C00012800D1012420465DE4AF
:1046A00010B500F071FA04460BE094F84C0038B1F4
:1046B0000021606C00F0C3F80021204600F017FADA
:1046C0002468002CF1D1002048E410B500F05CFA19
:1046D000044607E00021204600F009FA204600F0D9
:1046E00017FA2468002CF5D1002037E4406804E074
:1046F000D0F8A0218A4202D000680028F8D1704783
:10470000C169002934DA032070470000D00100207D
:104710005253545020696E7374616E6365207769DB
:10472000746820746167202564206861736E277443
:10473000206265656E20637265617465640A0000BD
:10474000546F6F20736D616C6C206572726F722094
:10475000636F6465203A2800546F6F206269672098
:104760006572726F7220636F6465203A28000000E2
:10477000B1F5704F01DD0420C6E7426A012A01DA73
:104780000520C1E70A2A01DD0620BDE7016A0629E6
:1047900001DA0720B8E7282901DD0820B4E7806A9C
:1047A000042801DA0920AFE71E2801DD0A20ABE763
:1047B0004000801E884201DA0B20A5E75000801CD3
:1047C000884201DD0C209FE700209DE7704710B56F
:1047D0001146FDF7FDFD002010BD10B50022304C44
:1047E00000F00F0001E0052A06D0A35C8B54521C98
:1047F000D2B2062AF7D310BD637903F0F003034366
:104800004B71F4E7FDF70CBE70B50546012A0ED0DA
:104810000024AC4206D0E0B240F0F00203210120B7
:10482000FCF74DFF641C0B2CF3DB002070BDC0B205
:1048300040F0F00203210120FCF741FFF5E70020E2
:104840007047194610B583B21648FCF7B2F800203D
:1048500010BD10B5024614A115480AF0EBFF14482C
:1048600010BDFDF722BEFDF7ECBDFDF70ABE4FF40B
:104870000040C8611420086202200F22C1E9090229
:10488000C86200207047802042F81C0F0020907200
:104890000121517250600220107200207047000008
:1048A00074000020F4020120702530326400000002
:1048B000540200200120704710B542F20F71C16010
:1048C00001698847002010BD2DE9F0411746884650
:1048D00006460024C56807E02846414688470FB1D0
:1048E000002815D12D680444002DF5D176680CE020
:1048F000B56A07E02846414688470FB1002807D12E
:104900002D680444002DF5D13668002EF0D12046E4
:10491000BDE8F0817CB5002500F112030446009546
:1049200019462A462430019500F0C0FC658304F145
:104930001A0104F13C00BDE87C4000F052BA70B5A9
:104940000546002401229F492846FFF7BDFF38B1E4
:10495000641C00229C492846FFF7B6FF0444F1E797
:10496000204670BD10B5044690F84C00012829D1AE
:10497000616810E0002201EB8200436D186808B105
:10498000401E1860521C092AF5DBD1F89C01401C1E
:10499000C1F89C0109680029ECD12046FFF7CFFF40
:1049A0000022606804E0816C09B1012003E0006826
:1049B0000028F8D1104684F8580020B1606D401CE2
:1049C000C4E9142010BD6265206D401C206510BD37
:1049D000F8B50E4607465C2101200AF07CFE040073
:1049E00002D17AA00AF016FF7C48002501682160F8
:1049F000046084F84C5067641EB13146A06C0AF024
:104A000052FEE56076A0656000902346764A7749BD
:104A10007748FFF741F9E1680160E060A060204657
:104A2000F8BD704770B505466C4805F1120604687C
:104A30000CE094F84C00012807D1AC4205D004F1F9
:104A40001201304600F01CFC20B12468002CF0D18B
:104A5000002070BD182070BD70B505460023426867
:104A600008E01BB1D2F8A001984202DAD2F8A031D6
:104A700014461268002AF4D144B105F11401D4F8A7
:104A8000A001FFF7AAFE05F1120070BD002070BD65
:104A900070B50546406848B12846FFF7DDFF38B1DC
:104AA0002846FFF7BFFF28B1182070BD192070BD40
:104AB0001A2070BD2846FFF72DFF6C6805E0012223
:104AC00029462046FEF761FA2468002CF7D149A355
:104AD00001220020696CFFF797FE00224849284612
:104AE000FFF7F2FE2846FFF72AFF002070BD70B5E1
:104AF00005460C4695F84C100020A14200D170BD2F
:104B0000012C02D12846FFF7C3FF85F84C4070BD49
:104B100070B504460021FFF7EAFFE06804E005688D
:104B2000FFF7DBF82846E5600028F8D1606804E06C
:104B30000568FEF75FFA284665600028F8D1274A25
:104B4000002110681DE0436C656CAB4217D12068F2
:104B500009B1086000E01060A06C18B10BF0C2F859
:104B60000020A06434B96FF0410326A229A12BA034
:104B70000AF050FE2046BDE870400BF0B3B8014685
:104B800000680028DFD170BD14480068704700221B
:104B90004068012104E0C0F83C21C0F834110068ED
:104BA0000028F8D17047406807E0B0F8E8208A4252
:104BB00002D1D0F8A401704700680028F5D11DA0EB
:104BC00070470000FF3C0008113D000863616C6CF9
:104BD0006F63206661696C0A0000000058020020C3
:104BE000726F6C6573656C00853500085937000875
:104BF000FD3600087374617274207374706D000068
:104C0000B948000873747020696E7374616E6365CF
:104C100000000000667265650000000046415441D6
:104C20004C3A20257320636F64652025733A256410
:104C30000A000000556E6465663F0000A0F51C5137
:104C40000F3901D12CA070472D4951F82000704731
:104C5000C269C06840B10121012810D0022816D0D5
:104C6000A0F51C500F3823D10020C2F8B000C2F8C4
:104C7000A000D06A416CD2F8A001012214E0C2F871
:104C8000B010D06A416CD2F8A00102220CE0D2F838
:104C9000DC0058B10020C2F8A010C2F85001D06A60
:104CA000416CD2F8A0010322FFF791BD0120F2E789
:104CB0007047C268C169A2F51C530F3B01D10021A6
:104CC0000EE022B1012A07D0022A0FD110E0D1F85C
:104CD000AC1059B1012103E0D1F89C2012B102219E
:104CE000FFF727B8D1F8AC100029E8D000207047B2
:104CF000D1F89C10F8E70000426567696E0000007B
:104D00005C02002002880B889A4202D24FF0FF30EA
:104D1000704702D94FF00100704742884B889A4291
:104D200002D26FF00100704702D94FF002007047C5
:104D300082888B889A4202D26FF00200704702D9B3
:104D40004FF003007047C088C988884202D26FF0D4
:104D50000300704702D94FF0040070474FF0000085
:104D6000704770B500F117050C462888FDF780FCE8
:104D7000000A20806888FDF77BFC000A6080E888D4
:104D8000FDF776FC000AA080A888FDF771FC000AF8
:104D9000E08070BDF8B5054600884FF6FF760C46FA
:104DA00006EA0020FDF736FCADF8000024F8170FE6
:104DB000688806EA0020FDF72DFCADF80000608051
:104DC000A88806EA0020FDF725FCADF80000E08089
:104DD000E88806EA0020FDF71DFCADF80000A08081
:104DE000F8BD0A8802804A8842808A888280C98801
:104DF000C1807047A0F51C510F3901D169A07047DF
:104E00006A4951F82000704730B4C2690124D06A61
:104E1000406808E0D0F8A031D2F8A051AB4201D0F0
:104E2000C0F8584100680028F4D1D06A0B46446CA1
:104E3000D2F8A001214630BC0022FFF7E5BC70B5D6
:104E4000C1680025C469064604292AD010DCC9B10E
:104E500001291ED002290AD0032908D100F093F8B5
:104E6000A06453A13046FFF7CFFFC4F8505170BD86
:104E7000052926D006292AD007292CD0A1F51C51B6
:104E80000F39F4D1DC3444F8945CA567E5676567B5
:104E900070BD04F592746563E5626560A560256088
:104EA00070BDC4F82451C4F82C5194F8380104287A
:104EB00002D10120C4F854013046BDE870403FA142
:104EC000A2E700F060F8C4F85851A06470BDA56472
:104ED000C4F8285170BD00F056F8A06470BDC268D7
:104EE000C169A2F51C530F3B01D1002145E0082AFE
:104EF00047D2DFE802F004062321212121360121D7
:104F00003BE091F83821032A16D0042A14D0D1F8B6
:104F10002421002AF3D1D1F82C21002AEFD1D1F895
:104F20002821002AEBD1D1F85021002AE7D1D1F86D
:104F300058110029E3D124E002211EE091F8382124
:104F4000032A01D0042AD0D1D1F850210AB103217B
:104F500013E0D1F82C210AB107210EE0D1F8242169
:104F60000AB1042109E0D1F8582112B1D1F8DC20AE
:104F70002AB1D1F8281121B10621FEF7DABE0521A8
:104F8000FBE700207047C169D1F84421C86A32B1FB
:104F9000D1F8881119B1B0F8420040007047C08FB5
:104FA00070470000426567696E00000068020020DB
:104FB0004445544543544544000000004E4F544975
:104FC000464945445F544300A0F51C510F3901D1B7
:104FD000A1A07047A24951F820007047F8B5A04E33
:104FE0000D463C3E1446B11DFFF7F7FB3576022D0A
:104FF0000DD00020F075E01C80B2FDF70BFBADF882
:1050000000003082402C00D240242046F8BD02200F
:10501000F0E770B50446924800223C384276A26C14
:105020000AB10122427631B1D4F8541119B1417E4E
:1050300041F0800141768A4904F1EC0023390D46A4
:1050400000F07AF9294604F58270BDE87040FFF758
:10505000A1BE2DE9F047C1680025C469032927D006
:1050600006DC69B101290FD1D4F8D800B0B90DE040
:1050700004293FD0052957D0A1F51C510F3903D180
:10508000C4F8D8506563E564BDE8F08794F838014A
:10509000042803D0032803D1A06C08B1012000E04C
:1050A0000020C4F8D800E06AB0F842006063EBE783
:1050B000A846C4F8D850C569D5F88001A0B9E96AF6
:1050C000D5F8A00123224E6C07460021FFF786FF8A
:1050D000814601212846FFF79CFF614A4B463C3A36
:1050E00031463846FFF7ADFBE06CC4F85481401CF4
:1050F000E064C9E7C4F8D850C069D0F8801179B924
:10510000D0F8A051C06A04228021466C2846FFF7DF
:1051100065FF534A03463C3A31462846FFF791FB68
:10512000E06C401CE064AFE7C4F8D85000F04FF8E2
:10513000E06CC4F85451401CE064A5E7C268C16942
:10514000A2F51C530F3B01D100212EE0062A25D2E7
:10515000DFE802F0030305030303022125E04A6BA5
:1051600082B1D1F84421002AD1F8D8200CD0AAB1BC
:10517000CA6C032A12D291F83811032914D00429D9
:1051800012D00BE0012110E042B1CA6C032A05D213
:1051900091F83811042903D0032903D00020704767
:1051A000032102E0042100E00521FEF7C2BD70B535
:1051B0002CA00AF02FFB2A4D00243C3D2EA0295D97
:1051C0000AF028FB641CE4B23A2CF7D370BD2DE939
:1051D000F041C469D4F8800110B10120BDE8F0812C
:1051E000E06AD4F8A0512522466C02212846FFF738
:1051F000F5FE074600212046FFF70BFF94F840011B
:1052000001280CD0022805D0032805D0042805D099
:10521000002004E0012002E0022000E00320104909
:105220003C394A7E42EA80004876D4F84C2112B1DB
:1052300040F040004876D4F8100118B1487E40F0A4
:10524000020048763B4631462846BDE8F041044A14
:105250003C3AFFF7F6BA0000426567696E0000004D
:10526000C402002054686520425044552070616398
:105270006B6574203A0000002578200A0D000000BC
:1052800002880B889A4202D24FF0FF30704702D951
:105290004FF0010070474FF0060201F1020100F1EA
:1052A00002000AF0F3B918220AF0B2B970B5DDE9CC
:1052B00004450E6806604968416082601968C160F3
:1052C000596801618482C58270BD70B50C4605467F
:1052D000FFF7D6FF002817D1A868A168A0EB01004E
:1052E000002811D104F10C0105F10C00FFF7C8FFF3
:1052F000002809D1A88AA18AA0EB0100002803D1C7
:10530000E88AE18AA0EB010070BD70B504460D4645
:10531000401C00F032F8D4F80900FDF794F9A860B9
:1053200005F10C0104F10D0000F027F804F115005F
:1053300000F01AF8A88270BD70B50C460546491CED
:1053400000F028F8A868FDF77EF9C4F8090004F118
:105350000D0105F10C0000F01DF8A88A04F11501FB
:10536000BDE8704000F003B80088FDF781B910B5C2
:105370000C46FDF74FF9208010BD70B50D46044670
:10538000FFF7F2FF2880D4F80200C5F80200E08899
:10539000E88070BD70B505460C460088FFF7E7FF52
:1053A000D5F80200C4F80200E888E08070BD000073
:1053B0007047434810B5016841F40071016001680D
:1053C00041F480610160016841F4807101604FF433
:1053D0007A5000F0D3F8032000F080F8FFF7E8FFE0
:1053E000002010BD7047374A10B54FF0FF301060F5
:1053F00000211160121D10601160324A103A1060D5
:105400001160121D10601160121D10601160FFF715
:10541000E9FF002010BD2C480168491C016070475D
:1054200029480068704729480068704701B5264838
:105430000168009A114402688A42FCD308BD4FF00B
:105440008070704722480068000C70472048006850
:10545000C0F30B0070471E48416841F001014160F4
:1054600070471B48416821F00101416070471848AE
:10547000416841F00201416070471548416821F0E0
:105480000201416070471248416841F004014160E7
:1054900070470F48416821F00401416070470D4991
:1054A0000120086070470B490020086070470A49D6
:1054B0000120086270470849002008627047000018
:1054C000003C024020380240DC020020680000203E
:1054D000002004E00004274200002742724A00F046
:1054E000070110684FF6FF03184040EA01206F499A
:1054F000084310607047F0B46B4B1B68C3F3022382
:10550000C3F10704042C00D904241D1D072D01D26A
:10551000002300E0DB1E012606FA04F56D1E0D4097
:105520009D409E40761E164045EA0601F0BC00F004
:10553000AFB800F01F020121914040094FF0E02276
:1055400002EB8000C0F80011704700F01F0201213B
:10555000914040094FF0E02202EB8000C0F880113A
:105560007047BFF34F8F50480168504A01F4E06123
:10557000121D11430160BFF34F8FFEE710B5401EAF
:10558000B0F1807F01D3012010BD4FF0E0246061B5
:105590000F21601700F07CF80020A0610720206137
:1055A000002010BD40480068C0F302207047F0B5ED
:1055B000002804DA3C4C00F00F00083400E03C4CBA
:1055C000005D040901F00700C0F10701042900D9BA
:1055D0000421051D072D01D2002000E0C01E012777
:1055E00024FA00F607FA01F56D1E2E4007FA00F5C1
:1055F0006D1E254016601D60F0BD00F01F020121E8
:10560000914040094FF0E02202EB8000C0F8001208
:10561000704741094FF0E02202EB8101D1F80012FE
:1056200000F01F0201209040014201D0012070478C
:105630000020704700F01F020121914040094FF007
:10564000E02202EB8000C0F88012704741094FF061
:10565000E02202EB8101D1F8001300F01F020120CB
:105660009040014201D001207047002070474FF068
:10567000E0210428086903D020F004000861704785
:1056800040F00400FAE7704710B5FFF7FCFF10BDCB
:105690000907090E002804DA034A00F00F00083257
:1056A00000E0034A815470470CED00E00000FA0569
:1056B00000E400E070B5D0B10221446A80F83510F2
:1056C00002681368FB490B40D0E901152943D0E972
:1056D0000356354329434569294385692943C569EB
:1056E0002943056A29431943042C02D005E001200F
:1056F00070BDD0E90B342343194311600368596925
:10570000426A21F007011143042A01D1826A114340
:1057100059610021C164012180F83510002070BD5D
:105720002DE9F04F90F83510022946D001680A683B
:1057300022F001020A6002680021116002685160D3
:10574000026891600268D1600268116102682121DB
:105750005161D94BDA4CD84DD94ED74FDFF858C3E9
:10576000DFF85C93DFF850A30168DFF85083D44A78
:10577000483B603418351836303F4FF4807B4FF487
:10578000802E09F178090AF1300A614539D9A3F16F
:10579000040CDCF800C091422ED099422CD0A142DA
:1057A0002AD0A94228D0B14205D0B94203D04945F8
:1057B00001D0514504D1D8461EE00120BDE8F08F4C
:1057C000DFF8FC8208F13008414511D0DFF8E882AB
:1057D000A8F1180841450BD0DFF8E48208F19008E1
:1057E000414505D0DFF8D08208F14808414501D194
:1057F000F04601E04FF08078AF494CEA080C4C3994
:105800003DE0DFF8BCC20CF1A80C61453AD9DFF8E5
:10581000A8C2ACF1500CDCF800C091422BD09942E8
:1058200029D0A14227D0A94225D0B14205D0B94202
:1058300003D0494501D0514501D1D8461BE0DFF8DE
:10584000808208F13008414511D0DFF86C82A8F160
:10585000180841450BD0DFF8688208F190084145EF
:1058600005D0DFF8548208F14808414501D1F046DF
:1058700001E04FF0807890494CEA080C5039C1F8AB
:1058800000C072E0DFF838C20CF1480C6145DFF867
:1058900034C235D9DCF80CC091422BD0994229D0C2
:1058A000A14227D0A94225D0B14205D0B94203D0A8
:1058B000494501D0514501D1D8461BE0DFF80082AF
:1058C00008F13008414511D0DFF8EC81A8F1180843
:1058D00041450BD0DFF8E88108F19008414505D03B
:1058E000DFF8D48108F14808414501D1F04601E0D4
:1058F0004FF0807873494CEA080CC1F80CC034E0D2
:10590000DCF808C091422BD0994229D0A14227D07F
:10591000A94225D0B14205D0B94203D0494501D0B2
:10592000514501D1D8461BE0DFF8948108F13008D9
:10593000414511D0DFF88081A8F1180841450BD00E
:10594000DFF87C8108F19008414505D0DFF86881D7
:1059500008F14808414501D1F04601E04FF0807858
:1059600058494CEA080CC1F808C0DFF84CC101687E
:105970004FF4006B4FF4001E61453AD9DFF838C18F
:10598000ACF14C0CDCF800C0914205D0994203D038
:10599000A14201D0A94201D1202125E0B14205D088
:1059A000B94203D0494501D0514501D159461BE0C8
:1059B000DFF80C8108F13008414511D0DFF8F8809C
:1059C000A8F1180841450BD0DFF8F48008F19008E1
:1059D000414505D0DFF8E08008F14808414501D194
:1059E000714601E04FF000614CEA010C32494C393C
:1059F0003FE0DFF8CCC00CF1A80C61453CD9DFF8E2
:105A0000B8C0ACF1500CDCF800C0914205D099420E
:105A100003D0A14201D0A94201D1202125E0B14209
:105A200005D0B94203D0494501D0514501D159466D
:105A30001BE0DFF88C8008F13008414511D0DFF819
:105A40007880A8F1180841450BD0DFF8748008F180
:105A50009008414505D0DFF8608008F148084145CD
:105A600001D1714601E04FF000614CEA010C12498E
:105A70005039C1F800C07AE0DFF844C00CF1480C9E
:105A80006145DFF840C03ED9DCF80CC0914205D03A
:105A9000994203D0A14201D0A94201D120212BE09B
:105AA000B14205D0B94203D0494501D051450BD18F
:105AB000594621E03F8014F0586402400400800001
:105AC0001060024000600240DFF8148441450FD0AE
:105AD000DFF8108441450BD0DFF8048408F160083A
