:020000040800F2
:1000000078A801209D010008A5090008A70900089B
:10001000AB090008AF090008B309000800000000A0
:10002000000000000000000000000000B709000808
:10003000B909000800000000BB090008BD0900085C
:10004000B7010008B7010008B7010008B7010008B0
:10005000B7010008B7010008B7010008B7010008A0
:10006000B7010008B7010008B7010008B701000890
:10007000B7010008B7010008B7010008B701000880
:10008000B7010008B7010008B7010008B701000870
:10009000B7010008B7010008B7010008B701000860
:1000A000B7010008B7010008B7010008B701000850
:1000B000BF090008B7010008B7010008B701000830
:1000C000B7010008B7010008B7010008B701000830
:1000D000B7010008DD090008B7010008B7010008F2
:1000E000B7010008B7010008B7010008B701000810
:1000F000B7010008B7010008B7010008B701000800
:10010000B7010008B7010008C9090008B7010008D5
:10011000B7010008E7090008B7010008B7010008A7
:10012000B7010008B7010008B7010008B7010008CF
:10013000B7010008B7010008B7010008B7010008BF
:10014000B7010008B7010008B7010008B7010008AF
:10015000B7010008B7010008B7010008D30900087B
:10016000B7010008B7010008B7010008B70100088F
:10017000B7010008B7010008B7010008B70100087F
:10018000B7010008B7010008DFF80CD00EF014FF2B
:10019000004800476503000878A80120064880470A
:1001A00006480047FEE7FEE7FEE7FEE7FEE7FEE75C
:1001B000FEE7FEE7FEE7FEE7C1010008890100084F
:1001C0003F48006840F470003D4908603D480068C1
:1001D00040F001003B49086000203A4908310860BE
:1001E0003848006838490840364908603748091DD2
:1001F0000860081F006820F48020091F08600020A4
:1002000030490C3108604FF000602D49803908609A
:10021000704770B500200022022300240221294DDE
:1002200008352D6805F00C0020B1042806D00828F8
:1002300034D107E0264D274E356033E0264D254E5C
:1002400035602FE01F4D2D1D2D68C5F380541D4DC9
:100250002D1D2D6805F03F0154B11F4DB5FBF1F583
:10026000184E361D3668C6F3881605FB06F209E0FF
:10027000174DB5FBF1F5134E361D3668C6F38816DB
:1002800005FB06F20F4D2D1D2D68C5F301456D1CB4
:100290006B00B2FBF3F50F4E356003E00C4D0D4ED5
:1002A000356000BF00BF074D08352D68C5F3031545
:1002B0000A4E705D074D2D68C540064E356070BD15
:1002C00088ED00E000380240FFFFF6FE1030002409
:1002D0000024F4000000002000127A000400002036
:1002E00000B591B01A48006840F080501849086085
:1002F0001848006840F4404016490860012000900A
:100300000190022006904105079119210891FA21D8
:10031000099102210A9107210B91684600F0AEFB7A
:100320000F200C9002200D9000200E904FF4A05052
:100330000F904FF48050109005210CA800F0F4FDB0
:100340004FF0E0629101012000F026FF11B000BDE6
:100350004038024000700040002100E0491C81420A
:10036000FCDB70470EB5FFF7BBFF00F09AFA00F018
:10037000BBF800F004F900F047F94C484C4908601C
:100380004C484D4908604D484D4908604FF496402F
:1003900000900020ADF80400ADF80600ADF80800AC
:1003A0006946434800F0D4F96946434800F0D0F963
:1003B0006946434800F0CCF900F0FDF9414800F0EF
:1003C0004EFA414800F077FA012251033F4802F00B
:1003D000DCF83FA00EF022FE49E04CF25030FFF76F
:1003E000BBFF4CF25030FFF7B7FF4CF25030FFF735
:1003F000B3FF4CF25030FFF7AFFF4CF25030FFF735
:10040000ABFF4CF25030FFF7A7FF4CF25030FFF734
:10041000A3FF4CF25030FFF79FFF0122202131480B
:1004200002F0B3F84CF25030FFF796FF4CF2503028
:10043000FFF792FF4CF25030FFF78EFF4CF2503036
:10044000FFF78AFF4CF25030FFF786FF4CF2503036
:10045000FFF782FF4CF25030FFF77EFF4CF2503036
:10046000FFF77AFF002220211E4802F08EF8B4E741
:1004700070B505460C4642F210730122294620460B
:1004800005F010FD00BF20680068C0F3C010002810
:10049000F9D070BD13B50C464FF6FF7301226946C3
:1004A000074805F0FFFC00981CBD00000014014047
:1004B0000CA101200050004048A101200010014083
:1004C00084A1012038000020C0A10120000C0240BE
:1004D0007768617420616E20616D617A696E672151
:1004E0000A0D000000000240FE48006840F00100D4
:1004F000FC4908600846006840F0020008600846B1
:10050000006840F004000860F6481430006840F0CD
:100510002000F449143108600846006840F01000DB
:100520000860081F006840F48010091F0860084632
:10053000006840F0010008600846006840F00800CC
:100540000860E848006840F00800E649086008468E
:10055000006840F0007008600846006840F0806065
:1005600008600846006840F000600860DD48103010
:10057000006840F40010DB4910310860704710B586
:10058000052006F061FA01220021472006F06EFAEC
:10059000472006F0A9FA01220321252006F066FA79
:1005A000252006F0A1FA02220321352006F05EFA8A
:1005B000352006F099FA002201211C2006F056FA97
:1005C0001C2006F091FA00221146322006F04EFA65
:1005D000322006F089FA012202213D2006F046FA77
:1005E0003D2006F081FA00220121202006F03EFA8B
:1005F000202006F079FA002202211F2006F036FAA8
:100600001F2006F071FA10BD00B585B040200090A3
:100610000220039001900120029008200490694676
:10062000B14801F021FE802000900220019003904B
:1006300000200290082004906946AB4801F014FEA7
:100640004FF400700090022003900190012002906E
:10065000072004906946A54801F006FE4FF480602B
:100660000090022003900190002002900720049047
:1006700069469E4801F0F8FD4FF48050009002203A
:10068000039001900120029008200490694696484A
:1006900001F0EAFD04200090022003900190002068
:1006A0000290082004906946914801F0DDFD4FF466
:1006B00070400090012001900320039000200290E0
:1006C00069468B4801F0D0FD202000900120019068
:1006D00003200390002002906946844801F0C4FD85
:1006E0008F200090022001900390002002900B20A8
:1006F000049069467D4801F0B7FD43F60350009031
:10070000022001900390002002900B200490694683
:10071000784801F0A9FD3E2000900220019003904E
:10072000002002900B20049069466F4801F09CFD68
:100730004FF41070009004200490122001900120CA
:100740000290039069466B4801F08EFD05B000BD34
:1007500030B587B004460D464FF4E1300090A888CC
:100760000190E8880290288903900C2004900020D2
:10077000059003901C226946201D0EF0D9FB2046EF
:1007800005F00DFA5CA00EF049FC2068C06840F04E
:1007900020002168C86001229103554801F0F5FE50
:1007A0002068C06840F400502168C860012084F8C7
:1007B000390007B030BD10B54FF080405349086094
:1007C0004FF41C70486064215048C1600021816072
:1007D000016101F06AFF00204D4908804B48006824
:1007E000006920F00100494909680861474800682C
:1007F000C06840F0010045490968C8604348006886
:10080000006840F0010041490968086041484249D8
:1008100008603E20486009213F48C1600021816096
:10082000016101F042FF00203C4908603A4800683D
:10083000006920F0010038490968086136480068FD
:10084000C06840F0010034490968C8603248006857
:10085000006840F0010030490968086010BD10B51B
:100860000446012060608103A160C102E1600221B1
:1008700021822B4961610021A1612162E161294846
:100880002060204600F0BDFF0A23274A2749204662
:1008900001F034F80A23264A2649204601F086F85A
:1008A00010BD254825490860254826490860264886
:1008B00026490860704710B588B004462448009067
:1008C000002001904FF48040039000200490079096
:1008D00006900A200290FE2005901E4820602022EB
:1008E000694639E03038024000080240000002400A
:1008F000000C024000040240686168616861686140
:1009000068616861686168610A0D000094A0012057
:1009100028000020000C0040D0A001202C00002066
:10092000140000200080024094000020F8A1012063
:1009300094A0002038A30120945001201C00002026
:1009400094900120240000209470012020000020B9
:10095000A086010000540040201D0EF0E9FA204658
:100960000CF0C9F810B102A00EF058FB08B010BD91
:100970004F6821212077686174207468652066754E
:10098000636B21205468652049324320696E697485
:1009900069616C697A6174696F6E206661696C6502
:1009A00064210000704700BFFEE700BFFEE700BF04
:1009B000FEE700BFFEE7704770477047704710B50D
:1009C000104803F069F910BD10B50F4803F064F941
:1009D00010BD10B50D4805F0E5FE10BD10B50C4872
:1009E00005F0E0FE10BD10B50A4805F0DBFE10BDB5
:1009F00010B509480EF029F910BD10B506480EF0E3
:100A000013FA10BD94A00120D0A001200CA1012058
:100A100084A1012048A10120C0A10120F94800685B
:100A200040F08100F74908600020F649083108606D
:100A3000F4480068F4490840F24908600020091DA4
:100A4000086008460068F1490843EE49091D08603E
:100A50000020EC498431086008460068EC490843EE
:100A6000E84984310860E748006820F48020E549BF
:100A700008600020E3490C310860704770B50446F7
:100A80000025207810F0010F62D0DE4808300068A1
:100A900000F00C0004280ED0DA480830006800F09E
:100AA0000C00082812D1D748001D006800F480000F
:100AB000B0F5800F0AD1D3480068C0F34040002849
:100AC00046D06068012843D0012070BD0020CD4988
:100AD000891C087000F0F8FC41F28831451805E0E7
:100AE00000F0F2FCA84201D30320EEE7C5480068FD
:100AF000C0F340400028F3D12079C249891C087016
:100B00006068012812D100F0DFFC41F288314518FD
:100B100005E000F0D9FCA84201D30320D5E7B9488D
:100B20000068C0F340400028F3D011E000F0CCFC96
:100B300041F28831451805E000F0C6FCA84201D317
:100B40000320C2E7AF480068C0F340400028F3D15B
:100B5000207800F00200022855D1AA480830006829
:100B600010F00C0F0CD0A7480830006800F00C0003
:100B700008280FD1A348001D006810F4800F09D188
:100B8000A0480068C0F3400040B3E06801283AD0B4
:100B900001209AE7E06810B301209E49086000F048
:100BA00093FC00F1640505E000F08EFCA84201D33F
:100BB00003208AE793480068C0F340000028F3D080
:100BC0009048006820F0F800F82292FAA2F2B2FAF7
:100BD00082F22169914008438A49086013E00020AD
:100BE0008C49086000F070FC00F1640505E000F03D
:100BF0006BFCA84201D3032067E782480068C0F37A
:100C000040000028F3D1207800F0080008282CD1FB
:100C10006069A8B101208049086000F055FC00F12E
:100C2000640505E000F050FCA84201D303204CE726
:100C3000744874300068C0F340000028F2D014E01B
:100C400000207549086000F03FFC00F1640505E0F4
:100C500000F03AFCA84201D3032036E7694874301B
:100C60000068C0F340000028F2D1207800F00400B2
:100C7000042862D163484030006840F080506149E8
:100C8000403108606548006840F48070634908603E
:100C900000F01AFC00F1640505E000F015FCA84224
:100CA00001D3032011E75D48006810F4807FF4D081
:100CB000002054497031087000F006FC41F2883180
:100CC000451805E000F000FCA84201D30320FCE633
:100CD0004C4870300068C0F340000028F2D1207A00
:100CE000484970310870A068012813D100F0ECFB6E
:100CF00041F28831451805E000F0E6FBA84201D337
:100D00000320E2E63F4870300068C0F3400000284E
:100D1000F2D012E000F0D8FB41F28831451805E02E
:100D200000F0D2FBA84201D30320CEE63548703054
:100D30000068C0F340000028F2D1A069F0B3314848
:100D40000830006800F00C00082877D0A06902285D
:100D500050D100202F49086600F0B6FB00F1640571
:100D600005E000F0B1FBA84201D30320ADE6254821
:100D70000068C0F340600028F3D1206A40F00050C2
:100D800047F6C07292FAA2F2B2FA82F2616A914018
:100D900008430122A16AC2EB51014FF4403292FA9A
:100DA000A2F2B2FA82F291400843E16908434FF09F
:100DB000706292FAA2F2B2FA82F200E040E0E16AD6
:100DC000914008430F49091D086001201149086638
:100DD00000F07AFB00F1640505E000F075FBA84225
:100DE00001D3032071E607480068C0F34060002883
:100DF000F3D025E000200749086600F065FB00F10C
:100E0000640514E000380240FFFFF6FA10300004D9
:100E10000030002000004742800E47420070004032
:100E20000CE000F051FBA84201D303204DE6FE4840
:100E30000068C0F340600028F3D101E0012044E6DF
:100E4000002042E670B50021002200230020F64C6D
:100E50000834246814F00C0404D0042C04D0082CAA
:100E600048D103E0F14847E0F14845E0EE4C241D4D
:100E7000246804F03F01EC4C241D246804F4800431
:100E80004FF4800595FAA5F5B5FA85F5EC4010D03C
:100E9000E74CB4FBF1F5E44C241D246847F6C0761A
:100EA000344096FAA6F6B6FA86F6F44005FB04F24C
:100EB0000FE0DE4CB4FBF1F5DB4C241D246847F653
:100EC000C076344096FAA6F6B6FA86F6F44005FBEC
:100ED00004F2D54C241D246804F440344FF440350A
:100EE00095FAA5F5B5FA85F5EC40641C6300B2FBF4
:100EF000F3F001E0CD4800BF00BF70BD00B5FFF7C3
:100F0000A1FFC9490831096801F0F001F02292FA05
:100F1000A2F2B2FA82F2D140C64A515CC840C64938
:100F200008600846006800BD2DE9F04104460D4602
:100F30000026C248006800F00F00A8426AD2BF49EC
:100F40000D700846006800F00F00A84202D0012092
:100F5000BDE8F081207810F0010F3AD060680128D8
:100F600006D1B1480068C0F3404090B90120EFE7D6
:100F70006068022806D1AC480068C0F3406040B900
:100F80000120E5E7A8480068C0F3400008B9012047
:100F9000DEE7A5480830006820F0030061680843D8
:100FA000A1490831086000F08FFA41F288314618F3
:100FB000606801280ED105E000F086FAB04201D346
:100FC0000320C5E798480830006800F00C000428AA
:100FD000F2D188E0606802280ED105E000F074FAD2
:100FE000B04201D30320B3E78F480830006800F017
:100FF0000C000828F2D176E005E000F065FAB04276
:1010000001D30320A4E788480830006810F00C0FD3
:10101000F3D168E0207810F0010F5AD06068012801
:1010200006D181480068C0F3404090B901208FE7A5
:101030006068022806D17C480068C0F3406040B96F
:10104000012085E778480068C0F3400008B9012016
:101050007EE775480830006820F0030061680843A7
:1010600071490831086000F02FFA41F288314618C2
:10107000606801280ED105E000F026FAB04201D3E5
:10108000032065E768480830006800F00C00042879
:10109000F2D11EE0606802280ED105E000F014FADB
:1010A000B04201D3032053E75F480830006800F0E6
:1010B0000C000828F2D10CE005E000F005FAB0427F
:1010C00001D3032044E758480830006810F00C0FA3
:1010D000F3D15A490D700846006800F00F00A8428D
:1010E00001D0012034E7207800F00200022809D165
:1010F0004D480830006820F0F000A16808434A49D4
:1011000008310860207800F00400042809D146481E
:101110000830006820F4E050E16808434249083193
:101120000860207800F0080008280AD13E480830FE
:10113000006820F46040216940EAC1003A49083162
:101140000860FFF7DBFE4FF47A71B0FBF1F7781E11
:10115000B0F1807F00D31DE0781E4FF0E0214861A0
:1011600048170F21002809DA0A074FEA126C344A9F
:1011700000F00F031B1F02F803C003E00A07130E61
:10118000304A135400BF00204FF0E021886107204F
:10119000086100BF0020DBE670B586B006460C464D
:1011A000154606BB20483030006840F001001E495B
:1011B00030310860881501900220029003200490CD
:1011C00000200390059001A91F4801F04DF8164832
:1011D0000830006820F0EC6044EA05010843124939
:1011E000083108601FE010483030006840F004000B
:1011F0000D4930310860481501900220029003200B
:10120000049000200390059001A9104801F02CF8EB
:1012100005480830006820F0784044EAC5010843DA
:1012200001490831086013E0003802400024F4004E
:1012300000127A00BAF4000800000020003C0240CE
:1012400018ED00E000E400E0000002400008024069
:1012500006B070BD01207649C8647047002074490B
:10126000C864704700B5FFF749FE7249096801F488
:10127000E0514FF4E05292FAA2F2B2FA82F2D14077
:101280006D4A515CC84000BD00B5FFF737FE6949A3
:10129000096801F460414FF4604292FAA2F2B2FA96
:1012A00082F2D140644A515CC84000BD0F21016008
:1012B00060490839096801F48021B1F5802F02D115
:1012C000052141600CE05B490839096801F480316F
:1012D000B1F5803F02D10121416001E00021416070
:1012E00054490839096811F0010F02D00121C16089
:1012F00001E00021C1604F490839096801F0F80197
:10130000F82292FAA2F2B2FA82F2D140016149497E
:101310006831096801F00401042902D105218160C6
:101320000AE044496831096811F0010F02D0012137
:10133000816001E0002181603E496C31096811F053
:10134000010F02D00121416101E0002141613949D1
:101350000839096801F08071B1F1807F02D1022162
:10136000816101E0012181613249091F096801F4AD
:101370008002C2612F49091F096801F03F02026221
:101380002C49091F096847F6C072114092FAA2F26F
:10139000B2FA82F2D14041622649091F096801F47C
:1013A000403101F5803149004FF4403292FAA2F207
:1013B000B2FA82F2D14081621E49091F096801F028
:1013C00070614FF0706292FAA2F2B2FA82F2D140EA
:1013D000C16270470F220260164A126802F00302CF
:1013E0004260144A126802F0F0028260114A1268E8
:1013F00002F4E052C2600F4A126802F46042D2085E
:1014000002610E4A126802F00F020A6070477047CC
:1014100010B50848001D006800F08000802805D144
:10142000FFF7F5FF80200349891D087010BD0000FB
:101430000000474208380240BAF40008003C02406D
:10144000704710B54C48006840F400704A49086085
:101450000846006840F4806008600846006840F470
:10146000807008604FF47A5005F06AFB032005F0A5
:10147000EBFAFFF7E5FF002010BD704710B54FF005
:10148000FF303E49086000200860401E091D0860CA
:1014900000200860401E39491039086000200860AB
:1014A000401E091D086000200860401E091D0860DC
:1014B00000200860FFF7E1FF002010BD3048006801
:1014C000401C2F49086070472E48006870472D481F
:1014D0000068704701B5FFF7F7FF009A811800BF59
:1014E000FFF7F2FF8842FBD308BD4FF080707047D2
:1014F00025480068000C704723480068C0F30B00C3
:1015000070472148406840F001001F49486070471B
:101510001D48406820F001001B49486070471A4888
:10152000406840F00200184948607047164840681B
:1015300020F002001449486070471348406840F0AA
:1015400004001149486070470F48406820F00400CB
:101550000D494860704701200C4908607047002021
:101560000A49086070470120094908627047002055
:101570000749086270470000003C024020380240E2
:10158000300000202C000020002004E0000427424E
:101590000000274230B503461479557944EA052006
:1015A000F74C0C442064D4782406957844EA05442A
:1015B000557844EA0524157844EA0500F04C0C44BB
:1015C000606430BD70B5AEB004460E46002526B14D
:1015D0004FF40061E160C900A160002011901290F9
:1015E0001390149015901690E06918B94FF480602C
:1015F000179001E0002017904FF400701890002021
:1016000019901A901B904FF000401C9000201D90E4
:1016100040201E9000201F90209021902290239027
:1016200024902590269080202790002028902990B3
:101630002A902B902C902D9020680568D148054069
:10164000DDE9110108431399084314990843A1687F
:1016500008431599084316990843E1680843179908
:10166000084318990843199908431A9908431B9984
:101670000843054320680560206805680120FFF7DE
:1016800029FF20680560DDE91C0108431E99084315
:101690001F99084320990843219908432299084338
:1016A0002399084321684860206845680120FFF7B6
:1016B00011FF20684560249821688860259821687A
:1016C000C860206885694FF641700540DDE9261045
:1016D00040EA014028990843299908432A99084378
:1016E0002B9908430543206885612068856901209E
:1016F000FFF7F0FE20688561DDE92C0108432168D1
:10170000C8612068C5690120FFF7E4FE2068C56153
:10171000002001904FF000700290002003904FF4E1
:101720000010049000200590069007900890042077
:101730000990C0050A9040120B9080010C90401255
:101740000D9080200E9000200F901090206800F5E2
:10175000805085698C480540DDE901010843039903
:1017600008430499084305990843069908430799D3
:10177000084308990843099908430543206800F580
:1017800080508561206800F5805085690120FFF751
:10179000A1FE206800F580508561DDE90A0108435B
:1017A0000C9908430D9908430E9908430F9940EA94
:1017B00081001099084340F40001206800F5805032
:1017C0000160206800F5805005680120FFF782FE67
:1017D000206800F580500560A069012809D12068C3
:1017E00000F58050C06969490843216801F58051BE
:1017F000C861002120466269FFF7CCFE2EB070BDA3
:1018000070472DE9F04704460025A846604EA946DA
:10181000002714B90120BDE8F08794F8440010B9FE
:101820002046FFF7EDFF5B48006840F480405949CF
:1018300008605948006820F40000574908600846CD
:101840000068216A084354490860206800F5805008
:10185000006840F00101206800F58050016000BF81
:10186000206800F58050006810F0010FF8D1206862
:10187000056925F01C05FFF741FB064647488642EF
:1018800005D34748864202D245F008051AE044488D
:10189000864205D33E48864202D245F00C0511E04F
:1018A0003B48864203D33F48864200D20AE03D4887
:1018B000864205D33C48864202D245F0040501E049
:1018C00045F010052068056139462046FFF77AFE8D
:1018D000012084F8440000209DE7704710B50446BD
:1018E000022084F844002046FFF7F7FF002084F828
:1018F000440000BF84F8450000BF10BD70B5044629
:101900000D461646002200BF94F84500012801D17B
:10191000022070BD012084F8450000BF022084F839
:101920004400E56200221BE005EB42114FF48010F9
:101930000860C2EBC21000EB400006EB800088603C
:10194000E06918B9086840F440000860581E9042E9
:1019500004D905EB42102030C86000E0CD60521C75
:101960009A42E1D3206800F580500561012084F897
:10197000440000BF002084F8450000BF00BFC8E756
:10198000008002400F8120FF233FDEF8400001006D
:10199000008793034438024004380140002D310190
:1019A000C00E160200E1F50580D1F00870B50446BE
:1019B0000D461646002200BF94F84500012801D1CB
:1019C000022070BD012084F8450000BF022084F889
:1019D0004400A56200221FE005EB42114FF00040D9
:1019E000086044F2F4504860C2EBC21000EB4000C3
:1019F00006EB80008860A069012803D1486820F0C8
:101A000000404860581E904204D905EB4210203037
:101A1000C86000E0CD60521C9A42DDD3206800F51A
:101A20008050C560012084F8440000BF002084F885
:101A3000450000BF00BFC4E770B502460023002583
:101A4000002400BF92F84500012801D1022070BD9A
:101A5000012082F8450000BF022082F8440049B905
:101A6000012082F8440000BF002082F8450000BF3A
:101A70000120ECE7D06A006810F0004F09D0122076
:101A800082F8440000BF002082F8450000BF01201A
:101A9000DDE740F2F450814208D9B1FBF0F3B1FB2D
:101AA000F0F600FB161010B15B1C00E00123012BC7
:101AB00013D1D06A006840F04050D66A3060C1F35C
:101AC0000C00D66A7060D06A006840F00040D66AA8
:101AD0003060D06AC068D06232E000242EE0D06A64
:101AE000006820F04050D66A30602CB9D06A006897
:101AF00040F08050D66A306040F2F450D66A706090
:101B0000581EA04210D1D06A006840F00050D66A3A
:101B10003060581EC0EBC01000EB4000A1EB800508
:101B2000C5F30C00D66A7060D06A006840F00040CF
:101B3000D66A3060D06AC068D062641C9C42CED342
:101B4000106800F58050406910F0040F09D0042699
:101B5000106800F5805046610026106800F580503E
:101B60004660012082F8440000BF002082F8450052
:101B700000BF00BF6BE70146002200BF91F845009F
:101B8000012801D102207047012081F8450000BFE3
:101B9000022081F84400886A006810F0004F38D1B4
:101BA000886A006810F4807F1ED0886B401C8863B0
:101BB000886B012801D1886A08638B6A4B63886A45
:101BC0000068C0F30D40021FCA63086B83680B6492
:101BD000886AC0688862012081F8440000BF002044
:101BE00081F8450000BFCEE7886A006810F4007FE6
:101BF00009D0886A086300234B6301238B63886ADA
:101C0000C068886205E0886B401C8863886AC06889
:101C10008862012081F8440000BF002081F845005F
:101C200000BF0120AFE70146002200BF91F8450048
:101C3000012801D102207047012081F8450000BF32
:101C4000022081F844003AE0521C886A006800F4DF
:101C50004070B0F5007F07D1886A086301238B6369
:101C6000886AC06888622AE0886A006810F4407F49
:101C700006D1886B401C8863886AC06888621EE051
:101C80008B6A4B63886B401C8863886B012801D189
:101C9000886A0863886A0068C0F30D40001FC86343
:101CA000086B83680B64886AC0688862012081F8C9
:101CB000440000BF002081F8450000BFBBE7886AF0
:101CC000006810F0004F01D1042ABDD3012081F833
:101CD000440000BF002081F8450000BF00BFAAE714
:101CE00070477047704710B50446206800F5805073
:101CF000406900F0400040280FD12046FFF7F2FF76
:101D00004021206800F580504161012084F84400A2
:101D100000BF002084F8450016E0206800F58050E0
:101D2000406910F0010F0FD02046FFF7DAFF0121C4
:101D3000206800F580504161012084F8440000BF14
:101D4000002084F8450000BF4FF48031206800F582
:101D500080504161206800F58050406900F40040E7
:101D6000B0F5004F10D12046FFF7BAFF4FF4004105
:101D7000206800F580504161012084F8440000BFD4
:101D8000002084F8450000BF10BD70B503460C4626
:101D900015460021002293F84400822801D1022038
:101DA00070BD822083F844001868016901F01C01AD
:101DB000188A4FF4784606EAC0200143701100EA01
:101DC0008410014321F0020141F001011868016112
:101DD00000BF521C1868016911F0010F03D04FF6C3
:101DE000FF708242F5D3A2F57F40FF3804D1012075
:101DF00083F844000320D3E7186840692880012055
:101E000083F844000020CBE770B503460C46154626
:101E10000021002293F84400422801D1022070BD25
:101E2000422083F844001868016901F01C01188AF7
:101E30004FF4784606EAC0200143701100EA84108E
:101E4000014341F0020141F00101A8B21E68706136
:101E50001868016100BF521C1868016911F0010F78
:101E600003D04FF6FF708242F5D3A2F57F40FF38D2
:101E700004D1012083F844000320D0E7012083F837
:101E800044000020CBE7016801F58051896941F0E9
:101E90000202016801F580518A617047016801F50D
:101EA0008051896941F40052016801F580518A61CD
:101EB000704738B5044600200090206800F5805037
:101EC000806940F48011206800F5805081612068AD
:101ED00000F58050806900900120FFF7FBFA00991F
:101EE000206800F58050816138BD38B50446002077
:101EF00000902068006840F00400216808602068B5
:101F0000006800900120FFF7E5FA0098216808605A
:101F100038BD38B50446002000902068006840F0C5
:101F20000800216808602068006800900120FFF721
:101F3000D1FA00982168086038BD10B5044600BF8A
:101F400094F84500012801D1022010BD012084F839
:101F5000450000BF022084F844002046FFF7D9FF67
:101F60002046FFF7C2FF2046FFF7A3FF2046FFF7FA
:101F700095FF2046FFF787FF012084F8440000BF4B
:101F8000002084F8450000BF00BFDEE738B50446F6
:101F9000002000902068006820F008002168086098
:101FA0002068006800900120FFF794FA00982168EB
:101FB000086038BD38B504460020009020680068ED
:101FC00020F004002168086020680068009001206B
:101FD000FFF780FA00982168086038BD016801F5B4
:101FE0008051896921F00202016801F580518A61FE
:101FF0007047016801F58051896921F40052016838
:1020000001F580518A61704710B5044600BF94F80D
:102010004500012801D1022010BD012084F84500AF
:1020200000BF022084F844002046FFF7E2FF20466C
:10203000FFF7D4FF2046FFF7BDFF2046FFF739FF2B
:102040002046FFF7A3FF012084F8440000BF0020D2
:1020500084F8450000BF00BFDEE770B505460C46BA
:10206000002600BF95F84500012801D1022070BD6F
:10207000012085F8450000BF022085F84400002CAF
:102080006DD02868066876480640D4E90001084308
:10209000A1680843E1680843A96808432169084327
:1020A00061690843E9680843A1690843E169084395
:1020B000216A0843616A0843A16A08430643286805
:1020C0000660286806680120FFF704FA28680660A1
:1020D000D4E90B010843616B0843A16B0843E16B32
:1020E0000843216C0843616C0843A16C08432968CC
:1020F0004860286846680120FFF7ECF928684660C8
:10210000E06C29688860206D2968C8602868866945
:102110004FF641700640B4F85410A06D40EA0140FB
:10212000E16D0843216E0843616E0843A16E0843C8
:10213000064328688661286886690120FFF7CAF986
:1021400028688661D4E91B0108432968C8612868AA
:10215000C6690120FFF7BEF92868C66110E028684B
:10216000066826F49046D5E902010843064328682C
:102170000660286806680120FFF7ACF92868066049
:10218000012085F8440000BF002085F8450000BF0D
:1021900000BF6CE770B505460C46002600BF95F8F9
:1021A0004500012801D1022070BD012085F84500BD
:1021B00000BF022085F84400286800F58050866939
:1021C00028480640D4E900010843A1680843E168B3
:1021D00008432169084361690843A1690843E1692B
:1021E0000843216A08430643286800F58050866149
:1021F000286800F5805086690120FFF76BF9286890
:1022000000F580508661D4E909010843E16A08437A
:10221000216B0843616B0843A16B40EA8100E16BCD
:10222000084340F40001286800F5805001602868E8
:1022300000F5805006680120FFF74CF9286800F58A
:1022400080500660012085F8440000BF002085F81A
:10225000450000BF00BFA7E7014691F84400704762
:102260000F8120FF233FDEF8F0B50A46002400234B
:102270000025002119E1012606FA01F4166806EA94
:102280000403A3427ED15668022E02D05668122E55
:1022900022D14F07FF0E166906FA07F5CF0800F1A5
:1022A000200656F827604F074FEAD76C0F2707FA2A
:1022B0000CF7BE434FEAD10C00F1200747F82C6021
:1022C000CF0800F1200656F827602E434FEAD10CC4
:1022D00000F1200747F82C6006684FEA410C0327FD
:1022E00007FA0CF7BE430660167906F003064F00A6
:1022F000BE4007683E4306605668012E08D0566807
:10230000022E05D05668112E02D05668122E19D111
:1023100086684FEA410C032707FA0CF7BE43866034
:102320004F00D668BE4087683E43866047680126F6
:102330008E40B743476046681779C7F300178F4050
:102340003E434660C6684FEA410C032707FA0CF784
:10235000BE43C6604F009668BE40C7683E43C66035
:10236000566806F08056B6F1805F8BD1934E366882
:1023700046F48046914F3E608E07370F0F2606FACF
:1023800007F500E090E08E4E8F0856F82770AF43B7
:102390004FEA910C46F82C708F0856F82760894F49
:1023A000B84201D100272DE0874FB84201D1012763
:1023B00028E0864FB84201D1022723E0844FB8427B
:1023C00001D103271EE0834FB84201D1042719E051
:1023D000814FB84201D1052714E0804FB84201D1A6
:1023E00006270FE07E4FB84201D107270AE07D4F54
:1023F000B84201D1082705E07B4FB84201D1092737
:1024000000E00A274FEA817C4FEA1C7C07FA0CF7B0
:102410003E436B4F4FEA910C47F82C60734E366881
:102420009E43724F3E603E1D36689E433F1D3E6098
:10243000566806F48036B6F5803F04D13E1F3668F4
:102440001E433F1F3E60566806F40036B6F5003F57
:1024500006D1664E361D36681E43644F3F1D3E60F2
:10246000624E083636689E43604F08373E603E1D18
:1024700036689E433F1D3E60566806F48016B6F5EA
:10248000801F04D13E1F36681E433F1F3E605668C2
:1024900006F40016B6F5001F06D1544E0C36366809
:1024A0001E43524F0C373E60491C1029FFF4E3AE27
:1024B000F0BDF0B502460B460024002100250020A7
:1024C00058E0012606FA00F403EA0401A14250D1C3
:1024D00016684FEA400C032707FA0CF7BE43166054
:1024E000C70802F1200656F8276047074FEAD76C65
:1024F0000F2707FA0CF7BE434FEAD00C02F1200772
:1025000047F82C6096684FEA400C032707FA0CF74F
:10251000BE439660576801268640B7435760D66829
:102520004FEA400C032707FA0CF7BE43D660860734
:10253000370F0F2606FA07F5214E870856F8277041
:10254000AF434FEA900C46F82C70284E36688E4305
:10255000264F3E603E1D36688E433F1D3E603E1D49
:1025600036688E433F1D3E603E1D36688E433F1DDC
:102570003E60401C1028A4D3F0BD024613690B42F4
:1025800001D0012000E0002070470AB1018300E083
:102590004183704742694A4042617047704710B5B5
:1025A0000446124814300068204205D00F48143009
:1025B00004602046FFF7F2FF10BD000044380240DF
:1025C00008380140000002400004024000080240B8
:1025D000000C0240001002400014024000180240AB
:1025E000001C02400020024000240240003C014048
:1025F00000220268FC4B98420ED0B0F1804F0BD005
:10260000FA4B984208D0FA4B984205D0F94B9842C1
:1026100002D0F94B984201D1012300E000231BB105
:1026200022F070024B681A43EF4B984220D0B0F171
:10263000804F1DD0ED4B98421AD0ED4B984217D0E9
:10264000EC4B984214D0EC4B984211D0EB4B984293
:102650000ED0EB4B98420BD0EA4B984208D0EA4B95
:10266000984205D0E94B984202D0E94B984201D1FB
:10267000012300E000231BB122F44072CB681A430F
:1026800002608B68C3620B688362D74B984202D0AA
:10269000D94B984201D1012300E000230BB10B6913
:1026A0000363012343617047704710B504460CB9BA
:1026B000012010BD94F8390010B92046FFF7F4FF4F
:1026C000022084F83900211D2068FFF791FF0120C6
:1026D00084F839000020ECE7704710B5044602206A
:1026E00084F8390000BF2068006A41F211110842E5
:1026F0000AD12068006A8910084205D12068006864
:1027000020F001002168086000BF2046FFF7E4FFC9
:10271000002084F8390000BF84F8380000BF10BDE5
:102720000146022081F839000868006840F0010085
:102730000A681060012081F83900002070470146C6
:10274000022081F8390000BF0868006A41F21112C6
:1027500010420AD10868006A9210104205D1086838
:10276000006820F001000A68106000BF012081F8B5
:1027700039000020704701460868C06840F0010039
:102780000A68D0600868006840F001000A681060BC
:102790000020704701460868C06820F001000A6800
:1027A000D06000BF0868006A41F2111210420AD1DD
:1027B0000868006A9210104205D10868006820F08D
:1027C00001000A68106000BF00207047704770B5B4
:1027D0000446A56B012085F839002846FFF7F6FF6F
:1027E00070BD704770B50446A56B012085F83900AF
:1027F0002846FFF7F6FF70BD70B504460E46154635
:1028000094F83900022800D170BD94F839000128ED
:1028100006D116B9002D00DDF6E7022084F8390054
:102820007C48E169C863AFF25900E16988642168B6
:1028300001F12C022B463146E06905F0C6FA20680A
:10284000C06840F480702168C8602068006840F06B
:102850000100216808600020D6E701460868C068CA
:1028600020F480700A68D06000BF0868006A41F2F6
:10287000111210420AD10868006A9210104205D164
:102880000868006820F001000A68106000BF01209D
:1028900081F8390000207047704710B504460CB924
:1028A000012010BD94F8390010B92046FFF7F4FF5D
:1028B000022084F83900211D2068FFF799FE0120CD
:1028C00084F839000020ECE7704710B50446022078
:1028D00084F8390000BF2068006A41F211110842F3
:1028E0000AD12068006A8910084205D12068006872
:1028F00020F001002168086000BF2046FFF7E4FFD8
:10290000002084F8390000BF84F8380000BF10BDF3
:1029100030B50023012404FA01F3046A9C430462E5
:10292000046A02FA01F52C43046230BD30B5044656
:102930000D46012229462068FFF7EAFF2A49206850
:10294000884203D02C492068884201D1012000E050
:10295000002028B12068406C40F4004021684864A1
:102960002068006840F0010021680860002030BD48
:1029700030B504460D46002229462068FFF7C8FFFF
:1029800019492068884203D01B492068884201D138
:10299000012000E0002090B100BF2068006A41F2F1
:1029A000111108420AD12068006A8910084205D135
:1029B0002068406C20F400402168486400BF00BFDC
:1029C0002068006A41F2111108420AD12068006AA9
:1029D0008910084205D12068006820F001002168B4
:1029E000086000BF002030BD00000140000400402E
:1029F00000080040000C004000040140004001407D
:102A0000004401400048014000180040001C004004
:102A100000200040E527000830B504460D4635B1DA
:102A2000042D0BD0082D10D00C2D1CD114E02068E3
:102A3000C06840F002002168C86015E02068C068E6
:102A400040F004002168C8600EE02068C06840F0D3
:102A500008002168C86007E02068C06840F01000E6
:102A60002168C86000E000BF00BF0122294620683D
:102A7000FFF74EFFFB492068884203D0FA492068DF
:102A8000884201D1012000E0002028B12068406C7C
:102A900040F40040216848642068006840F001006C
:102AA00021680860002030BD30B504460D4635B1C0
:102AB000042D0BD0082D10D00C2D1CD114E0206853
:102AC000C06820F002002168C86015E02068C06876
:102AD00020F004002168C8600EE02068C06820F083
:102AE00008002168C86007E02068C06820F0100076
:102AF0002168C86000E000BF00BF002229462068AE
:102B0000FFF706FFD7492068884203D0D6492068DE
:102B1000884201D1012000E0002090B100BF206870
:102B2000006A41F2111108420AD12068006A891036
:102B3000084205D12068406C20F4004021684864B8
:102B400000BF00BF2068006A41F2111108420AD19B
:102B50002068006A8910084205D12068006820F0CA
:102B600001002168086000BF002030BD704770B5CB
:102B70000446A56B012085F839002846FFF7F6FFCB
:102B800070BD2DE9F04104460E4615461F4694F8E7
:102B90003900022801D1BDE8F08194F839000128FC
:102BA00006D115B9002F00DDF5E7022084F83900C1
:102BB00036B1042E1BD0082E30D00C2E5CD144E050
:102BC000AFF25501206AC163AFF2FD31206A816422
:102BD000216801F134023B462946206A05F0F5F8E8
:102BE0002068C06840F400702168C86045E0AFF21A
:102BF0008101606AC163AFF22941606A8164216822
:102C000001F138023B462946606A05F0DEF820688B
:102C1000C06840F480602168C8602EE0AFF2B10166
:102C2000A06AC163AFF25941A06A8164216801F1D1
:102C30003C023B462946A06A05F0C7F82068C068F8
:102C400040F400602168C86017E0AFF2DD01E06A7F
:102C5000C163AFF28541E06A8164216801F14002FD
:102C60003B462946E06A05F0B0F82068C06840F4A9
:102C700080502168C86000E000BF00BF01223146DB
:102C80002068FFF745FE77492068884203D07649DF
:102C90002068884201D1012000E0002028B120688E
:102CA000406C40F40040216848642068006840F0AF
:102CB00001002168086000206DE730B504460D462C
:102CC00035B1042D0BD0082D10D00C2D1CD114E0E3
:102CD0002068C06820F400702168C86015E0206892
:102CE000C06820F480602168C8600EE02068C06879
:102CF00020F400602168C86007E02068C06820F404
:102D000080502168C86000E000BF00BF0022294653
:102D10002068FFF7FDFD53492068884203D05249DF
:102D20002068884201D1012000E0002090B100BF5E
:102D30002068006A41F2111108420AD12068006A35
:102D40008910084205D12068406C20F400402168B9
:102D5000486400BF00BF2068006A41F211110842B8
:102D60000AD12068006A8910084205D120680068ED
:102D700020F001002168086000BF012084F83900BC
:102D8000002030BD704710B504460CB9012010BDBD
:102D900094F8390010B92046FFF7F4FF022084F8B8
:102DA0003900211D2068FFF723FC012084F8390039
:102DB0000020ECE7704710B50446022084F8390083
:102DC00000BF2068006A41F2111108420AD1206850
:102DD000006A8910084205D12068006820F00100CF
:102DE0002168086000BF2046FFF7E4FF002084F858
:102DF000390000BF84F8380000BF10BD30B504466C
:102E00000D46012229462068FFF782FD15492068FA
:102E1000884203D014492068884201D1012000E093
:102E2000002028B12068406C40F4004021684864CC
:102E30002068006840F0010021680860002030BD73
:102E400030B504460D46002229462068FFF760FD94
:102E500004492068884203D003492068884205D18C
:102E6000012004E00000014000040140002090B176
:102E700000BF2068006A41F2111108420AD120689F
:102E8000006A8910084205D12068406C20F4004097
:102E90002168486400BF00BF2068006A41F2111138
:102EA00008420AD12068006A8910084205D12068CA
:102EB000006820F001002168086000BF012084F84C
:102EC0003900002030BD30B504460D4635B1042D23
:102ED0000BD0082D10D00C2D1CD114E02068C06838
:102EE00040F002002168C86015E02068C06840F02A
:102EF00004002168C8600EE02068C06840F0080047
:102F00002168C86007E02068C06840F010002168B0
:102F1000C86000E000BF00BF012229462068FFF71B
:102F2000F7FCF8492068884203D0F74920688842B6
:102F300001D1012000E0002028B12068406C40F45D
:102F40000040216848642068006840F00100216862
:102F50000860002030BD30B504460D4635B1042D63
:102F60000BD0082D10D00C2D1CD114E02068C068A7
:102F700020F002002168C86015E02068C06820F0D9
:102F800004002168C8600EE02068C06820F00800D6
:102F90002168C86007E02068C06820F01000216840
:102FA000C86000E000BF00BF002229462068FFF78C
:102FB000AFFCD4492068884203D0D34920688842B6
:102FC00001D1012000E0002090B100BF2068006A1C
:102FD00041F2111108420AD12068006A89100842A2
:102FE00005D12068406C20F400402168486400BF8F
:102FF00000BF2068006A41F2111108420AD120681E
:10300000006A8910084205D12068006820F001009C
:103010002168086000BF002030BD2DE9F041044662
:103020000E4615461F4694F83900022801D1BDE826
:10303000F08194F83900012806D115B9002F00DD80
:10304000F5E7022084F8390036B1042E1BD0082E93
:1030500030D00C2E5CD144E0AFF2ED41206AC16368
:10306000AFF69501206A8164216801F134023B4684
:103070002946206A04F0A9FE2068C06840F4007068
:103080002168C86045E0AFF21951606AC163AFF6CC
:10309000C101606A8164216801F138023B4629461A
:1030A000606A04F092FE2068C06840F48060216885
:1030B000C8602EE0AFF24951A06AC163AFF6F101DA
:1030C000A06A8164216801F13C023B462946A06A5E
:1030D00004F07BFE2068C06840F400602168C8608E
:1030E00017E0AFF27551E06AC163AFF61D11E06AF7
:1030F0008164216801F140023B462946E06A04F000
:1031000064FE2068C06840F480502168C86000E018
:1031100000BF00BF012231462068FFF7F9FB794963
:103120002068884203D078492068884201D1012074
:1031300000E0002028B12068406C40F40040216885
:1031400048642068006840F00100216808600020A1
:103150006DE730B504460D4635B1042D0BD0082D72
:1031600010D00C2D1CD114E02068C06820F4007031
:103170002168C86015E02068C06820F4806021687C
:10318000C8600EE02068C06820F400602168C86054
:1031900007E02068C06820F480502168C86000E023
:1031A00000BF00BF002229462068FFF7B1FB554948
:1031B0002068884203D054492068884201D1012008
:1031C00000E0002090B100BF2068006A41F21111B8
:1031D00008420AD12068006A8910084205D1206897
:1031E000406C20F400402168486400BF00BF2068A4
:1031F000006A41F2111108420AD12068006A891060
:10320000084205D12068006820F0010021680860AC
:1032100000BF012084F83900002030BD704710B590
:1032200004460CB9012010BD94F8390010B92046AD
:10323000FFF7F4FF022084F83900211D2068FFF712
:10324000D7F9012084F839000020ECE7704710B569
:103250000446022084F8390000BF2068006A41F269
:10326000111108420AD12068006A8910084205D16C
:103270002068006820F001002168086000BF204637
:10328000FFF7E4FF002084F8390000BF84F838001D
:1032900000BF10BD30B504460D4601222946206806
:1032A000FFF736FB2068006840F0010021680860E5
:1032B000002030BD30B504460D4600222946206866
:1032C000FFF726FB00BF2068006A41F21111084297
:1032D0000AD12068006A8910084205D12068006878
:1032E00020F001002168086000BF002030BD30B52B
:1032F00004460D4655B1042D0FD0082D14D00C2DC9
:1033000020D118E000000140000401402068C0689E
:1033100040F002002168C86015E02068C06840F0F5
:1033200004002168C8600EE02068C06840F0080012
:103330002168C86007E02068C06840F0100021687C
:10334000C86000E000BF00BF012229462068FFF7E7
:10335000DFFA2068006840F0010021680860002062
:1033600030BD30B504460D4635B1042D0BD0082DC7
:1033700010D00C2D1CD114E02068C06820F0020091
:103380002168C86015E02068C06820F0040021684A
:10339000C8600EE02068C06820F008002168C8609E
:1033A00007E02068C06820F010002168C86000E0D5
:1033B00000BF00BF002229462068FFF7A9FA00BF1E
:1033C0002068006A41F2111108420AD12068006A9F
:1033D0008910084205D12068006820F001002168AA
:1033E000086000BF002030BD704770B50446A56B73
:1033F000012085F839002846FFF7F6FF70BD2DE95A
:10340000F04104460D4616461F4694F8390002283E
:1034100001D1BDE8F08194F83900012806D116B930
:10342000002F00DDF5E7022084F8390035B1042DC6
:103430001BD0082D30D00C2D5CD144E0AFF25501EB
:10344000206AC163AFF67941206A8164226802F183
:1034500034013B463246206A04F0B7FC2068C0685D
:1034600040F400702168C86045E0AFF28101606AF5
:10347000C163AFF6A541606A8164226802F1380138
:103480003B463246606A04F0A0FC2068C06840F405
:1034900080602168C8602EE0AFF2B101A06AC1630C
:1034A000AFF6D541A06A8164226802F13C013B4637
:1034B0003246A06A04F089FC2068C06840F40060CD
:1034C0002168C86017E0AFF2DD01E06AC163AFF6C2
:1034D0000151E06A8164226802F140013B463246B4
:1034E000E06A04F072FC2068C06840F480502168F3
:1034F000C86000E000BF00BF012229462068FFF736
:1035000007FA2068006840F0010021680860002088
:103510007FE730B504460D4635B1042D0BD0082D9C
:1035200010D00C2D1CD114E02068C06820F400706D
:103530002168C86015E02068C06820F480602168B8
:10354000C8600EE02068C06820F400602168C86090
:1035500007E02068C06820F480502168C86000E05F
:1035600000BF00BF002229462068FFF7D1F900BF45
:103570002068006A41F2111108420AD12068006AED
:103580008910084205D12068006820F001002168F8
:10359000086000BF012084F83900002030BD70476A
:1035A00070B504460D460CB9012070BD94F8390081
:1035B00010B92046FFF7F3FF022084F83900211DDF
:1035C0002068FFF715F82068006820F008002168DF
:1035D000086020680068284321680860012084F89A
:1035E00039000020E1E7704710B50446022084F856
:1035F000390000BF2068006A41F2111108420AD167
:103600002068006A8910084205D12068006820F00F
:1036100001002168086000BF2046FFF7E4FF00209A
:1036200084F8390000BF84F8380000BF10BD30B501
:1036300004460D46012200212068FFF769F90122A6
:1036400004212068FFF764F9FA492068884203D012
:10365000F9492068884201D1012000E0002028B10A
:103660002068406C40F4004021684864002030BD70
:1036700030B504460D46002211462068FFF748F990
:10368000002204212068FFF743F9EA4920688842B4
:1036900003D0E9492068884201D1012000E00020E0
:1036A00090B100BF2068006A41F2111108420AD1AE
:1036B0002068006A8910084205D12068406C20F417
:1036C00000402168486400BF00BF2068006A41F2E2
:1036D000111108420AD12068006A8910084205D1F8
:1036E0002068006820F001002168086000BF002009
:1036F00030BD30B504460D462068C06840F0020079
:103700002168C8602068C06840F004002168C86073
:10371000012200212068FFF7FBF801220421206824
:10372000FFF7F6F8C3492068884203D0C2492068F1
:10373000884201D1012000E0002028B12068406CBF
:1037400040F4004021684864002030BD30B5044694
:103750000D462068C06820F002002168C86020681B
:10376000C06820F004002168C8600022114620686B
:10377000FFF7CEF8002204212068FFF7C9F8AD4911
:103780002068884203D0AC492068884201D10120DA
:1037900000E0002090B100BF2068006A41F21111E2
:1037A00008420AD12068006A8910084205D12068C1
:1037B000406C20F400402168486400BF00BF2068CE
:1037C000006A41F2111108420AD12068006A89108A
:1037D000084205D12068006820F0010021680860D7
:1037E00000BF002030BD70472DE9F04104460D4672
:1037F0004FF000080026002714B90120BDE8F08131
:1038000094F8390010B92046FFF7EDFF022084F844
:1038100039002068806820F0070021688860211D39
:103820002068FEF7E5FE2068D0F8088020688669E9
:103830002068076A286840EA080840F20330864397
:10384000A969A86840EA0120064340F60C40864377
:103850004FF2F0008643E969E86840EA0120064338
:1038600028690001296A40EA0130064327F022074F
:1038700027F088076969686840EA011007432068F3
:10388000C0F808802068866120680762012084F8FB
:1038900039000020B2E7704710B50446022084F8D2
:1038A000390000BF2068006A41F2111108420AD1B4
:1038B0002068006A8910084205D12068006820F05D
:1038C00001002168086000BF2046FFF7E4FF0020E8
:1038D00084F8390000BF84F8380000BF10BD30B54F
:1038E00004460D4615B1042D0CD105E0012200213E
:1038F0002068FFF70DF810E0012204212068FFF78F
:1039000007F80AE0012200212068FFF701F80122F0
:1039100004212068FEF7FCFF00BF00BF206800689C
:1039200040F0010021680860002030BD30B5044639
:103930000D4615B1042D0CD105E00022114620687A
:10394000FEF7E6FF10E0002204212068FEF7E0FF0A
:103950000AE0002211462068FEF7DAFF0022042167
:103960002068FEF7D5FF00BF00BF00BF2068006AD7
:1039700041F2111108420AD12068006A89100842F8
:1039800005D12068006820F001002168086000BFB0
:10399000002030BD30B504460D4615B1042D18D1B8
:1039A0000BE0012200212068FEF7B2FF2068C0680A
:1039B00040F002002168C86022E001220421206852
:1039C000FEF7A6FF2068C06840F004002168C860C8
:1039D00016E0012200212068FEF79AFF012204214F
:1039E0002068FEF795FF2068C06840F0020021685B
:1039F000C8602068C06840F004002168C86000BF4B
:103A000000BF2068006840F00100216808600020C5
:103A100030BD30B504460D4685B9002211462068F8
:103A2000FEF776FF2068C06820F002002168C860B9
:103A300028E000000000014000040140042D0BD1EB
:103A4000002204212068FEF763FF2068C06820F090
:103A500004002168C86015E0002211462068FEF7C6
:103A600057FF002204212068FEF752FF2068C0683B
:103A700020F002002168C8602068C06820F00400BF
:103A80002168C86000BF2068006A41F21111084235
:103A90000AD12068006A8910084205D120680068B0
:103AA00020F001002168086000BF012084F839007F
:103AB000002030BD2DE9F04104460E4617461D4654
:103AC000DDF8188094F83900022801D1BDE8F081B2
:103AD00094F83900012809D107B125B9B8F1000FD0
:103AE00001DD0120F2E7022084F8390026B1042E1E
:103AF00023D0182E7ED141E0AFF21171206AC1634C
:103B0000FE49206A8164226802F1340143463A4644
:103B1000206A04F05AF92068C06840F400702168F7
:103B2000C8602068006840F0010021680860012238
:103B300000212068FEF7ECFE5DE0AFF25171606A93
:103B4000C163EE49606A8164226802F1380143462C
:103B50002A46606A04F039F92068C06840F4806041
:103B60002168C8602068006840F001002168086092
:103B7000012204212068FEF7CBFE3CE0AFF29571F4
:103B8000206AC163DD49206A8164226802F1340140
:103B900043463A46206A04F018F9AFF2B171606A00
:103BA000C163D649606A8164226802F138014346E4
:103BB0002A46606A04F009F92068006840F00100B4
:103BC00021680860012200212068FEF7A1FE012281
:103BD00004212068FEF79CFE2068C06840F4007055
:103BE0002168C8602068C06840F480602168C860AF
:103BF00001E0FFE700BF00BF002067E730B50446E3
:103C00000D465DB9002211462068FEF781FE20684E
:103C1000C06820F400702168C86023E0042D0BD137
:103C2000002204212068FEF773FE2068C06820F49B
:103C300080602168C86015E0002211462068FEF708
:103C400067FE002204212068FEF762FE2068C0683B
:103C500020F400702168C8602068C06820F480608B
:103C60002168C86000BF2068006A41F21111084253
:103C70000AD12068006A8910084205D120680068CE
:103C800020F001002168086000BF012084F839009D
:103C9000002030BD7047704710B5044620680069A9
:103CA000C0F34000E8B12068C068C0F34000C0B174
:103CB0002068006920F00200216808610120207658
:103CC0002068806910F0030F03D02046FFF78CFBBB
:103CD00005E02046FFF7DFFF2046FEF747FF002004
:103CE000207620680069C0F38000E8B12068C068D1
:103CF000C0F38000C0B12068006920F00400216892
:103D00000861022020762068806910F4407F03D08B
:103D10002046FFF769FB05E02046FFF7BCFF204681
:103D2000FEF724FF0020207620680069C0F3C00061
:103D3000E8B12068C068C0F3C000C0B12068006965
:103D400020F008002168086104202076206880693E
:103D500010F0030F03D02046FFF746FB05E0204696
:103D6000FFF799FF2046FEF701FF0020207620682C
:103D70000069C0F30010E8B12068C068C0F300100B
:103D8000C0B12068006920F0100021680861082097
:103D900020762068806910F4407F03D02046FFF72A
:103DA00023FB05E02046FFF776FF2046FEF7DEFE08
:103DB000002020762068006910F0010F1CD02068D8
:103DC000C06810F0010F17D02068006920F00100D2
:103DD000216808612046FEF704FD2068B0F1804F9D
:103DE00005D147480088401C4549088004E0454803
:103DF0000068401C4349086020680069C0F3C01097
:103E000068B12068C068C0F3C01040B12068006984
:103E100020F0800021680861204601F0A7FD20689D
:103E20000069C0F3801068B12068C068C0F38010DA
:103E300040B12068006920F04000216808612046F8
:103E4000FFF728FF20680069C0F3401068B12068C0
:103E5000C068C0F3401040B12068006920F0200025
:103E600021680861204601F0BCFC10BD30B500227D
:103E700000230024056A25F480550562036A44681E
:103E8000C26922F4E04222F440720D6842EA05223F
:103E900023F400538D6843EA05331B4DA84202D03A
:103EA0001A4DA84201D1012500E0002525B124F4D6
:103EB00080444D6944EA85144460C2614D680564DC
:103EC000036230BD30B5002400220023056A25F4CA
:103ED00080750562026A4368C46924F0700424F0A6
:103EE00003040D682C4322F400728D6842EA052217
:103EF000054DA8420DD0054DA84209E0CF27000886
:103F0000280000202C000020000001400004014097
:103F100001D1012500E0002585B122F40062CD68C1
:103F200042EA052222F4806223F4805323F40053F2
:103F30004D6943EA05138D6943EA05134360C46183
:103F40004D68C563026230BD30B5002400220023F5
:103F5000056A25F010050562026A4368846924F445
:103F6000E04424F440740D6844EA052422F0200261
:103F70008D6842EA0512FE4DA84202D0FD4DA842CE
:103F800001D1012500E0002585B122F08002CD6835
:103F900042EA051222F0400223F4806323F4006316
:103FA0004D6943EA85038D6943EA85034360846173
:103FB0004D688563026230BD30B5002400220023C5
:103FC000056A25F001050562026A4368846924F0E8
:103FD000700424F003040D682C4322F002028D6863
:103FE0002A43E34DA84202D0E24DA84201D1012567
:103FF00000E000256DB122F00802CD682A4322F0CE
:10400000040223F4807323F400734D692B438D69FC
:104010002B43436084614D684563026230BD70B5D7
:1040200004460E46154600BF94F83800012801D119
:10403000022070BD012084F8380000BF022084F8FF
:10404000390035B1042D09D0082D0CD00C2D14D118
:104050000EE031462068FFF7AFFF0FE031462068E1
:10406000FFF772FF0AE031462068FFF72BFF05E0FB
:1040700031462068FFF7FAFE00E000BF00BF0120D4
:1040800084F8390000BF002084F8380000BF00BF6A
:10409000CFE770B50C46154600210022066A26F4CB
:1040A00080560662C169026A21F4407141EA052125
:1040B00021F4704141EA033122F4204242EA043201
:1040C000C161026270BD70B50C4615460021002228
:1040D000066A26F480760662C169026A21F003014D
:1040E000294321F0F00141EA031122F4206242EA5F
:1040F0000422C161026270BD70B50C4615460021F4
:104100000022066A26F0100606628169026A21F41E
:10411000407141EA052121F4704141EA033122F066
:10412000A00242EA04128161026270BD70B50C46C1
:10413000154600210022066A26F001060662816902
:10414000026A8B4EB04214D0B0F1804F11D08A4E2B
:10415000B0420ED0894EB0420BD0894EB04208D04A
:10416000844EB04205D0874EB04202D0864EB04257
:1041700001D1012600E000261EB121F003012943F0
:1041800003E021F0030141F0010121F0F00141EAD7
:10419000031122F00A0222438161026270BD2DE9FF
:1041A000F04104460D46164600BF94F83800012839
:1041B00002D10220BDE8F081012084F8380000BF60
:1041C000022084F8390096B9EB68D5E9001220681E
:1041D000FFF7ACFF2068806920F00C00216888613F
:1041E00020688069A9680843216888613DE0042E41
:1041F00013D1EB68D5E900122068FFF77DFF206836
:10420000806920F440602168886120688069A9681D
:1042100040EA01202168886127E0082E12D1EB686E
:10422000D5E900122068FFF74EFF2068C06920F032
:104230000C002168C8612068C069A968084321682A
:10424000C86112E0EB68D5E900122068FFF721FF92
:104250002068C06920F440602168C8612068C06996
:10426000A96840EA01202168C861012084F839006A
:1042700000BF002084F8380000BF00BF9AE770B587
:1042800004460D46164600BF94F83800012801D1B7
:10429000022070BD012084F8380000BF022084F89D
:1042A000390036B1042E1BD0082E31D00C2E6DD122
:1042B00045E029462068FFF77FFE2068806940F0CE
:1042C0000800216888612068806920F00400216866
:1042D000886120688069296908432168886156E0FF
:1042E00029462068FFF730FE2068806940F40060AE
:1042F000216888612068806920F480602168886175
:1043000020688069296940EA0120216888613EE0CF
:1043100029462068FFF7D6FD2068C06940F00800F4
:104320002168C8612068C06920F004002168C86164
:104330002068C069296908432168C86127E02946C7
:104340002068FFF793FD2068C06940F40060216891
:10435000C8612068C06920F480602168C861206855
:10436000C069296940EA01202168C8610FE00DE0B9
:10437000000001400004014000040040000800402B
:10438000000C0040004001400018004000BF00BF8A
:10439000012084F8390000BF002084F8380000BFF5
:1043A00000BF76E7F0B587B004460D4616461F46B7
:1043B000BE4278D000BF94F83800012802D1022014
:1043C00007B0F0BD012084F8380000BF022084F857
:1043D00039002868009068680190A8680290E86831
:1043E0000390286905906869069016B1042E0AD1D9
:1043F00004E069462068FFF7DFFD05E069462068B4
:10440000FFF7A2FD00E000BF00BF17B1042F4BD1A2
:1044100024E0D5E90723A9692068FFF787FE206813
:10442000806920F00C00216888612068806820F095
:104430007000216888602068806840F05000216822
:1044400088602068806820F0070021688860206804
:10445000806840F006002168886026E0D5E90723DF
:10446000A9692068FFF748FE2068806920F4406051
:10447000216888612068806820F070002168886069
:104480002068806840F0600021688860206880684B
:1044900020F00700216888602068806840F00600EE
:1044A0002168886001E00AE000BF00BF012084F8B5
:1044B000390000BF002084F8380000BF80E70120E9
:1044C0007EE770B50446A56B012085F839002846C3
:1044D000FFF7E0FB70BD2DE9F04104468846164623
:1044E0001F46069D94F83900022801D1BDE8F081ED
:1044F00094F83900012805D10FB905B1F6E702207B
:1045000084F83900B6F5006F47D009DCB6F5807F36
:1045100010D0B6F5007F1ED0B6F5806F70D12BE0BD
:10452000B6F5805F4AD0B6F5005F58D0B6F5804F3B
:1045300078D166E0F848E169C863F848E1698864C1
:10454000012101EB1523216801F14C023946E06994
:1045500003F03BFC67E0F249206AC163EF49206A3F
:104560008164012101EB1523216801F14C023946D8
:10457000206A03F02AFC56E0E949606AC163E74912
:10458000606A8164012101EB1523216801F14C026D
:104590003946606A03F019FC45E0E149A06AC1634D
:1045A000DE49A06A8164012101EB1523216801F134
:1045B0004C023946A06A03F008FC34E0D849E06AAE
:1045C000C163D649E06A8164012101EB15232168AA
:1045D00001F14C023946E06A03F0F7FB23E0D149D0
:1045E000206BC163CD49206B8164012101EB152350
:1045F000216801F14C023946206B03F0E6FB12E022
:1046000010E0C949606BC163C449606B81640121DA
:1046100001EB1523216801F14C023946606B03F070
:10462000D4FB00E000BF00BF48EA050021688864B1
:104630002068C06830432168C860012084F83900D0
:10464000002053E702461068C06888431368D860AA
:10465000002070472DE9F0410446884616461F4663
:10466000069D94F83900022801D1BDE8F08194F844
:104670003900012805D10FB905B1F6E7022084F809
:104680003900B6F5006F47D009DCB6F5807F10D051
:10469000B6F5007F1ED0B6F5806F70D12BE0B6F571
:1046A000805F4AD0B6F5005F58D0B6F5804F78D11C
:1046B00066E09948E169C8639848E1698864012225
:1046C00002EB1523226802F14C013A46E06903F03F
:1046D0007CFB67E09549206AC1639049206A816448
:1046E000012202EB1523226802F14C013A46206AAE
:1046F00003F06BFB56E08D49606AC1638749606ACD
:104700008164012202EB1523226802F14C013A4632
:10471000606A03F05AFB45E08449A06AC1637F499F
:10472000A06A8164012202EB1523226802F14C0188
:104730003A46A06A03F049FB34E07C49E06AC16371
:104740007649E06A8164012202EB1523226802F1B6
:104750004C013A46E06A03F038FB23E07149206BD4
:10476000C1636E49206B8164012202EB152322682C
:1047700002F14C013A46206B03F027FB12E010E0F7
:104780006949606BC1636549606B8164012202EB1A
:104790001523226802F14C013A46606B03F015FBC9
:1047A00000E000BF00BF48EA050021688864206877
:1047B000C06830432168C860012084F839000020B7
:1047C00053E702461068C06888431368D860002029
:1047D0007047024600BF92F83800012801D102203C
:1047E0007047012082F8380000BF022082F83900AB
:1047F00010684161012082F8390000BF002082F872
:10480000380000BF00BFEBE730B50C4600218168DF
:1048100021F47F4142EA032525432943816030BDCD
:104820002DE9F04104460D46164600BF94F83800C5
:10483000012802D10220BDE8F081012084F838006F
:1048400000BF022084F839006868012805D1D5E945
:104850000313AA682068FFF7D7FF36B1042E14D0DF
:10486000082E22D00C2E40D12FE0286830B12068CD
:10487000806940F080002168886105E020688069D7
:1048800020F080002168886130E0286830B120681D
:10489000806940F400402168886105E020688069F3
:1048A00020F400402168886120E0286830B1206849
:1048B000C06940F080002168C86105E02068C069D7
:1048C00020F080002168C86110E0286830B12068BD
:1048D000C06940F400402168C86105E02068C069F3
:1048E00020F400402168C86100E000BF00BF012043
:1048F00084F8390000BF002084F8380000BF00BFF2
:1049000099E70A460021816821F0700142F007030F
:104910001943816070470000E5270008CF27000891
:104920006F2B0008E5570008C3440008EB3300086C
:1049300030B50B46144600210022026A056A25F0B4
:1049400001050562816921F0F00141EA041122F0BC
:104950000A021A438161026230BD30B50B4614462B
:1049600000210022056A25F0100505628169026AAE
:1049700021F4704141EA043122F0A00242EA03121C
:104980008161026230BD2DE9F04104460D460026EA
:1049900000BF94F83800012802D10220BDE8F08160
:1049A000012084F8380000BF022084F83900206814
:1049B000866826F0770626F47F4620688660286899
:1049C00050283BD00CDC202860D004DC002853D0D9
:1049D000102865D155E030285DD0402860D141E0F5
:1049E000602835D070280DD0B0F5805F03D0B0F5C9
:1049F000005F55D115E02068806820F0070021682D
:104A000088604EE0D5E902136A682068FFF7FCFE73
:104A10002068866826F0770646F07706206886606C
:104A20003FE0D5E902136A682068FFF7EDFE2068D1
:104A3000806840F480402168886032E0EA686968F4
:104A40002068FFF775FF50212068FFF75AFF28E024
:104A5000EA6869682068FFF780FF60212068FFF737
:104A600050FF1EE0EA6869682068FFF761FF402197
:104A70002068FFF746FF14E000212068FFF741FFA0
:104A80000FE010212068FFF73CFF0AE0202120689A
:104A9000FFF737FF05E030212068FFF732FF00E025
:104AA00000BF00BF012084F8390000BF002084F857
:104AB000380000BF00BF71E702460B4600211068B6
:104AC000416821F08001194310684160002070475F
:104AD0002DE9F04104460D4600260027B04600BFF0
:104AE00094F83800012802D10220BDE8F0810120AD
:104AF00084F8380000BF022084F8390020688668F6
:104B000026F070066868064326F007062868064304
:104B100020688660686810F00F0F35D100110828F2
:104B200032D2DFE800F02D2E2F300B212704D5E9FB
:104B30000313AA682068FFF767FE26E02068D0F814
:104B400020802068006A20F0010021680862206847
:104B5000876927F0F007286947EA0017206887610E
:104B60002068C0F8208010E02A69A9682068FFF753
:104B7000DFFE0AE02A69A9682068FFF7EEFE04E07C
:104B800003E002E001E000E000BF00BF012084F884
:104B9000390000BF002084F8380000BF00BFA4E740
:104BA0000246002300BF92F83800012801D10220FC
:104BB0007047012082F8380000BF31B1042907D0C6
:104BC000082908D00C290CD108E01068436B09E0D3
:104BD0001068836B06E01068C36B03E01068036C19
:104BE00000E000BF00BF00BF002082F8380000BF17
:104BF0001846DDE7014691F839007047014691F803
:104C000039007047014691F839007047014691F824
:104C100039007047014691F839007047014691F814
:104C200039007047704730B587B004460D4614B957
:104C3000012007B030BD022084F839002046FFF77C
:104C4000F1FF211D2068FDF7D3FCAB682968032222
:104C50002068FFF76BFA2068806920F00C0021685B
:104C600088612068806969680843216888612068D4
:104C7000406840F08000216848602068806820F02B
:104C80007000216888602068806840F040002168DA
:104C900088602068806820F00700216888602068AC
:104CA000806840F00400216888600020049005902E
:104CB000702000900020069003900290E868019018
:104CC00069462068FFF740F92068406820F07000CE
:104CD000216848602068406840F0500021684860C2
:104CE000012084F839000020A3E7704710B504467E
:104CF000022084F8390000BF2068006A41F21111D7
:104D000008420AD12068006A8910084205D120684B
:104D1000006820F001002168086000BF2046FFF70E
:104D2000E4FF002084F8390000BF84F8380000BF99
:104D300010BD10B50446012200212068FDF7E8FDF2
:104D40002068006840F0010021680860002010BD64
:104D500010B50446002211462068FDF7D9FD00BFBA
:104D60002068006A41F2111108420AD12068006AE5
:104D70008910084205D12068006820F001002168F0
:104D8000086000BF002010BD10B504462068C06850
:104D900040F002002168C860012200212068FDF770
:104DA000B7FD2068006840F001002168086000201D
:104DB00010BD10B50446002211462068FDF7A8FD7D
:104DC0002068C06820F002002168C86000BF206829
:104DD000006A41F2111108420AD12068006A891064
:104DE000084205D12068006820F0010021680860B1
:104DF00000BF002010BD70B504460D46164694F85D
:104E00003900022800D170BD94F83900012806D17C
:104E100015B9002E00DDF6E7022084F839000122E2
:104E200000212068FDF774FDFE49206AC163FE4938
:104E3000206A8164226802F1340133462A46206ADE
:104E400002F0C3FF2068C06840F400702168C860A9
:104E50002068006840F00100216808600020D2E767
:104E600010B50446002211462068FDF751FD206868
:104E7000C06820F400702168C86000BF2068006A24
:104E800041F2111108420AD12068006A89100842D3
:104E900005D12068006820F001002168086000BF8B
:104EA000002010BD30B50023042404FA01F3046A85
:104EB0009C430462046A02FA01F52C43046230BD8B
:104EC00070B504460D46042229462068FFF7EAFF24
:104ED0002068406C40F40040216848642068006805
:104EE00040F0010021680860002070BD70B50446E4
:104EF0000D46002229462068FFF7D4FF00BF206836
:104F0000006A41F2111108420AD12068006A891032
:104F1000084205D12068406C20F4004021684864B4
:104F200000BF00BF2068006A41F2111108420AD197
:104F30002068006A8910084205D12068006820F0C6
:104F400001002168086000BF002070BD70B50446F4
:104F50000D4635B1042D0BD0082D10D00C2D1CD1D1
:104F600014E02068C06840F002002168C86015E0C5
:104F70002068C06840F004002168C8600EE0206826
:104F8000C06840F008002168C86007E02068C06879
:104F900040F010002168C86000E000BF00BF04229C
:104FA00029462068FFF77EFF2068406C40F40040EF
:104FB000216848642068006840F0010021680860AA
:104FC000002070BD70B504460D4635B1042D0BD0E0
:104FD000082D10D00C2D1CD114E02068C06820F0E2
:104FE00002002168C86015E02068C06820F0040055
:104FF0002168C8600EE02068C06820F008002168C1
:10500000C86007E02068C06820F010002168C86010
:1050100000E000BF00BF002229462068FFF742FFE2
:1050200000BF2068006A41F2111108420AD12068CD
:10503000006A8910084205D12068406C20F40040C5
:105040002168486400BF00BF2068006A41F2111166
:1050500008420AD12068006A8910084205D12068F8
:10506000006820F001002168086000BF002070BDCA
:105070002DE9F04104460E4615461F4694F83900C6
:10508000022801D1BDE8F08194F83900012806D149
:1050900015B9002F00DDF5E7022084F8390036B19C
:1050A000042E19D0082E2CD00C2E54D13EE05F498E
:1050B000206AC1635C49206A8164216801F134027D
:1050C0003B462946206A02F080FE2068C06840F412
:1050D00000702168C8603FE05449606AC16352496A
:1050E000606A8164216801F138023B462946606AA2
:1050F00002F06BFE2068C06840F480602168C860E0
:105100002AE04A49A06AC1634749A06A81642168CC
:1051100001F13C023B462946A06A02F056FE206897
:10512000C06840F400602168C86015E03F49E06A4B
:10513000C1633D49E06A8164216801F140023B4658
:105140002946E06A02F041FE2068C06840F48050C1
:105150002168C86000E000BF00BF0422314620681B
:10516000FFF7A0FE2068406C40F4004021684864CE
:105170002068006840F0010021680860002081E795
:1051800070B504460D4635B1042D0BD0082D10D056
:105190000C2D1CD114E02068C06820F40070216838
:1051A000C86015E02068C06820F480602168C8608D
:1051B0000EE02068C06820F400602168C86007E045
:1051C0002068C06820F480502168C86000E000BFFB
:1051D00000BF002229462068FFF764FE00BF206858
:1051E000006A41F2111108420AD12068006A891050
:1051F000084205D12068406C20F4004021684864D2
:1052000000BF00BF2068006A41F21111084211D1AD
:105210002068006A891008420CD12068006820F0DC
:10522000010005E0EB330008CF2700086F2B0008D2
:105230002168086000BF012084F83900002070BD9B
:1052400070B504460D46042229462068FFF72AFE61
:105250002068406C40F40040216848642068006881
:1052600040F0010021680860002070BD70B5044660
:105270000D46002229462068FFF714FE00BF206873
:10528000006A41F2111108420AD12068006A8910AF
:10529000084205D12068406C20F400402168486431
:1052A00000BF00BF2068006A41F2111108420AD114
:1052B0002068006A8910084205D12068006820F043
:1052C00001002168086000BF002070BD70B5044671
:1052D0000D4635B1042D0BD0082D10D00C2D1CD14E
:1052E00014E02068C06840F002002168C86015E042
:1052F0002068C06840F004002168C8600EE02068A3
:10530000C06840F008002168C86007E02068C068F5
:1053100040F010002168C86000E000BF00BF2068B6
:10532000C06840F080002168C860042229462068D7
:10533000FFF7B8FD2068406C40F4004021684864E5
:105340002068006840F0010021680860002070BDFE
:1053500070B504460D4635B1042D0BD0082D10D084
:105360000C2D1CD114E02068C06820F002002168D8
:10537000C86015E02068C06820F004002168C8609B
:105380000EE02068C06820F008002168C86007E0CF
:105390002068C06820F010002168C86000E000BFED
:1053A00000BF2068C06820F080002168C86000222B
:1053B00029462068FFF776FD00BF2068006A41F2A9
:1053C000111108420AD12068006A8910084205D1EB
:1053D0002068406C20F400402168486400BF00BF92
:1053E0002068006A41F2111108420AD12068006A5F
:1053F0008910084205D12068006820F0010021686A
:10540000086000BF002070BD2DE9F04104460E4643
:1054100015461F4694F83900022801D1BDE8F081F5
:1054200094F83900012806D115B9002F00DDF5E701
:10543000022084F8390036B1042E19D0082E2CD061
:105440000C2E54D13EE0FE49206AC163FD49206A1A
:105450008164216801F134023B462946206A02F04A
:10546000B4FC2068C06840F400702168C8603FE068
:10547000F349606AC163F349606A8164216801F19C
:1054800038023B462946606A02F09FFC2068C068EB
:1054900040F480602168C8602AE0E949A06AC163DD
:1054A000E849A06A8164216801F13C023B46294633
:1054B000A06A02F08AFC2068C06840F4006021689D
:1054C000C86015E0DE49E06AC163DE49E06A8164D4
:1054D000216801F140023B462946E06A02F075FC72
:1054E0002068C06840F480502168C86000E000BFB8
:1054F00000BF042231462068FFF7D4FC2068406CCE
:1055000040F40040216848642068006840F00100D1
:1055100021680860002081E770B504460D4635B16A
:10552000042D0BD0082D10D00C2D1CD114E02068B8
:10553000C06820F400702168C86015E02068C06869
:1055400020F480602168C8600EE02068C06820F404
:1055500000602168C86007E02068C06820F48050BF
:105560002168C86000E000BF00BF00222946206813
:10557000FFF798FC00BF2068006A41F21111084251
:105580000AD12068006A8910084205D12068406C61
:1055900020F400402168486400BF00BF2068006A12
:1055A00041F2111108420AD12068006A89100842AC
:1055B00005D12068006820F001002168086000BF64
:1055C000012084F83900002070BD70B504460D46F6
:1055D000042229462068FFF765FC2068406C40F4EF
:1055E000004021684864002070BD70B504460D4637
:1055F000002229462068FFF755FC00BF2068006A9A
:1056000041F2111108420AD12068006A891008424B
:1056100005D12068406C20F400402168486400BF38
:1056200000BF2068006A41F2111108420AD12068C7
:10563000006A8910084205D12068006820F0010046
:105640002168086000BF002070BD70B504460D469B
:105650002068C06840F002002168C8602068C06807
:1056600040F004002168C860042229462068FFF742
:1056700019FC2068406C40F4004021684864002018
:1056800070BD70B504460D462068C06820F0020069
:105690002168C8602068C06820F004002168C860E4
:1056A000002229462068FFF7FDFB00BF2068006A42
:1056B00041F2111108420AD12068006A891008429B
:1056C00005D12068406C20F400402168486400BF88
:1056D00000BF2068006A41F2111108420AD1206817
:1056E000006A8910084205D12068006820F0010096
:1056F0002168086000BF002070BD10B5034600BFE0
:1057000093F83800012801D1022010BD012083F850
:10571000380000BF29B1102903D0202901D0302939
:105720000AD11868806820F070001C68A0601868B2
:10573000806808431C68A0601868406840F0010059
:105740001C6860601868406820F004001C68606095
:105750001868406810431C68606000BF002083F830
:10576000380000BF00BFD0E710B5034600BF93F874
:105770003800012801D1022010BD012083F8380033
:1057800000BF29B1102903D0202901D030290AD126
:105790001868806820F070001C68A0601868806835
:1057A00008431C68A0601868406840F001001C684D
:1057B00060601868406820F004001C686060186829
:1057C000406810431C6860601868C06840F02000A2
:1057D0001C68E06000BF002083F8380000BF00BFF5
:1057E000CAE7704770B50446A56B012085F83900FB
:1057F0002846FFF7F6FF70BD10B5034600BF93F8CB
:105800003800012801D1022010BD012083F83800A2
:1058100000BF29B1102903D0202901D030290AD195
:105820001868806820F070001C68A06018688068A4
:1058300008431C68A0601868406840F0010003E05D
:105840006F2B0008CF2700081C686060186840684C
:1058500020F004001C6860601868406810431C68F1
:105860006060AFF27F04186BC463434C186B8464B0
:105870001868C06840F400501C68E06000BF002059
:1058800083F8380000BF00BFBEE7024600BF92F8B1
:105890003800012801D102207047012082F8380029
:1058A00000BF022082F839001068406820F07000C4
:1058B00013685860106840680B6818431368586094
:1058C0001068806820F08000136898601068806815
:1058D0004B68184313689860012082F8390000BFB4
:1058E000002082F8380000BF00BFD5E7024600BFA5
:1058F00092F83800012801D102207047012082F877
:10590000380000BF022082F83900D1E900031843B3
:105910008B681843CB6818430B6918434B691843CD
:105920008B69184313685864012082F8390000BF5E
:10593000002082F8380000BF00BFDEE7024600BF4B
:1059400092F83800012801D102207047012082F826
:10595000380000BF10680165012082F8390000BFDF
:10596000002082F8380000BF00BFEEE77047014614
:1059700091F8390070470000CF2700082DE9F04169
:1059800004460025A06900B100BF2068056925F420
:105990004055E0680543206805612068C56849F204
:1059A0000C6085432169A068084361690843E16987
:1059B000084305432068C5602068456925F44075A3
:1059C000A069054320684561E069B0F5004F72D1D8
:1059D000FD492068884203D0FC492068884234D1C0
:1059E000FBF752FC00EBC00101EB001061684900BD
:1059F000B0FBF1F06421B0FBF1F6FBF745FC00EBE6
:105A0000C00101EB001061684900B0FBF1F7FBF742
:105A10003BFC00EBC00101EB001061684900B0FBEA
:105A2000F1F06421B0FBF1F000EBC00101EB0010DC
:105A3000A7EB8000322101EB00106421B0FBF1F0F4
:105A400066F31F1021688860A6E0FBF70BFC00EBF3
:105A5000C00101EB001061684900B0FBF1F0642166
:105A6000B0FBF1F6FBF7FEFB00EBC00101EB001011
:105A700061684900B0FBF1F7FBF7F4FB00EBC001F4
:105A800001EB001061684900B0FBF1F06421B0FB4C
:105A9000F1F000EBC00101EB0010A7EB8000322118
:105AA00001EB00106421B0FBF1F066F31F102168D8
:105AB000886071E0FFE7C4492068884203D0C34989
:105AC0002068884234D1FBF7DFFB00EBC00101EB1B
:105AD000001061688900B0FBF1F06421B0FBF1F6C1
