:020000040800F2
:1000000090A801209D010008F5090008F7090008E3
:10001000FB090008FF090008030A000800000000AF
:10002000000000000000000000000000070A0008B7
:10003000090A0008000000000B0A00080D0A000869
:10004000B7010008B7010008B7010008B7010008B0
:10005000B7010008B7010008B7010008B7010008A0
:10006000B7010008B7010008B7010008B701000890
:10007000B7010008B7010008B7010008B701000880
:10008000B7010008B7010008B7010008B701000870
:10009000B7010008B7010008B7010008B701000860
:1000A000B7010008B7010008B7010008B701000850
:1000B000150A0008B7010008B7010008B7010008D9
:1000C000B7010008B7010008B7010008B701000830
:1000D000B7010008330A0008B7010008B70100089B
:1000E000B7010008B7010008B7010008B701000810
:1000F000B7010008B7010008B7010008B701000800
:10010000B7010008B70100081F0A0008B70100087E
:10011000B70100083D0A0008B7010008B701000850
:10012000B7010008B7010008B7010008B7010008CF
:10013000B7010008B7010008B7010008B7010008BF
:10014000B7010008B7010008B7010008B7010008AF
:10015000B7010008B7010008B7010008290A000824
:10016000B7010008B7010008B7010008B70100088F
:10017000B7010008B7010008B7010008000000003F
:10018000B7010008B7010008DFF80CD010F0C2FB7F
:10019000004800477503000890A8012006488047E2
:1001A00006480047FEE7FEE7FEE7FEE7FEE7FEE75C
:1001B000FEE7FEE7FEE7FEE7C1010008890100084F
:1001C0003F48006840F470003D4908603D480068C1
:1001D00040F001003B49086000203A4908310860BE
:1001E0003848006838490840364908603748091DD2
:1001F0000860081F006820F48020091F08600020A4
:1002000030490C3108604FF000602D49803908609A
:10021000704770B500200022022300240221294DDE
:1002200008352D6805F00C0020B1042806D00828F8
:1002300034D107E0264D274E356033E0264D254E5C
:1002400035602FE01F4D2D1D2D68C5F380541D4DC9
:100250002D1D2D6805F03F0154B11F4DB5FBF1F583
:10026000184E361D3668C6F3881605FB06F209E0FF
:10027000174DB5FBF1F5134E361D3668C6F38816DB
:1002800005FB06F20F4D2D1D2D68C5F301456D1CB4
:100290006B00B2FBF3F50F4E356003E00C4D0D4ED5
:1002A000356000BF00BF074D08352D68C5F3031545
:1002B0000A4E705D074D2D68C540064E356070BD15
:1002C00088ED00E000380240FFFFF6FE1030002409
:1002D0000024F4000000002000127A000400002036
:1002E00030B591B02148006840F080501F49086047
:1002F0001F48006840F440401D49086001200090FC
:100300000190022006904105079108210891FA21E9
:10031000099102210A9107210B91684602F0EEF83B
:100320000F200C9002200D9000200E904FF4A05052
:100330000F904FF48050109005210CA802F034FB70
:100340004FF0E0629101012002F066FC042008F009
:1003500041F902F0C7FC04464FF47A70B4FBF0F5A3
:10036000284608F097F811B030BD00004038024030
:10037000007000408CB0FFF7B3FF00F0BAFA00F055
:10038000E1F800F02AF900F06DF96448644908606A
:100390006448654908606548654908604FF49640BF
:1003A00003900020ADF81000ADF81200ADF8140075
:1003B00003A95B4800F0FAF903A95B4800F0F6F9DD
:1003C00003A95B4800F0F2F900F01DFA594800F06B
:1003D0006EFA594800F097FA0421002001F008FD58
:1003E0000321002001F067FC002001F09DFC0920A2
:1003F00001F0AEFC002001F0D7FC002001F0F0FC81
:1004000040F25554204600F0ACFFE04384B2204651
:1004100000F0A7FF4FF6FF7001210BAA0B46CDE9B4
:10042000002102901B22402143480FF08DFA09A9B8
:10043000002001F05FFD07A9002001F0E8FD012088
:100440008DF8180000208DF81A0088208DF81B0008
:1004500006A9002001F05AFE06A9012001F056FE6F
:1004600006A9022001F052FE06A9032001F04EFE6B
:10047000002001F0C3FE012001F0C0FE022001F0C7
:10048000BDFE032001F0BAFE002001F043FF012071
:1004900001F040FF022001F03DFF032001F03AFF90
:1004A000FF2001F0ABFEFF2001F034FF11E02348F4
:1004B0000088012808DB0020204908800122202133
:1004C0001F4803F096FD04E0002220211C4803F0A1
:1004D00090FDECE7002100E0491C8142FCDB704705
:1004E00070B505460C4642F210730122294620469B
:1004F00007F0F8F900BF20680068C0F3C0100028BA
:10050000F9D070BD13B50C464FF6FF730122694652
:10051000034807F0E7F900981CBD000000140140F3
:1005200020A10120005000405CA1012000100140EA
:1005300098A101204C000020D4A101202800002017
:1005400000000240FE48006840F00100FC490860DD
:100550000846006840F0020008600846006840F065
:1005600004000860F6481430006840F02000F449A8
:10057000143108600846006840F010000860081F49
:10058000006840F48010091F08600846006840F0C9
:10059000010008600846006840F008000860E8486C
:1005A000006840F00800E64908600846006840F02E
:1005B000007008600846006840F0806008600846E7
:1005C000006840F000600860DD481030006840F4CA
:1005D0000010DB4910310860704710B5052007F0A6
:1005E000DDFE01220021472007F0EAFE472007F048
:1005F00025FF01220321252007F0E2FE252007F038
:100600001DFF02220321352007F0DAFE352007F016
:1006100015FF002201211C2007F0D2FE1C2007F04C
:100620000DFF00221146322007F0CAFE322007F0EB
:1006300005FF012202213D2007F0C2FE3D2007F008
:10064000FDFE00220121202007F0BAFE202007F045
:10065000F5FE002202211F2007F0B2FE1F2007F046
:10066000EDFE10BD00B585B0402000900220039043
:10067000019001200290082004906946B14803F0DF
:1006800027FB802000900220019003900020029020
:10069000082004906946AB4803F01AFB4FF4007041
:1006A0000090022003900190012002900720049006
:1006B0006946A54803F00CFB4FF4806000900220CF
:1006C00003900190002002900720049069469E4804
:1006D00003F0FEFA4FF48050009002200390019046
:1006E00001200290082004906946964803F0F0FA31
:1006F0000420009002200390019000200290082026
:1007000004906946914803F0E3FA4FF4704000907A
:1007100001200190032003900020029069468B483D
:1007200003F0D6FA202000900120019003200390CE
:10073000002002906946844803F0CAFA8F20009096
:10074000022001900390002002900B200490694643
:100750007D4803F0BDFA43F603500090022001905B
:100760000390002002900B2004906946784803F023
:10077000AFFA3E20009002200190039000200290EA
:100780000B20049069466F4803F0A2FA4FF41070F2
:100790000090042004901220019001200290039008
:1007A00069466B4803F094FA05B000BD30B587B0D8
:1007B00004460D4628680090A8880190E8880290B9
:1007C000288903900C2004900020059003901C229F
:1007D0006946201D10F05AF8204606F000FF5DA083
:1007E00010F0CAF82068C06840F020002168C86096
:1007F0002068C06840F400502168C860012084F877
:10080000390007B030BD10B54FF080405649086040
:100810004FF41C70486064215348C160002181601E
:10082000016103F076FC0020504908804E480068C2
:10083000006920F001004C49096808614A480068D5
:10084000C06840F0010048490968C860464800682F
:10085000006840F00100444909680860444845497F
:1008600008603E20486009214248C1600021816043
:10087000016103F04EFC00203F4908603D480068DC
:10088000006920F001003B490968086139480068A7
:10089000C06840F0010037490968C8603548006801
:1008A000006840F0010033490968086010BD10B5C8
:1008B0000446012060608103A160C102E160022161
:1008C00021822E4961610021A1612162E1612C48F0
:1008D0002060204602F0C8FC0A232A4A2A49204602
:1008E00002F040FD0A23294A2949204602F092FDE0
:1008F00010BD284828490860284829490860294827
:1009000029490860704710B588B004462748009010
:10091000002001904FF48040039000200490079045
:1009200006900A200290FE20059021482060202297
:100930006946201D0FF0AAFF20460DF086FD39E024
:10094000303802400008024000000240000C024023
:10095000000402406861686168616861686168619B
:10096000686168610A0D0000A8A00120280000202D
:10097000000C0040E4A001202C0000201400002006
:1009800000800240A80000200CA20120A8A00020A6
:100990004CA30120A85001201C000020A890012099
:1009A00024000020A870012020000020A086010063
:1009B0000054004010B102A00FF0DEFF08B010BDDF
:1009C0004F682121207768617420746865206675FE
:1009D000636B21205468652049324320696E697435
:1009E00069616C697A6174696F6E206661696C65B2
:1009F00064210000704700BFFEE700BFFEE700BFB4
:100A0000FEE700BFFEE770477047704710B502F081
:100A100095FA10BD10B5114804F072FE10BD10B566
:100A20000F4804F06DFE10BD10B50E4807F070FBC6
:100A300010BD10B50C4807F06BFB10BD10B50B488E
:100A400007F066FB10BD10B509480FF0A8FD10BDFA
:100A500010B507480FF092FE10BD0000A8A00120BD
:100A6000E4A0012020A1012098A101205CA1012087
:100A7000D4A1012010B5FAA00FF07EFFFC48018838
:100A8000FCA00FF079FF10BD10B5FCA00FF074FFB3
:100A9000002407E0FE4830F81410F6A00FF06CFFB9
:100AA000601CC4B2082CF5DB10BD38B5F9A00FF0FE
:100AB00063FF00240FE004F11000FE4908826A463B
:100AC0000521FC4802F095FEBDF80010FAA00FF0D9
:100AD00053FF601CC4B20B2CEDDB38BDF8B50546E6
:100AE0000E46174600244FF4004000901C21F148A8
:100AF000018204E06A461821EE4802F07AFEBDF851
:100B0000000010F4004FF5D134434FF4787000EA40
:100B10004510044344F4006444F400442246182180
:100B2000E44802F0A5FE4FF40040009004E06A465D
:100B30001821E04802F05DFEBDF8000010F4004FFF
:100B4000F5D13A461921DB4802F053FE0020F8BDEA
:100B5000F8B505460E4617464FF4004000900024B5
:100B60001C21D448018204E06A461821D14802F0D1
:100B700040FEBDF8000010F4004FF5D13A461921AF
:100B8000CC4802F075FE34434FF4787000EA45100B
:100B9000044344F4806444F4004422461821C548C8
:100BA00002F066FE4FF40040009004E06A4618210F
:100BB000C04802F01EFEBDF8000010F4004FF5D151
:100BC0000020F8BD38B504461B21BA4801826A46A8
:100BD0000A2102F00EFEBDF8000020F47F600090B4
:100BE0004FF47F6000EA0410BDF800100843009045
:100BF000BDF800200A21AF4802F03AFE38BD38B5F2
:100C00001C21AC480182002420E04FF4006000EA7F
:100C1000042040F40740AA49095D08430090BDF84C
:100C200000200D21A34802F023FE0BE06A460D21AF
:100C3000A04802F0DEFDBDF8000000F400400128ED
:100C400000D000E0F2E700BF601CC4B2062CDCDB81
:100C500038BDF8B505460C4616461B21954801825D
:100C600000200090BDF800200121924802F000FE13
:100C70006A460C218F4802F0BCFD022C04D1BDF85D
:100C8000000020F008000090032C11D1BDF80000F6
:100C900040F00F000090BDF8000020F01000009020
:100CA00047F6F07000EA0610BDF800100843009007
:100CB000BDF800200C217F4802F0DAFD0BE06A4607
:100CC0000B217C4802F095FDBDF8000000F40040C7
:100CD000012800D000E0F2E700BF1DB94FF410403A
:100CE000009002E04FF420400090BDF800200B215E
:100CF000704802F0BDFD0BE06A460B216D4802F022
:100D000078FDBDF8000000F40040012800D000E0AC
:100D1000F2E700BFF8BD38B505461B2165480182E2
:100D200000200090BDF800200121624802F0A0FDE3
:100D300068880090BDF800200C215E4802F098FD04
:100D4000002425E0281D005D00020090601CC4B254
:100D5000281D005DBDF8001008430090022C06DA43
:100D6000BDF800200D21534802F082FD0EE0042C56
:100D700006DABDF800200E214E4802F079FD05E0AC
:100D8000BDF800200F214B4802F072FD601CC4B278
:100D9000062CD7DB0BE06A460B21464802F029FD02
:100DA000BDF8000000F40040012800D000E0F2E7A8
:100DB00000BF28884FF4806101EA002040F4607091
:100DC0000090BDF8000040F430400090BDF80020D5
:100DD0000B21384802F04CFD0BE06A460D213548E6
:100DE00002F007FDBDF8000000F40040012800D02B
:100DF00000E0F2E700BF38BD38B504464FF40040CC
:100E000000901B212B4801826A46012102F0F1FC6F
:100E1000BDF800000005000D0AD0BDF800006FF31A
:100E20000B000090BDF800200121224802F020FDB7
:100E300004E06A460B211F4802F0DBFCBDF800000D
:100E400010F4004FF5D120794FF47F4101EA0020E2
:100E500000906079BDF800100843009032E0000077
:100E60007472756E6B5F766563746F723A00000022
:100E7000300000202578200A0D000000546865200D
:100E80006D61736B207461626C65203A0A0D00001D
:100E90003200002054686520706F72745F636F6E5B
:100EA00074726F6C31207265676973746572732038
:100EB0003A0A0D004C00002025780A0D00000000C1
:100EC00014000020BDF800200D21FE4802F0D0FCE7
:100ED000BDF80000A0F57F41FF3901D1012500E0F8
:100EE0000025A0794FF47F4101EA00200090E079CD
:100EF000BDF8001008430090BDF800200E21F14815
:100F000002F0B6FCBDF80000A0F57F41FF3902D128
:100F100005F0010500E00025207A4FF47F4101EA49
:100F200000200090607ABDF8001008430090BDF8E2
:100F30000000A0F57F41FF3902D105F0010500E076
:100F4000002525B9BDF80000401E80B20090BDF814
:100F500000200F21DB4802F08BFC6A460B21D948A8
:100F600002F047FCBDF8000020F470400090BDF88E
:100F7000000040F440400090BDF8000040F4004004
:100F80000090BDF800200B21CE4802F071FC04E077
:100F90006A460B21CB4802F02CFCBDF8000010F48F
:100FA000004FF5D16A460C21C64802F022FCBDF87C
:100FB000000060806A460D21C24802F01AFCBDF8AC
:100FC0000000000A2071BDF8000060716A460E2121
:100FD000BC4802F00EFCBDF80000010AA171BDF88A
:100FE0000000E0716A460F21B64802F002FCBDF82D
:100FF0000000010A2172BDF80000607238BD70B5B2
:1010000004460D46164634B1012C08D0022C0AD0F5
:10101000032C14D10DE02846FFF7EEFE10E0284621
:10102000FFF779FE0CE0324602210020FFF711FEA7
:1010300006E0324603210020FFF70BFE00E000BF70
:1010400000BF70BDF8B505462E46002413E02641CA
:1010500016F0010F0DD004F110009A4908826A467B
:101060000B21984802F0C5FBBDF80000C0F30A0050
:101070000090601CC4B20B2CE9DBF8BD1CB5044623
:101080004FF4004000901B218E48018201AA0221EA
:1010900002F0AFFBBDF8040040F6FF710843019079
:1010A00004E06A460521874802F0A3FBBDF8000072
:1010B00010F4004FF5D1A088C0F30B000190BDF8EB
:1010C0000400A0F57061FF3904D0BDF80400401E93
:1010D00080B20190BDF8042006217A4802F0C8FBD6
:1010E00001AA0521774802F084FBBDF8040020F432
:1010F000E0400190BDF8040040F480400190BDF84C
:10110000040040F400400190BDF8042005216D4822
:1011100002F0AEFB4FF40040009004E06A46052167
:10112000684802F066FBBDF8000010F4004FF5D1EE
:1011300001AA0521634802F05CFB63A00FF01CFCD0
:10114000BDF80410AFF290200FF016FCA21D07218D
:101150005C4802F04EFB04F108020821594802F0F5
:1011600048FB04F10A020921564802F042FB221D05
:101170000621544802F03DFBA21C0221514802F016
:1011800038FB1CBD1CB504464FF4004000901B21E9
:101190004C4801820022022102F06AFB0022032156
:1011A000484802F065FB04E06A460521454802F024
:1011B00020FBBDF8000010F4004FF5D1A08801908D
:1011C000BDF8042006213F4802F052FBE2880721C7
:1011D0003C4802F04DFB228908213A4802F048FBC6
:1011E00062890921374802F043FB01AA05213548ED
:1011F00002F0FFFABDF8040020F4E0400190BDF8D1
:10120000040040F440500190BDF8040040F4004058
:101210000190BDF8042005212A4802F029FB4FF473
:101220000040009004E06A460521264802F0E1FAF9
:10123000BDF8000010F4004FF5D11CBD08B51B210E
:1012400020480182BDF8000020F4E0400090BDF885
:10125000000040F480500090BDF8000040F40040D1
:101260000090BDF800200521164802F001FB04E0C3
:101270006A460521134802F0BCFABDF8000010F4DC
:10128000004FF5D108BD2DE9F047064688461746C0
:1012900099464FF6FF74042510E017F0010F02D0B5
:1012A0004FF6FC7004407F10012D05D04FF6FF7003
:1012B00000EA041444F00F04681EC5B2002DECDCF3
:1012C000F4800DE04C000020546865206F7065725A
:1012D0006174696F6E2072656769737465723A0034
:1012E0004FF6FF74042510E017F0010F02D04FF6FF
:1012F000FC7004407F10012D05D04FF6FF7000EA0E
:10130000041444F00F04681EC5B2002DECDC3481D7
:101310004FF6FF74032510E017F0010F02D04FF6CF
:10132000FC700440012D06D07F104FF6FF7000EADC
:10133000041444F00F04681EC5B2002DECDC748167
:10134000C8F30B04B9F1000F03D044F48050B0800F
:1013500000E0B480002070803046FFF713FFBDE846
:10136000F087F8B506461021FE48018201241AE0F4
:101370006A460621FB4802F03CFA601E01218140CA
:101380008DB22E4208D026EA05000090BDF800205C
:101390000621F44802F06CFA04F1100081B2F14821
:1013A0000182601C84B20B2CE2DBF8BD1CB5044644
:1013B0004FF4004000901B21EA48018204E06A4695
:1013C0001D21E84802F015FABDF8000010F4004FA6
:1013D000F5D14FF440621D21E24802F049FA01AA1A
:1013E0001D21E04802F005FABDF8040020F4E040B9
:1013F0000190BDF8040020F4F0700190BDF80400E5
:1014000020F01F000190FF2C05D1BDF8040040F42E
:101410008050019010E0BDF8040040F400500190AD
:10142000BDF80410601C41EA4010019004F01F0058
:10143000BDF8041008430190BDF8040040F40040DA
:101440000190BDF804201D21C64802F011FA4FF4A6
:101450000040009004E06A461D21C24802F0C9F92C
:10146000BDF8000010F4004FF5D14FF440621D218B
:10147000BC4802F0FDF91CBD7CB504460E4615467D
:101480004FF4004000901B21B648018204E06A46F8
:101490001D21B44802F0ADF9BDF8000010F4004F72
:1014A000F5D14FF440621D21AE4802F0E1F901AAE6
:1014B0001D21AC4802F09DF9BDF8040020F4E04085
:1014C0000190BDF8040020F4F0700190BDF8040014
:1014D00020F01F000190BDF8040040F4804001900E
:1014E000BDF80410701C41EA4010019005F01F0087
:1014F000BDF8041008430190BDF8040040F400401A
:101500000190BDF804201D21964802F0B1F94FF476
:101510000040009004E06A461D21924802F069F9FB
:10152000BDF8000010F4004FF5D14FF440621D21CA
:101530008C4802F09DF901AA1E218A4802F059F94F
:10154000BDF80400206001AA1F21864802F051F96D
:101550002088BDF8041041EA004020607CBD7CB5C5
:1015600004460D464FF4004000901B217D48018247
:1015700004E06A461D217B4802F03BF9BDF80000FB
:1015800010F4004FF5D14FF440621D21754802F070
:101590006FF901AA1D21734802F02BF9BDF8040070
:1015A00020F4E0400190BDF8040020F4F0700190B8
:1015B000BDF8040020F01F000190BDF8040040F4C5
:1015C000A0400190BDF80410681C41EA4010019051
:1015D00005F01F00BDF8041008430190BDF8040099
:1015E00040F400400190BDF804201D215D4802F048
:1015F0003FF94FF40040009004E06A461D2159482D
:1016000002F0F7F8BDF8000010F4004FF5D14FF4E8
:1016100040621D21534802F02BF900222946204642
:10162000FFF72AFF01222946201DFFF725FF02228E
:10163000294604F10800FFF71FFF0422294604F1A0
:101640000C00FFF719FF0622294604F11000FFF7EE
:1016500013FF0722294604F11400FFF70DFF16229D
:10166000294604F11800FFF707FF1822294604F164
:101670001C00FFF701FF1922294604F12000FFF7A3
:10168000FBFE1A22294604F12400FFF7F5FE1B2277
:10169000294604F12800FFF7EFFE1C22294604F139
:1016A0002C00FFF7E9FE1D22294604F13000FFF768
:1016B000E3FE0E22294604F14C00FFF7DDFE0F2267
:1016C000294604F15000FFF7D7FE1022294604F105
:1016D0005400FFF7D1FE1322294604F15800FFF70A
:1016E000CBFE1222294604F15C00FFF7C5FE15224D
:1016F000294604F16000FFF7BFFE0522294604F1E8
:101700006400FFF7B9FE1E22294604F16800FFF7C6
:10171000B3FE1422294604F16C00FFF7ADFE172238
:10172000294604F17000FFF7A7FE1122294604F1B3
:101730007400FFF7A1FE1F22294604F17800FFF78D
:101740009BFE0322294604F17C00FFF795FE082248
:10175000294604F13400FFF78FFE0922294604F1DF
:10176000380001E04C000020FFF786FE0A222946DF
:1017700004F13C00FFF780FE0B22294604F14000F3
:10178000FFF77AFE0C22294604F14400FFF774FEAD
:101790000D22294604F14800FFF76EFE7CBD1CB502
:1017A00004464FF40040009004E06A461D21F948C9
:1017B00002F01FF8BDF8000010F4004FF5D14FF40F
:1017C00040621D21F34802F053F801AA1D21F1489F
:1017D00002F00FF8BDF8040020F4406001904FF4CF
:1017E000406000EA8420BDF8041008430190BDF871
:1017F00004201D21E74802F03BF8FF20FFF7D6FD4B
:101800001CBDF8B504460E462746E3480088204034
:10181000A04201D00320F8BDDF480088A043DE4984
:101820000880002537E005F1100081B2D948018217
:1018300014F0010F2CD06A46052101F0DAFFBDF843
:10184000000020F470600090BDF8000040F480407B
:101850000090BDF8000040EA062080B20090BDF87C
:10186000000000F47F400090BDF800200521C94829
:1018700001F0FEFF6A460521C64801F0BAFFC7A085
:101880000FF07AF8BDF80010AFF618200FF074F8DA
:101890006410681C85B20B2DC5DB0020BBE72DE969
:1018A000F04385B005460F464FF000080026A946D4
:1018B000002413E015F0010F07D00120A04082B2F0
:1018C0003046711C8EB22DF810206D10082E03DDED
:1018D000042005B0BDE8F083601C84B20B2CE9DB6A
:1018E0001C21AC48018200245FE0B04501DB4FF0D1
:1018F0000008B24830F8140020EA0900AF4921F886
:101900001400084630F8140041464A1C1FFA82F8B9
:101910003DF811100843A94921F8140004AA072131
:101920009C4801F066FFBDF8100020F4E0400490F0
:10193000BDF810006FF30A000490BDF8100020F409
:10194000006004904FF4E04000EA0430BDF810104D
:10195000084304902103AFF6E4200FF00DF8BDF822
:10196000100040F400600490944830F81400C0F374
:101970000A00BDF8101008430490BDF8100040F4B0
:1019800000400490BDF810200721824801F070FF4C
:1019900004E004AA07217F4801F02BFFBDF81000E6
:1019A00010F4004FF5D1601C84B2082C9DDB1C2183
:1019B000784801824FF4004004904FF4F04000EA70
:1019C000C720BDF8101008430490C9F30A00BDF801
:1019D000101008430490BDF8100040F4004004903B
:1019E000BDF8102008216B4801F042FF04E004AA72
:1019F0000821684801F0FDFEBDF8100010F4004F0A
:101A0000F5D1002065E72DE9F84305460F46A846C5
:101A10002E4661480088284202D00520BDE8F883A0
:101A200000241DE004F110005A49088215F0010F4E
:101A300013D06A460521574801F0DBFEBDF80000CF
:101A400010F4804F01D10620E8E7BDF80000C0F394
:101A50000320B84201D00720E0E76D10601CC4B23B
:101A60000B2CDFDB4C48008830434B4908800024B6
:101A70001EE004F110004749088216F0010F14D04F
:101A80006A460521434801F0B4FEBDF8000020F489
:101A900080400090BDF8000020F470600090BDF818
:101AA000002005213B4801F0E3FE7610601CC4B223
:101AB0000B2CDEDB1C2137480182002449E03F4823
:101AC00030F8140040EA08003C4921F814006A4646
:101AD0000721304801F08DFEBDF8000020F4E04001
:101AE0000090BDF800006FF30A000090BDF8000000
:101AF00020F4006000904FF4E04000EA0430BDF8AC
:101B0000001008430090BDF8000040F40060009011
:101B10002A4830F81400C0F30A00BDF8001008434A
:101B20000090BDF8000040F400400090BDF8002097
:101B30000721184801F09CFE04E06A460721154879
:101B400001F057FEBDF8000010F4004FF5D1601C05
:101B5000C4B2082CB3DB6A4608210E4801F049FEE6
:101B6000BDF8000020F4F04000904FF4F04000EA8F
:101B7000C720BDF8001008430090BDF80000C0F376
:101B80000A000090BDF800200821024801F070FE14
:101B90001BE000004C00002030000020416674650E
:101BA0007220777269746520696E2074686520728E
:101BB000656769737465723A0000000032000020A6
:101BC0006A460821C34801F014FEBDF8000010F475
:101BD000004FF5D1002021E738B5002424E004F1BE
:101BE0001000BC490882BC48007810F0010F14D0E6
:101BF0006A460521B74801F0FCFDBDF8000020F45D
:101C000080400090BDF8000020F470600090BDF8A6
:101C100000200521AF4801F02BFEAF48008840109E
:101C2000AD490880601CC4B20B2CD8DB1C21A9482C
:101C3000018200243CE0A94830F8140040F2FF7112
:101C40000843A64921F814006A460721A14801F07B
:101C5000D0FDBDF8000020F4E0400090BDF8000089
:101C60006FF30A000090BDF8000020F400600090BF
:101C70004FF4E04000EA0430BDF800100843009043
:101C8000BDF8000040F400400090BDF8002007219E
:101C9000904801F0EDFD04E06A4607218D4801F00F
:101CA000A8FDBDF8000010F4004FF5D1601CC4B2CF
:101CB000082CC0DB38BD38B505460C4605F11000D0
:101CC00081B2844801826A46042101F092FDBDF888
:101CD00000004FF6FC710840009034B1012C08D090
:101CE000022C0CD0032C16D10FE0BDF800000090A0
:101CF00012E0BDF8000040F0010000900CE0BDF8DB
:101D0000000040F00200009006E0BDF8000040F046
:101D10000300009000E000BF00BFBDF800200421D8
:101D20006C4801F0A5FD38BD38B5044604F110003B
:101D300081B2684801826A46002101F05AFDBDF86F
:101D4000000010F4006F01D0012038BD0020FCE736
:101D500038B5044604F1100081B25E480182008A61
:101D6000182806DB5B48008A1A2802DC4FF47A70D8
:101D700038BD6A460021574801F03BFDBDF8000020
:101D800000F440700090BDF8000000120090BDF813
:101D9000000008B90A20EBE7BDF80000012801D1D6
:101DA0006420E5E70020E3E738B5044604F11000BD
:101DB00081B248480182082C01DB012038BD6A4607
:101DC0000021444801F015FDBDF800000090BDF869
:101DD000000010F4806F01D00120EFE70020EDE754
:101DE0000146082901DA3E48704744F62060FBE7C7
:101DF000F8B505460C46A8B26A460021FEF76EFE0D
:101E00002CB9BDF8000040F4045000901FE0012CF4
:101E100005D1BDF8000040F40050009017E0022CFE
:101E200005D1BDF8000040F4807000900FE0032C55
:101E300003D1BDF80000009009E0042C05D1BDF8E5
:101E4000000040F48050009001E00220F8BDBDF891
:101E5000002000210846FEF77BFE0A260FE0102135
:101E60001C4801826A46002101F0C3FC1DA00EF04F
:101E700083FDBDF80010AFF6C0700EF07DFD3000A0
:101E8000A6F101018EB2EAD100BFDFE738B5044602
:101E90000D4604F1100081B20E4801826A4601210C
:101EA00001F0A7FCBDF8000020F0C00000902DB1AB
:101EB000BDF8000040F0C000009004E0BDF8000054
:101EC00040F040000090BDF800200121014801F0E1
:101ED000CFFC38BD4C000020300000203200002034
:101EE000400D0300546865207265672076616C754B
:101EF000653A00002DE9F04186B004460D462046C3
:101F0000E11704EB9171C1F38706E11704EB9171BE
:101F10008910A4EB810189060F0E40F6FF700121A4
:101F200005AACDE90021029007F10C0206F140015B
:101F30000123F7480DF008FD40F6FF70012104AAC7
:101F4000CDE90021029007F1100206F140010123C2
:101F5000EF480DF0F9FC9DF8140000F00300287024
:101F60009DF81400C0F3011068709DF81000A8706F
:101F700040F6FF70012105AACDE90021029007F18A
:101F8000300206F140010123E1480DF0DDFC40F68E
:101F9000FF70012104AACDE90021029007F131026E
:101FA00006F140010123DA480DF0CEFC9DF8140043
:101FB0009DF8101040EA0128A5F8048040F6FF7053
:101FC000012105AACDE90021029007F1320206F1B4
:101FD00040010123CE480DF0B7FC40F6FF7001210F
:101FE00004AACDE90021029007F1330206F1400175
:101FF0000123C7480DF0A8FC9DF814009DF81010AF
:1020000040EA0128A5F8068006B0BDE8F0812DE978
:10201000FF4105460C462846E91705EB9171C1F3CF
:102020008707E91705EB91718910A5EB8101CEB205
:1020300040F6FF70012103AACDE90021029007F1CB
:10204000400101230322B2480DF07EFC9DF80C00F4
:10205000311D084100F0010060709DF80C00304116
:1020600000F00100207040F6FF70012103AACDE9C5
:102070000021029007F1400101230522A4480DF040
:1020800063FC9DF80C00304100F00100A0709DF849
:102090000C00311D084100F00100207040F6FF7077
:1020A000012103AACDE90021029007F1400101239B
:1020B000072297480DF048FC9DF80C00304100F0D5
:1020C000010161719DF80C00311D084100F0010013
:1020D000207140F6FF70012103AACDE90021029092
:1020E00007F140010123092289480DF02DFC9DF8DC
:1020F0000C00304100F00101E1719DF80C00311D30
:10210000084100F00100A071BDE8FF812DE9FF4109
:1021100004460F462046E11704EB9171C1F3870591
:10212000E11704EB91718910A4EB8101CEB240F666
:10213000FF70012103AACDE90021029005F14001C1
:102140000123122272480DF0FFFB7100032088402A
:102150009DF80C10814303913878710088409DF8F8
:102160000C100843C0B2039040F6FF70012103AA8F
:10217000CDE90021029005F14001012312226448BB
:102180000DF0C9FA40F6FF70012103AACDE9002144
:10219000029005F14001012315225D480DF0D4FBAA
:1021A0000120B0409DF80C10814303913878B04075
:1021B0009DF80C100843C0B2039040F6FF70012157
:1021C00003AACDE90021029005F140010123152267
:1021D0004F480DF0A0FA40F6FF70012103AACDE9A7
:1021E0000021029006EB860000F1470205F1400154
:1021F000012347480DF08FFABDE8FF817FB5044603
:102200002046E11704EB9171C1F38705E11704EB58
:1022100091718910A4EB8101CEB2FF2C1CD100205A
:10222000039040F6FF70012103AA0B46CDE900217F
:1022300002901322402136480DF06DFA40F6FF70EF
:10224000012103AA0B46CDE900210290132241216E
:102250002F480DF060FA28E040F6FF70012103AA34
:10226000CDE90021029005F1400101231322284805
:102270000DF06AFB0120B0409DF80C1081430391E2
:10228000301D012181409DF80C008843039040F6E9
:10229000FF70012103AACDE90021029005F1400160
:1022A000012313221A480DF036FAFF2C1CD10F20FF
:1022B000039040F6FF70012103AA0B46CDE90021EF
:1022C00002901922402112480DF025FA40F6FF70C5
:1022D000012103AA0B46CDE90021029019224121D8
:1022E0000B480DF018FA11E00120B040C0B2039085
:1022F00040F6FF70012103AACDE90021029005F10B
:1023000040010123192202480DF005FA7FBD0000AB
:10231000D4A101207FB504462046E11704EB91715A
:10232000C1F38705E11704EB91718910A4EB8101DA
:10233000091DCEB2FF2C1CD1F020039040F6FF7097
:10234000012103AA0B46CDE9002102901922402168
:1023500051480DF0E0F940F6FF70012103AA0B4649
:10236000CDE900210290192241214B480DF0D3F90B
:1023700011E00120B040C0B2039040F6FF7001218F
:1023800003AACDE90021029005F1400101231922A1
:1023900041480DF0C0F9FF2C1CD1F020039040F60D
:1023A000FF70012103AA0B46CDE900210290132200
:1023B000402139480DF0AFF940F6FF70012103AA22
:1023C0000B46CDE9002102901322412132480DF045
:1023D000A2F924E040F6FF70012103AACDE9002113
:1023E000029005F14001012313222B480DF0ACFAB5
:1023F000301D012101FA00F09DF80C100843C0B215
:10240000039040F6FF70012103AACDE9002102905C
:1024100005F14001012313221F480DF07CF97FBD17
:102420007FB504462046E11704EB9171C1F387059F
:102430001020039040F6FF70012103AACDE900218E
:10244000029005F1400101231A2213480DF063F9AF
:102450007FBD7FB504462046E11704EB9171C1F3BF
:102460008705E11704EB91718910A4EB8101CEB2CD
:102470000120B040C0B2039040F6FF70012103AAD2
:10248000CDE90021029005F1400101231A22024802
:102490000DF041F97FBD0000D4A10120F94800688A
:1024A00040F08100F74908600020F64908310860D3
:1024B000F4480068F4490840F24908600020091D0A
:1024C000086008460068F1490843EE49091D0860A4
:1024D0000020EC498431086008460068EC49084354
:1024E000E84984310860E748006820F48020E54925
:1024F00008600020E3490C310860704770B504465D
:102500000025207810F0010F62D0DE480830006806
:1025100000F00C0004280ED0DA480830006800F003
:102520000C00082812D1D748001D006800F4800074
:10253000B0F5800F0AD1D3480068C0F340400028AE
:1025400046D06068012843D0012070BD0020CD49ED
:10255000891C087000F0F8FC41F28831451805E04C
:1025600000F0F2FCA84201D30320EEE7C548006862
:10257000C0F340400028F3D12079C249891C08707B
:102580006068012812D100F0DFFC41F28831451863
:1025900005E000F0D9FCA84201D30320D5E7B948F3
:1025A0000068C0F340400028F3D011E000F0CCFCFC
:1025B00041F28831451805E000F0C6FCA84201D37D
:1025C0000320C2E7AF480068C0F340400028F3D1C1
:1025D000207800F00200022855D1AA48083000688F
:1025E00010F00C0F0CD0A7480830006800F00C0069
:1025F00008280FD1A348001D006810F4800F09D1EE
:10260000A0480068C0F3400040B3E06801283AD019
:1026100001209AE7E06810B301209E49086000F0AD
:1026200093FC00F1640505E000F08EFCA84201D3A4
:1026300003208AE793480068C0F340000028F3D0E5
:102640009048006820F0F800F82292FAA2F2B2FA5C
:1026500082F22169914008438A49086013E0002012
:102660008C49086000F070FC00F1640505E000F0A2
:102670006BFCA84201D3032067E782480068C0F3DF
:1026800040000028F3D1207800F0080008282CD161
:102690006069A8B101208049086000F055FC00F194
:1026A000640505E000F050FCA84201D303204CE78C
:1026B000744874300068C0F340000028F2D014E081
:1026C00000207549086000F03FFC00F1640505E05A
:1026D00000F03AFCA84201D3032036E76948743081
:1026E0000068C0F340000028F2D1207800F0040018
:1026F000042862D163484030006840F0805061494E
:10270000403108606548006840F4807063490860A3
:1027100000F01AFC00F1640505E000F015FCA84289
:1027200001D3032011E75D48006810F4807FF4D0E6
:10273000002054497031087000F006FC41F28831E5
:10274000451805E000F000FCA84201D30320FCE698
:102750004C4870300068C0F340000028F2D1207A65
:10276000484970310870A068012813D100F0ECFBD3
:1027700041F28831451805E000F0E6FBA84201D39C
:102780000320E2E63F4870300068C0F340000028B4
:10279000F2D012E000F0D8FB41F28831451805E094
:1027A00000F0D2FBA84201D30320CEE635487030BA
:1027B0000068C0F340000028F2D1A069F0B33148AE
:1027C0000830006800F00C00082877D0A0690228C3
:1027D00050D100202F49086600F0B6FB00F16405D7
:1027E00005E000F0B1FBA84201D30320ADE6254887
:1027F0000068C0F340600028F3D1206A40F0005028
:1028000047F6C07292FAA2F2B2FA82F2616A91407D
:1028100008430122A16AC2EB51014FF4403292FAFF
:10282000A2F2B2FA82F291400843E16908434FF004
:10283000706292FAA2F2B2FA82F200E040E0E16A3B
:10284000914008430F49091D08600120114908669D
:1028500000F07AFB00F1640505E000F075FBA8428A
:1028600001D3032071E607480068C0F340600028E8
:10287000F3D025E000200749086600F065FB00F171
:10288000640514E000380240FFFFF6FA103000043F
:102890000030002000004742800E47420070004098
:1028A0000CE000F051FBA84201D303204DE6FE48A6
:1028B0000068C0F340600028F3D101E0012044E645
:1028C000002042E670B50021002200230020F64CD3
:1028D0000834246814F00C0404D0042C04D0082C10
:1028E00048D103E0F14847E0F14845E0EE4C241DB3
:1028F000246804F03F01EC4C241D246804F4800497
:102900004FF4800595FAA5F5B5FA85F5EC4010D0A1
:10291000E74CB4FBF1F5E44C241D246847F6C0767F
:10292000344096FAA6F6B6FA86F6F44005FB04F2B1
:102930000FE0DE4CB4FBF1F5DB4C241D246847F6B8
:10294000C076344096FAA6F6B6FA86F6F44005FB51
:1029500004F2D54C241D246804F440344FF440356F
:1029600095FAA5F5B5FA85F5EC40641C6300B2FB59
:10297000F3F001E0CD4800BF00BF70BD00B5FFF728
:10298000A1FFC9490831096801F0F001F02292FA6B
:10299000A2F2B2FA82F2D140C64A515CC840C6499E
:1029A00008600846006800BD2DE9F04104460D4668
:1029B0000026C248006800F00F00A8426AD2BF4952
:1029C0000D700846006800F00F00A84202D00120F8
:1029D000BDE8F081207810F0010F3AD0606801283E
:1029E00006D1B1480068C0F3404090B90120EFE73C
:1029F0006068022806D1AC480068C0F3406040B966
:102A00000120E5E7A8480068C0F3400008B90120AC
:102A1000DEE7A5480830006820F00300616808433D
:102A2000A1490831086000F08FFA41F28831461858
:102A3000606801280ED105E000F086FAB04201D3AB
:102A40000320C5E798480830006800F00C0004280F
:102A5000F2D188E0606802280ED105E000F074FA37
:102A6000B04201D30320B3E78F480830006800F07C
:102A70000C000828F2D176E005E000F065FAB042DB
:102A800001D30320A4E788480830006810F00C0F39
:102A9000F3D168E0207810F0010F5AD06068012867
:102AA00006D181480068C0F3404090B901208FE70B
:102AB0006068022806D17C480068C0F3406040B9D5
:102AC000012085E778480068C0F3400008B901207C
:102AD0007EE775480830006820F00300616808430D
:102AE00071490831086000F02FFA41F28831461828
:102AF000606801280ED105E000F026FAB04201D34B
:102B0000032065E768480830006800F00C000428DE
:102B1000F2D11EE0606802280ED105E000F014FA40
:102B2000B04201D3032053E75F480830006800F04B
:102B30000C000828F2D10CE005E000F005FAB042E4
:102B400001D3032044E758480830006810F00C0F08
:102B5000F3D15A490D700846006800F00F00A842F2
:102B600001D0012034E7207800F00200022809D1CA
:102B70004D480830006820F0F000A16808434A4939
:102B800008310860207800F00400042809D1464884
:102B90000830006820F4E050E168084342490831F9
:102BA0000860207800F0080008280AD13E48083064
:102BB000006820F46040216940EAC1003A490831C8
:102BC0000860FFF7DBFE4FF47A71B0FBF1F7781E77
:102BD000B0F1807F00D31DE0781E4FF0E021486106
:102BE00048170F21002809DA0A074FEA126C344A05
:102BF00000F00F031B1F02F803C003E00A07130EC7
:102C0000304A135400BF00204FF0E02188610720B4
:102C1000086100BF0020DBE670B586B006460C46B2
:102C2000154606BB20483030006840F001001E49C0
:102C30003031086088150190022002900320049032
:102C400000200390059001A91F4801F041F81648A3
:102C50000830006820F0EC6044EA0501084312499E
:102C6000083108601FE010483030006840F0040070
:102C70000D49303108604815019002200290032070
:102C8000049000200390059001A9104801F020F85D
:102C900005480830006820F0784044EAC501084340
:102CA00001490831086013E0003802400024F400B4
:102CB00000127A00160E010800000020003C0240BD
:102CC00018ED00E000E400E00000024000080240CF
:102CD00006B070BD01207649C86470470020744971
:102CE000C864704700B5FFF749FE7249096801F4EE
:102CF000E0514FF4E05292FAA2F2B2FA82F2D140DD
:102D00006D4A515CC84000BD00B5FFF737FE694908
:102D1000096801F460414FF4604292FAA2F2B2FAFB
:102D200082F2D140644A515CC84000BD0F2101606D
:102D300060490839096801F48021B1F5802F02D17A
:102D4000052141600CE05B490839096801F48031D4
:102D5000B1F5803F02D10121416001E000214160D5
:102D600054490839096811F0010F02D00121C160EE
:102D700001E00021C1604F490839096801F0F801FC
:102D8000F82292FAA2F2B2FA82F2D14001614949E4
:102D90006831096801F00401042902D1052181602C
:102DA0000AE044496831096811F0010F02D001219D
:102DB000816001E0002181603E496C31096811F0B9
:102DC000010F02D00121416101E000214161394937
:102DD0000839096801F08071B1F1807F02D10221C8
:102DE000816101E0012181613249091F096801F413
:102DF0008002C2612F49091F096801F03F02026287
:102E00002C49091F096847F6C072114092FAA2F2D4
:102E1000B2FA82F2D14041622649091F096801F4E1
:102E2000403101F5803149004FF4403292FAA2F26C
:102E3000B2FA82F2D14081621E49091F096801F08D
:102E400070614FF0706292FAA2F2B2FA82F2D1404F
:102E5000C16270470F220260164A126802F0030234
:102E60004260144A126802F0F0028260114A12684D
:102E700002F4E052C2600F4A126802F46042D208C3
:102E800002610E4A126802F00F020A607047704732
:102E900010B50848001D006800F08000802805D1AA
:102EA000FFF7F5FF80200349891D087010BD000061
:102EB0000000474208380240160E0108003C02405C
:102EC000704710B54848006840F4007046490860F3
:102ED0000846006840F4806008600846006840F4D6
:102EE000807008604FF47A5005F0D4FA032005F0A2
:102EF00055FA0DF0C7FC002010BD704710B54FF01B
:102F0000FF303A49086000200860401E091D086033
:102F100000200860401E3549103908600020086014
:102F2000401E091D086000200860401E091D086041
:102F3000002008600DF0A7FC002010BD2C480068A0
:102F4000401C2B4908607047294800687047294891
:102F50000068704701B5FFF7F7FF009A811800BFBE
:102F6000FFF7F2FF8842FBD308BD4FF08070704737
:102F700021480068000C70471F480068C0F30B0030
:102F800070471D48406840F001001B494860704789
:102F90001948406820F001001749486070471648FA
:102FA000406840F002001449486070471248406889
:102FB00020F002001049486070470F48406840F018
:102FC00004000D49486070470B48406820F0040039
:102FD000094948607047012008490860704700208F
:102FE0000649086070470000003C0240203802405B
:102FF000440000202C000020002004E000042742B0
:1030000030B503461479557944EA0520F64C0C4452
:103010002064D4782406957844EA0544557844EA37
:103020000524157844EA0500EF4C0C44606430BD7B
:1030300070B5AEB004460E46002526B14FF40061CF
:10304000E160C900A16000201190129013901490CB
:1030500015901690E06918B94FF48060179001E060
:10306000002017904FF400701890002019901A90CB
:103070001B901C901D9040201E9000201F902090BF
:1030800021902290239024902590269080202790B4
:103090000020289029902A902B902C902D90206829
:1030A0000568D2480540DDE911010843139908433A
:1030B00014990843A16808431599084316990843D1
:1030C000E168084317990843189908431999084378
:1030D0001A9908431B990843054320680560206836
:1030E00005680120FFF736FF20680560DDE91C0157
:1030F00008431E9908431F990843209908432199C2
:1031000008432299084323990843216848602068AE
:1031100045680120FFF71EFF20684560249821685C
:10312000886025982168C860206885694FF64170DD
:103130000540DDE9261040EA014028990843299915
:1031400008432A9908432B99084305432068856161
:10315000206885690120FFF7FDFE20688561DDE9B3
:103160002C0108432168C8612068C5690120FFF768
:10317000F1FE2068C561002001904FF000700290C0
:10318000002003904FF4001004900020059006905A
:103190000790089004200990C0050A9040120B90F7
:1031A00080010C9040120D9080200E9000200F9016
:1031B0001090206800F5805085698D480540DDE954
:1031C00001010843039908430499084305990843FA
:1031D0000699084307990843089908430999084341
:1031E0000543206800F580508561206800F5805017
:1031F00085690120FFF7AEFE206800F580508561EB
:10320000DDE90A0108430C9908430D9908430E991A
:1032100008430F9940EA81001099084340F40001E7
:10322000206800F580500160206800F58050056836
:103230000120FFF78FFE206800F580500560A0692F
:10324000012809D1206800F58050C0696949084308
:10325000216801F58051C861002120466269FFF7AD
:10326000CFFE2EB070BD70472DE9F0470446002513
:10327000A846614EA946002714B90120BDE8F08791
:1032800094F8440010B92046FFF7EDFF5B48006852
:1032900040F48040594908605948006820F4000013
:1032A0005749086008460068216A08435449086085
:1032B000206800F58050006840F00101206800F5AA
:1032C0008050016000BF206800F58050006810F059
:1032D000010FF8D12068006985B225F01C05FFF7C1
:1032E0004DFB06464748864205D34748864202D2F0
:1032F00045F008051AE04448864205D33E48864218
:1033000002D245F00C0511E03B48864203D33F480A
:10331000864200D20AE03D48864205D33C488642B8
:1033200002D245F0040501E045F010052068056172
:1033300039462046FFF77CFE012084F84400002037
:103340009CE7704710B50446022084F844002046EC
:10335000FFF7F7FF002084F8440000BF84F8450021
:1033600000BF10BD70B504460D461646002200BFD2
:1033700094F84500012801D1022070BD012084F895
:10338000450000BF022084F84400E56200221BE0F3
:1033900005EB42114FF480100860C2EBC21000EB45
:1033A000400006EB80008860E06918B9086840F4C6
:1033B00040000860581E904204D905EB42102030AE
:1033C000C86000E0CD60521C9A42E1D3206800F54D
:1033D00080500561012084F8440000BF002084F87B
:1033E000450000BF00BFC8E7008002400F8120FFFA
:1033F000233FDEF840000100008793034438024079
:1034000004380140002D3101C00E160200E1F5051F
:1034100080D1F00870B504460D461646002200BF64
:1034200094F84500012801D1022070BD012084F8E4
:10343000450000BF022084F84400A56200221FE07E
:1034400005EB42114FF00040086044F2F450486030
:10345000C2EBC21000EB400006EB80008860A06960
:10346000012803D1486820F000404860581E90426F
:1034700004D905EB42102030C86000E0CD60521C3A
:103480009A42DDD3206800F58050C560012084F8A1
:10349000440000BF002084F8450000BF00BFC4E71F
:1034A00070B5024600230025002400BF92F84500B5
:1034B000012801D1022070BD012082F8450000BF23
:1034C000022082F8440049B9012082F8440000BF7C
:1034D000002082F8450000BF0120ECE7D06A0068B8
:1034E00010F0004F09D0122082F8440000BF0020E5
:1034F00082F8450000BF0120DDE740F2F450814230
:1035000008D9B1FBF0F3B1FBF0F600FB161010B1D7
:103510005B1C00E00123012B13D1D06A006840F04E
:103520004050D66A3060C1F30C00D66A7060D06A31
:10353000006840F00040D66A3060D06AC068D0624F
:1035400032E000242EE0D06A006820F04050D66AB5
:1035500030602CB9D06A006840F08050D66A306084
:1035600040F2F450D66A7060581EA04210D1D06A62
:10357000006840F00050D66A3060581EC0EBC010A2
:1035800000EB4000A1EB8005C5F30C00D66A70602B
:10359000D06A006840F00040D66A3060D06AC068E7
:1035A000D062641C9C42CED3106800F58050406904
:1035B00010F0040F09D00426106800F58050466111
:1035C0000026106800F580504660012082F8440013
:1035D00000BF002082F8450000BF00BF6BE7014636
:1035E000002200BF91F84500012801D10220704758
:1035F000012081F8450000BF022081F84400886A5C
:10360000006810F0004F38D1886A006810F4807F9D
:103610001ED0886B401C8863886B012801D1886AA2
:1036200008638B6A4B63886A0068C0F30D40021F11
:10363000CA63086B83680B64886AC068886201206B
:1036400081F8440000BF002081F8450000BFCEE7AC
:10365000886A006810F4007F09D0886A0863002334
:103660004B6301238B63886AC068886205E0886BBE
:10367000401C8863886AC0688862012081F8440021
:1036800000BF002081F8450000BF0120AFE70146E0
:10369000002200BF91F84500012801D102207047A7
:1036A000012081F8450000BF022081F844003AE083
:1036B000521C886A006800F44070B0F5007F07D1A2
:1036C000886A086301238B63886AC06888622AE07D
:1036D000886A006810F4407F06D1886B401C8863BC
:1036E000886AC06888621EE08B6A4B63886B401CE6
:1036F0008863886B012801D1886A0863886A00683A
:10370000C0F30D40001FC863086B83680B64886AB0
:10371000C0688862012081F8440000BF002081F861
:10372000450000BFBBE7886A006810F0004F01D178
:10373000042ABDD3012081F8440000BF002081F895
:10374000450000BF00BFAAE770477047704710B53B
:103750000446206800F58050406900F04000402891
:103760000FD12046FFF7F2FF4021206800F580507E
:103770004161012084F8440000BF002084F8450026
:1037800016E0206800F58050406910F0010F0FD05E
:103790002046FFF7DAFF0121206800F580504161E3
:1037A000012084F8440000BF002084F8450000BFD9
:1037B0004FF48031206800F580504161206800F5A9
:1037C0008050406900F40040B0F5004F10D1204611
:1037D000FFF7BAFF4FF40041206800F580504161C7
:1037E000012084F8440000BF002084F8450000BF99
:1037F00010BD70B503460C4615460021002293F813
:103800004400822801D1022070BD822083F8440048
:103810001868016901F01C01188A4FF4784606EA1D
:10382000C0200143701100EA8410014321F002011D
:1038300041F001011868016100BF521C186801695C
:1038400011F0010F03D04FF6FF708242F5D3A2F5BD
:103850007F40FF3804D1012083F844000320D3E7E0
:10386000186840692880012083F844000020CBE7D5
:1038700070B503460C4615460021002293F844001B
:10388000422801D1022070BD422083F8440018680C
:10389000016901F01C01188A4FF4784606EAC0203D
:1038A0000143701100EA8410014341F0020141F02C
:1038B0000101A8B21E6870611868016100BF521C46
:1038C0001868016911F0010F03D04FF6FF708242B2
:1038D000F5D3A2F57F40FF3804D1012083F84400DE
:1038E0000320D0E7012083F844000020CBE70168E3
:1038F00001F58051896941F00202016801F58051AA
:103900008A617047016801F58051896941F400526C
:10391000016801F580518A61704738B5044600207E
:103920000090206800F58050806940F48011206884
:1039300000F580508161206800F58050806900901A
:103940000120FFF707FB0099206800F58050816196
:1039500038BD38B50446002000902068006840F06B
:103960000400216808602068006800900120FFF7CB
:10397000F1FA00982168086038BD38B50446002087
:1039800000902068006840F0080021680860206806
:10399000006800900120FFF7DDFA009821680860B8
:1039A00038BD10B5044600BF94F84500012801D188
:1039B000022010BD012084F8450000BF022084F8D9
:1039C00044002046FFF7D9FF2046FFF7C2FF2046FC
:1039D000FFF7A3FF2046FFF795FF2046FFF787FF7D
:1039E000012084F8440000BF002084F8450000BF97
:1039F00000BFDEE738B5044600200090206800686C
:103A000020F008002168086020680068009001200C
:103A1000FFF7A0FA00982168086038BD38B5044661
:103A2000002000902068006820F0040021680860F1
:103A30002068006800900120FFF78CFA0098216848
:103A4000086038BD016801F58051896921F00202E2
:103A5000016801F580518A617047016801F5805164
:103A6000896921F40052016801F580518A6170472B
:103A700010B5044600BF94F84500012801D102208A
:103A800010BD012084F8450000BF022084F84400E6
:103A90002046FFF7E2FF2046FFF7D4FF2046FFF75E
:103AA000BDFF2046FFF739FF2046FFF7A3FF0120A7
:103AB00084F8440000BF002084F8450000BF00BF28
:103AC000DEE770B505460C46002600BF95F84500B8
:103AD000012801D1022070BD012085F8450000BFFA
:103AE000022085F84400002C6DD0286806687648CE
:103AF0000640D4E900010843A1680843E16808438F
:103B0000A96808432169084361690843E9680843D3
:103B1000A1690843E1690843216A0843616A0843CF
:103B2000A16A0843064328680660286806680120E1
:103B3000FFF710FA28680660D4E90B010843616BAF
:103B40000843A16B0843E16B0843216C0843616C97
:103B50000843A16C0843296848602868466801202A
:103B6000FFF7F8F928684660E06C29688860206DE6
:103B70002968C860286886694FF641700640B4F825
:103B80005410A06D40EA0140E16D0843216E0843E6
:103B9000616E0843A16E0843064328688661286861
:103BA00086690120FFF7D6F928688661D4E91B01F0
:103BB00008432968C8612868C6690120FFF7CAF967
:103BC0002868C66110E02868066826F49046D5E9A2
:103BD0000201084306432868066028680668012039
:103BE000FFF7B8F928680660012085F8440000BF97
:103BF000002085F8450000BF00BF6CE770B50546A2
:103C00000C46002600BF95F84500012801D102208E
:103C100070BD012085F8450000BF022085F84400F2
:103C2000286800F58050866928480640D4E90001DC
:103C30000843A1680843E1680843216908436169B2
:103C40000843A1690843E1690843216A0843064320
:103C5000286800F580508661286800F580508669E4
:103C60000120FFF777F9286800F580508661D4E9D4
:103C700009010843E16A0843216B0843616B08436B
:103C8000A16B40EA8100E16B084340F40001286821
:103C900000F580500160286800F58050066801201A
:103CA000FFF758F9286800F580500660012085F874
:103CB000440000BF002085F8450000BF00BFA7E713
:103CC000014691F8440070470F8120FF233FDEF842
:103CD000F0B50A46002400230025002119E1012641
:103CE00006FA01F4166806EA0403A3427ED1566878
:103CF000022E02D05668122E22D14F07FF0E1669EF
:103D000006FA07F5CF0800F1200656F827604F079E
:103D10004FEAD76C0F2707FA0CF7BE434FEAD10CD6
:103D200000F1200747F82C60CF0800F1200656F874
:103D300027602E434FEAD10C00F1200747F82C6092
:103D400006684FEA410C032707FA0CF7BE430660EA
:103D5000167906F003064F00BE4007683E43066032
:103D60005668012E08D05668022E05D05668112ECE
:103D700002D05668122E19D186684FEA410C0327EB
:103D800007FA0CF7BE4386604F00D668BE408768CE
:103D90003E438660476801268E40B74347604668C9
:103DA0001779C7F300178F403E434660C6684FEA55
:103DB000410C032707FA0CF7BE43C6604F00966814
:103DC000BE40C7683E43C660566806F08056B6F1EE
:103DD000805F8BD1934E366846F48046914F3E60AB
:103DE0008E07370F0F2606FA07F500E090E08E4E9B
:103DF0008F0856F82770AF434FEA910C46F82C70A5
:103E00008F0856F82760894FB84201D100272DE06E
:103E1000874FB84201D1012728E0864FB84201D12F
:103E2000022723E0844FB84201D103271EE0834FCD
:103E3000B84201D1042719E0814FB84201D10527CA
:103E400014E0804FB84201D106270FE07E4FB84200
:103E500001D107270AE07D4FB84201D1082705E0CC
:103E60007B4FB84201D1092700E00A274FEA817C45
:103E70004FEA1C7C07FA0CF73E436B4F4FEA910C5C
:103E800047F82C60734E36689E43724F3E603E1D6D
:103E900036689E433F1D3E60566806F48036B6F590
:103EA000803F04D13E1F36681E433F1F3E60566868
:103EB00006F40036B6F5003F06D1664E361D36686C
:103EC0001E43644F3F1D3E60624E083636689E4377
:103ED000604F08373E603E1D36689E433F1D3E6082
:103EE000566806F48016B6F5801F04D13E1F36686A
:103EF0001E433F1F3E60566806F40016B6F5001FCD
:103F000006D1544E0C3636681E43524F0C373E6075
:103F1000491C1029FFF4E3AEF0BDF0B502460B4694
:103F2000002400210025002058E0012606FA00F4B4
:103F300003EA0401A14250D116684FEA400C03275E
:103F400007FA0CF7BE431660C70802F1200656F8C0
:103F5000276047074FEAD76C0F2707FA0CF7BE43D5
:103F60004FEAD00C02F1200747F82C6096684FEA20
:103F7000400C032707FA0CF7BE43966057680126EA
:103F80008640B7435760D6684FEA400C032707FACC
:103F90000CF7BE43D6608607370F0F2606FA07F5E3
:103FA000214E870856F82770AF434FEA900C46F829
:103FB0002C70284E36688E43264F3E603E1D366874
:103FC0008E433F1D3E603E1D36688E433F1D3E6062
:103FD0003E1D36688E433F1D3E60401C1028A4D312
:103FE000F0BD024613690B4201D0012000E0002021
:103FF00070470AB1018300E04183704742694A403B
:1040000042617047704710B504461248143000688A
:10401000204205D00F48143004602046FFF7F2FF1D
:1040200010BD000044380240083801400000024042
:104030000004024000080240000C02400010024050
:104040000014024000180240001C02400020024000
:1040500000240240003C014000220268FC4B9842D0
:104060000ED0B0F1804F0BD0FA4B984208D0FA4BEB
:10407000984205D0F94B984202D0F94B984201D1B1
:10408000012300E000231BB122F070024B681A43A9
:10409000EF4B984220D0B0F1804F1DD0ED4B9842AD
:1040A0001AD0ED4B984217D0EC4B984214D0EC4B01
:1040B000984211D0EB4B98420ED0EB4B98420BD06C
:1040C000EA4B984208D0EA4B984205D0E94B984217
:1040D00002D0E94B984201D1012300E000231BB13B
:1040E00022F44072CB681A4302608B68C3620B688B
:1040F0008362D74B984202D0D94B984201D1012319
:1041000000E000230BB10B69036301234361704797
:10411000704710B504460CB9012010BD94F8390061
:1041200010B92046FFF7F4FF022084F83900211D62
:104130002068FFF791FF012084F839000020ECE7A8
:10414000704710B50446022084F8390000BF20688B
:10415000006A41F2111108420AD12068006A8910F0
:10416000084205D12068006820F00100216808603D
:1041700000BF2046FFF7E4FF002084F8390000BFAD
:1041800084F8380000BF10BD0146022081F83900D4
:104190000868006840F001000A681060012081F89A
:1041A0003900002070470146022081F8390000BF25
:1041B0000868006A41F2111210420AD10868006AC8
:1041C0009210104205D10868006820F001000A68CA
:1041D000106000BF012081F83900002070470146BF
:1041E0000868C06840F001000A68D060086800688C
:1041F00040F001000A68106000207047014608681E
:10420000C06820F001000A68D06000BF0868006A3A
:1042100041F2111210420AD10868006A921010424D
:1042200005D10868006820F001000A68106000BF2E
:1042300000207047704770B50446A56B012085F8D3
:1042400039002846FFF7F6FF70BD704770B5044689
:10425000A56B012085F839002846FFF7F6FF70BDF1
:1042600070B504460E46154694F83900022800D170
:1042700070BD94F83900012806D116B9002D00DD73
:10428000F6E7022084F839007C48E169C863AFF2A0
:104290005900E1698864216801F12C022B463146FE
:1042A000E06905F03CFA2068C06840F4807021683D
:1042B000C8602068006840F00100216808600020A4
:1042C000D6E701460868C06820F480700A68D060AC
:1042D00000BF0868006A41F2111210420AD1086852
:1042E000006A9210104205D10868006820F00100B1
:1042F0000A68106000BF012081F839000020704773
:10430000704710B504460CB9012010BD94F839006F
:1043100010B92046FFF7F4FF022084F83900211D70
:104320002068FFF799FE012084F839000020ECE7AF
:10433000704710B50446022084F8390000BF206899
:10434000006A41F2111108420AD12068006A8910FE
:10435000084205D12068006820F00100216808604B
:1043600000BF2046FFF7E4FF002084F8390000BFBB
:1043700084F8380000BF10BD30B50023012404FAD2
:1043800001F3046A9C430462046A02FA01F52C43B7
:10439000046230BD30B504460D460122294620682E
:1043A000FFF7EAFF2A492068884203D02C49206899
:1043B000884201D1012000E0002028B12068406C33
:1043C00040F40040216848642068006840F0010023
:1043D00021680860002030BD30B504460D4600223B
:1043E00029462068FFF7C8FF19492068884203D092
:1043F0001B492068884201D1012000E0002090B1D3
:1044000000BF2068006A41F2111108420AD12068F9
:10441000006A8910084205D12068406C20F40040F1
:104420002168486400BF00BF2068006A41F2111192
:1044300008420AD12068006A8910084205D1206824
:10444000006820F001002168086000BF002030BD36
:10445000000001400004004000080040000C004043
:104460000004014000400140004401400048014078
:1044700000180040001C0040002000404D42000891
:1044800030B504460D4635B1042D0BD0082D10D0A3
:104490000C2D1CD114E02068C06840F00200216897
:1044A000C86015E02068C06840F004002168C8605A
:1044B0000EE02068C06840F008002168C86007E08E
:1044C0002068C06840F010002168C86000E000BFAC
:1044D00000BF012229462068FFF74EFFFB492068F4
:1044E000884203D0FA492068884201D1012000E0C7
:1044F000002028B12068406C40F4004021684864E6
:104500002068006840F0010021680860002030BD8C
:1045100030B504460D4635B1042D0BD0082D10D012
:104520000C2D1CD114E02068C06820F00200216826
:10453000C86015E02068C06820F004002168C860E9
:104540000EE02068C06820F008002168C86007E01D
:104550002068C06820F010002168C86000E000BF3B
:1045600000BF002229462068FFF706FFD7492068D0
:10457000884203D0D6492068884201D1012000E05A
:10458000002090B100BF2068006A41F2111108427A
:104590000AD12068006A8910084205D12068406C61
:1045A00020F400402168486400BF00BF2068006A12
:1045B00041F2111108420AD12068006A89100842AC
:1045C00005D12068006820F001002168086000BF64
:1045D000002030BD704770B50446A56B012085F8FA
:1045E00039002846FFF7F6FF70BD2DE9F04104467B
:1045F0000E4615461F4694F83900022801D1BDE841
:10460000F08194F83900012806D115B9002F00DD9A
:10461000F5E7022084F8390036B1042E1BD0082EAD
:1046200030D00C2E5CD144E0AFF25501206AC1635A
:10463000AFF2FD31206A8164216801F134023B460A
:104640002946206A05F06BF82068C06840F40070C5
:104650002168C86045E0AFF28101606AC163AFF2D2
:104660002941606A8164216801F138023B4629468C
:10467000606A05F054F82068C06840F480602168E2
:10468000C8602EE0AFF2B101A06AC163AFF2594138
:10469000A06A8164216801F13C023B462946A06A78
:1046A00005F03DF82068C06840F400602168C860EB
:1046B00017E0AFF2DD01E06AC163AFF28541E06A65
:1046C0008164216801F140023B462946E06A05F019
:1046D00026F82068C06840F480502168C86000E077
:1046E00000BF00BF012231462068FFF745FE774931
:1046F0002068884203D076492068884201D1012091
:1047000000E0002028B12068406C40F4004021689F
:1047100048642068006840F00100216808600020BB
:104720006DE730B504460D4635B1042D0BD0082D8C
:1047300010D00C2D1CD114E02068C06820F400704B
:104740002168C86015E02068C06820F48060216896
:10475000C8600EE02068C06820F400602168C8606E
:1047600007E02068C06820F480502168C86000E03D
:1047700000BF00BF002229462068FFF7FDFD534916
:104780002068884203D052492068884201D1012024
:1047900000E0002090B100BF2068006A41F21111D2
:1047A00008420AD12068006A8910084205D12068B1
:1047B000406C20F400402168486400BF00BF2068BE
:1047C000006A41F2111108420AD12068006A89107A
:1047D000084205D12068006820F0010021680860C7
:1047E00000BF012084F83900002030BD704710B5AB
:1047F00004460CB9012010BD94F8390010B92046C8
:10480000FFF7F4FF022084F83900211D2068FFF72C
:1048100023FC012084F839000020ECE7704710B534
:104820000446022084F8390000BF2068006A41F283
:10483000111108420AD12068006A8910084205D186
:104840002068006820F001002168086000BF204651
:10485000FFF7E4FF002084F8390000BF84F8380037
:1048600000BF10BD30B504460D4601222946206820
:10487000FFF782FD15492068884203D0144920685B
:10488000884201D1012000E0002028B12068406C5E
:1048900040F40040216848642068006840F001004E
:1048A00021680860002030BD30B504460D46002266
:1048B00029462068FFF760FD04492068884203D03C
:1048C00003492068884205D1012004E0000001402E
:1048D00000040140002090B100BF2068006A41F24E
:1048E000111108420AD12068006A8910084205D1D6
:1048F0002068406C20F400402168486400BF00BF7D
:104900002068006A41F2111108420AD12068006A49
:104910008910084205D12068006820F00100216854
:10492000086000BF012084F83900002030BD30B598
:1049300004460D4635B1042D0BD0082D10D00C2D9A
:104940001CD114E02068C06840F002002168C860F3
:1049500015E02068C06840F004002168C8600EE0DF
:104960002068C06840F008002168C86007E020683F
:10497000C06840F010002168C86000E000BF00BFC0
:10498000012229462068FFF7F7FCF8492068884291
:1049900003D0F7492068884201D1012000E00020BF
:1049A00028B12068406C40F40040216848642068C9
:1049B000006840F0010021680860002030BD30B57B
:1049C00004460D4635B1042D0BD0082D10D00C2D0A
:1049D0001CD114E02068C06820F002002168C86083
:1049E00015E02068C06820F004002168C8600EE06F
:1049F0002068C06820F008002168C86007E02068CF
:104A0000C06820F010002168C86000E000BF00BF4F
:104A1000002229462068FFF7AFFCD449206888426D
:104A200003D0D3492068884201D1012000E0002052
:104A300090B100BF2068006A41F2111108420AD10A
:104A40002068006A8910084205D12068406C20F473
:104A500000402168486400BF00BF2068006A41F23E
:104A6000111108420AD12068006A8910084205D154
:104A70002068006820F001002168086000BF002065
:104A800030BD2DE9F04104460E4615461F4694F808
:104A90003900022801D1BDE8F08194F839000128DD
:104AA00006D115B9002F00DDF5E7022084F83900A2
:104AB00036B1042E1BD0082E30D00C2E5CD144E031
:104AC000AFF2ED41206AC163AFF69501206A8164BF
:104AD000216801F134023B462946206A04F01FFE9A
:104AE0002068C06840F400702168C86045E0AFF2FB
:104AF0001951606AC163AFF6C101606A81642168BF
:104B000001F138023B462946606A04F008FE20683D
:104B1000C06840F480602168C8602EE0AFF249515F
:104B2000A06AC163AFF6F101A06A8164216801F156
:104B30003C023B462946A06A04F0F1FD2068C068AB
:104B400040F400602168C86017E0AFF27551E06A78
:104B5000C163AFF61D11E06A8164216801F1400272
:104B60003B462946E06A04F0DAFD2068C06840F45C
:104B700080502168C86000E000BF00BF01223146BC
:104B80002068FFF7F9FB79492068884203D078490B
:104B90002068884201D1012000E0002028B120686F
:104BA000406C40F40040216848642068006840F090
:104BB00001002168086000206DE730B504460D460D
:104BC00035B1042D0BD0082D10D00C2D1CD114E0C4
:104BD0002068C06820F400702168C86015E0206873
:104BE000C06820F480602168C8600EE02068C0685A
:104BF00020F400602168C86007E02068C06820F4E5
:104C000080502168C86000E000BF00BF0022294634
:104C10002068FFF7B1FB55492068884203D054490A
:104C20002068884201D1012000E0002090B100BF3F
:104C30002068006A41F2111108420AD12068006A16
:104C40008910084205D12068406C20F4004021689A
:104C5000486400BF00BF2068006A41F21111084299
:104C60000AD12068006A8910084205D120680068CE
:104C700020F001002168086000BF012084F839009D
:104C8000002030BD704710B504460CB9012010BD9E
:104C900094F8390010B92046FFF7F4FF022084F899
:104CA0003900211D2068FFF7D7F9012084F8390069
:104CB0000020ECE7704710B50446022084F8390064
:104CC00000BF2068006A41F2111108420AD1206831
:104CD000006A8910084205D12068006820F00100B0
:104CE0002168086000BF2046FFF7E4FF002084F839
:104CF000390000BF84F8380000BF10BD30B504464D
:104D00000D46012229462068FFF736FB206800681F
:104D100040F0010021680860002030BD30B5044635
:104D20000D46002229462068FFF726FB00BF2068B9
:104D3000006A41F2111108420AD12068006A891004
:104D4000084205D12068006820F001002168086051
:104D500000BF002030BD30B504460D4655B1042DCE
:104D60000FD0082D14D00C2D20D118E000000140E8
:104D7000000401402068C06840F002002168C8605B
:104D800015E02068C06840F004002168C8600EE0AB
:104D90002068C06840F008002168C86007E020680B
:104DA000C06840F010002168C86000E000BF00BF8C
:104DB000012229462068FFF7DFFA2068006840F0EA
:104DC000010021680860002030BD30B504460D4662
:104DD00035B1042D0BD0082D10D00C2D1CD114E0B2
:104DE0002068C06820F002002168C86015E02068D3
:104DF000C06820F004002168C8600EE02068C06828
:104E000020F008002168C86007E02068C06820F032
:104E100010002168C86000E000BF00BF00222946E2
:104E20002068FFF7A9FA00BF2068006A41F211115B
:104E300008420AD12068006A8910084205D120681A
:104E4000006820F001002168086000BF002030BD2C
:104E5000704770B50446A56B012085F839002846D7
:104E6000FFF7F6FF70BD2DE9F04104460D461646EA
:104E70001F4694F83900022801D1BDE8F08194F86A
:104E80003900012806D116B9002F00DDF5E7022010
:104E900084F8390035B1042D1BD0082D30D00C2DED
:104EA0005CD144E0AFF25501206AC163AFF67941AD
:104EB000206A8164226802F134013B463246206A4E
:104EC00004F02DFC2068C06840F400702168C860C0
:104ED00045E0AFF28101606AC163AFF6A541606A47
:104EE0008164226802F138013B463246606A04F070
:104EF00016FC2068C06840F480602168C8602EE01D
:104F0000AFF2B101A06AC163AFF6D541A06A816476
:104F1000226802F13C013B463246A06A04F0FFFBE6
:104F20002068C06840F400602168C86017E0AFF2F4
:104F3000DD01E06AC163AFF60151E06A8164226875
:104F400002F140013B463246E06A04F0E8FB20688B
:104F5000C06840F480502168C86000E000BF00BF16
:104F6000012229462068FFF707FA2068006840F010
:104F700001002168086000207FE730B504460D4637
:104F800035B1042D0BD0082D10D00C2D1CD114E000
:104F90002068C06820F400702168C86015E02068AF
:104FA000C06820F480602168C8600EE02068C06896
:104FB00020F400602168C86007E02068C06820F421
:104FC00080502168C86000E000BF00BF0022294671
:104FD0002068FFF7D1F900BF2068006A41F2111183
:104FE00008420AD12068006A8910084205D1206869
:104FF000006820F001002168086000BF012084F8EB
:105000003900002030BD704770B504460D460CB91C
:10501000012070BD94F8390010B92046FFF7F3FF66
:10502000022084F83900211D2068FFF715F8206858
:10503000006820F0080021680860206800682843A4
:1050400021680860012084F839000020E1E77047FA
:1050500010B50446022084F8390000BF2068006AB9
:1050600041F2111108420AD12068006A89100842F1
:1050700005D12068006820F001002168086000BFA9
:105080002046FFF7E4FF002084F8390000BF84F8D1
:10509000380000BF10BD30B504460D460122002186
:1050A0002068FFF769F9012204212068FFF764F9FD
:1050B000FA492068884203D0F9492068884201D122
:1050C000012000E0002028B12068406C40F400403E
:1050D00021684864002030BD30B504460D460022EA
:1050E00011462068FFF748F9002204212068FFF7E5
:1050F00043F9EA492068884203D0E9492068884298
:1051000001D1012000E0002090B100BF2068006ABA
:1051100041F2111108420AD12068006A8910084240
:1051200005D12068406C20F400402168486400BF2D
:1051300000BF2068006A41F2111108420AD12068BC
:10514000006A8910084205D12068006820F001003B
:105150002168086000BF002030BD30B504460D4610
:105160002068C06840F002002168C8602068C068FC
:1051700040F004002168C860012200212068FFF788
:10518000FBF8012204212068FFF7F6F8C3492068E4
:10519000884203D0C2492068884201D1012000E042
:1051A000002028B12068406C40F400402168486429
:1051B000002030BD30B504460D462068C06820F0A0
:1051C00002002168C8602068C06820F004002168DF
:1051D000C860002211462068FFF7CEF800220421A3
:1051E0002068FFF7C9F8AD492068884203D0AC4970
:1051F0002068884201D1012000E0002090B100BF6A
:105200002068006A41F2111108420AD12068006A40
:105210008910084205D12068406C20F400402168C4
:10522000486400BF00BF2068006A41F211110842C3
:105230000AD12068006A8910084205D120680068F8
:1052400020F001002168086000BF002030BD7047D9
:105250002DE9F04104460D464FF0000800260027D6
:1052600014B90120BDE8F08194F8390010B9204646
:10527000FFF7EDFF022084F839002068806820F0F5
:10528000070021688860211D2068FEF7E5FE206880
:10529000D0F80880206886692068076A286840EA94
:1052A000080840F203308643A969A86840EA012053
:1052B000064340F60C4086434FF2F0008643E9690E
:1052C000E86840EA0120064328690001296A40EAAB
:1052D0000130064327F0220727F0880769696868CC
:1052E00040EA011007432068C0F808802068866102
:1052F00020680762012084F839000020B2E7704777
:1053000010B50446022084F8390000BF2068006A06
:1053100041F2111108420AD12068006A891008423E
:1053200005D12068006820F001002168086000BFF6
:105330002046FFF7E4FF002084F8390000BF84F81E
:10534000380000BF10BD30B504460D4615B1042D20
:105350000CD105E0012200212068FFF70DF810E0D4
:10536000012204212068FFF707F80AE0012200214A
:105370002068FFF701F8012204212068FEF7FCFFF6
:1053800000BF00BF2068006840F00100216808608D
:10539000002030BD30B504460D4615B1042D0CD1AA
:1053A00005E0002211462068FEF7E6FF10E000222B
:1053B00004212068FEF7E0FF0AE000221146206881
:1053C000FEF7DAFF002204212068FEF7D5FF00BFB8
:1053D00000BF00BF2068006A41F2111108420AD1E3
:1053E0002068006A8910084205D12068006820F012
:1053F00001002168086000BF002030BD30B50446C0
:105400000D4615B1042D18D10BE0012200212068B2
:10541000FEF7B2FF2068C06840F002002168C86053
:1054200022E0012204212068FEF7A6FF2068C06860
:1054300040F004002168C86016E0012200212068C5
:10544000FEF79AFF012204212068FEF795FF2068ED
:10545000C06840F002002168C8602068C06840F061
:1054600004002168C86000BF00BF2068006840F0E9
:10547000010021680860002030BD30B504460D46AB
:1054800085B9002211462068FEF776FF2068C068C3
:1054900020F002002168C86028E000000000014000
:1054A00000040140042D0BD1002204212068FEF7E6
:1054B00063FF2068C06820F004002168C86015E020
:1054C000002211462068FEF757FF002204212068C1
:1054D000FEF752FF2068C06820F002002168C86013
:1054E0002068C06820F004002168C86000BF206800
:1054F000006A41F2111108420AD12068006A89103D
:10550000084205D12068006820F001002168086089
:1055100000BF012084F83900002030BD2DE9F041A2
:1055200004460E4617461D46DDF8188094F83900EB
:10553000022801D1BDE8F08194F83900012809D191
:1055400007B125B9B8F1000F01DD0120F2E7022013
:1055500084F8390026B1042E23D0182E7ED141E0E4
:10556000AFF21171206AC163F849206A8164226830
:1055700002F1340143463A46206A04F0D0F820682C
:10558000C06840F400702168C8602068006840F07E
:10559000010021680860012200212068FEF7ECFE6E
:1055A0005DE0AFF25171606AC163E849606A81648D
:1055B000226802F1380143462A46606A04F0AFF8D7
:1055C0002068C06840F480602168C8602068006876
:1055D00040F0010021680860012204212068FEF7E4
:1055E000CBFE3CE0AFF29571206AC163D749206AD7
:1055F0008164226802F1340143463A46206A04F08D
:105600008EF8AFF2B171606AC163D049606A81649B
:10561000226802F1380143462A46606A04F07FF8A6
:105620002068006840F00100216808600122002124
:105630002068FEF7A1FE012204212068FEF79CFEEF
:105640002068C06840F400702168C8602068C068A5
:1056500040F480602168C86001E0FFE700BF00BF40
:10566000002067E730B504460D465DB900221146BB
:105670002068FEF781FE2068C06820F40070216871
:10568000C86023E0042D0BD1002204212068FEF71E
:1056900073FE2068C06820F480602168C86015E04F
:1056A000002211462068FEF767FE002204212068D0
:1056B000FEF762FE2068C06820F400702168C860B0
:1056C0002068C06820F480602168C86000BF20683E
:1056D000006A41F2111108420AD12068006A89105B
:1056E000084205D12068006820F0010021680860A8
:1056F00000BF012084F83900002030BD704770479A
:1057000010B5044620680069C0F34000E8B1206885
:10571000C068C0F34000C0B12068006920F00200FA
:1057200021680861012020762068806910F0030F4D
:1057300003D02046FFF78CFB05E02046FFF7DFFF94
:105740002046FEF747FF0020207620680069C0F35E
:105750008000E8B12068C068C0F38000C0B1206854
:10576000006920F00400216808610220207620688A
:10577000806910F4407F03D02046FFF769FB05E005
:105780002046FFF7BCFF2046FEF724FF00202076CE
:1057900020680069C0F3C000E8B12068C068C0F3A9
:1057A000C000C0B12068006920F0080021680861CD
:1057B000042020762068806910F0030F03D0204673
:1057C000FFF746FB05E02046FFF799FF2046FEF76E
:1057D00001FF0020207620680069C0F30010E8B1C6
:1057E0002068C068C0F30010C0B12068006920F0D4
:1057F000100021680861082020762068806910F474
:10580000407F03D02046FFF723FB05E02046FFF74B
:1058100076FF2046FEF7DEFE002020762068006935
:1058200010F0010F0DD02068C06810F0010F08D0F3
:105830002068006920F00100216808612046FEF719
:1058400004FD20680069C0F3C01068B12068C0681A
:10585000C0F3C01040B12068006920F080002168CA
:105860000861204601F0A2FD20680069C0F38010A5
:1058700068B12068C068C0F3801040B1206800693A
:1058800020F04000216808612046FFF737FF2068BC
:105890000069C0F3401068B12068C068C0F34010D0
:1058A00040B12068006920F020002168086120468E
:1058B00001F0B7FC10BD30B5002200230024056ABA
:1058C00025F480550562036A4468C26922F4E04207
:1058D00022F440720D6842EA052223F400538D68D9
:1058E00043EA05331A4DA84202D01A4DA84201D10D
:1058F000012500E0002525B124F480444D6944EAE7
:1059000085144460C2614D680564036230BD30B5E2
:10591000002400220023056A25F480750562026ACE
:105920004368C46924F0700424F003040D682C4318
:1059300022F400728D6842EA0522054DA84202D089
:10594000044DA84208D1012507E0000037420008B5
:105950000000014000040140002585B122F40062EE
:10596000CD6842EA052222F4806223F4805323F4B6
:1059700000534D6943EA05138D6943EA05134360FB
:10598000C4614D68C563026230BD30B50024002299
:105990000023056A25F010050562026A43688469E0
:1059A00024F4E04424F440740D6844EA052422F011
:1059B00020028D6842EA0512FD4DA84202D0FD4D3D
:1059C000A84201D1012500E0002585B122F0800226
:1059D000CD6842EA051222F0400223F4806323F4EA
:1059E00000634D6943EA85038D6943EA850343609B
:1059F00084614D688563026230BD30B500240022A9
:105A00000023056A25F001050562026A436884697E
:105A100024F0700424F003040D682C4322F00202E9
:105A20008D682A43E24DA84202D0E24DA84201D13E
:105A3000012500E000256DB122F00802CD682A435F
:105A400022F0040223F4807323F400734D692B4386
:105A50008D692B43436084614D684563026230BDAC
:105A600070B504460E46154600BF94F8380001286C
:105A700001D1022070BD012084F8380000BF02204F
:105A800084F8390035B1042D09D0082D0CD00C2D27
:105A900014D10EE031462068FFF7AFFF0FE031462A
:105AA0002068FFF772FF0AE031462068FFF72FFFFA
:105AB00005E031462068FFF7FEFE00E000BF00BFB2
:105AC000012084F8390000BF002084F8380000BFAE
:105AD00000BFCFE770B50C46154600210022066ACC
